{
  "fileName": "BancorFormula.sol",
  "contractName": "BancorFormula",
  "source": "pragma solidity >=0.4.26 <0.7.0;\n\nimport './IBancorFormula.sol';\nimport './BancorSafeMath.sol';\nimport './Utils.sol';\n\ncontract BancorFormula is IBancorFormula, Utils {\n    using BancorSafeMath for uint256;\n\n    uint16 public version = 6;\n\n    uint256 private constant ONE = 1;\n    uint32 private constant MAX_RATIO = 1000000;\n    uint8 private constant MIN_PRECISION = 32;\n    uint8 private constant MAX_PRECISION = 127;\n\n    /**\n      * Auto-generated via 'PrintIntScalingFactors.py'\n    */\n    uint256 private constant FIXED_1 = 0x080000000000000000000000000000000;\n    uint256 private constant FIXED_2 = 0x100000000000000000000000000000000;\n    uint256 private constant MAX_NUM = 0x200000000000000000000000000000000;\n\n    /**\n      * Auto-generated via 'PrintLn2ScalingFactors.py'\n    */\n    uint256 private constant LN2_NUMERATOR   = 0x3f80fe03f80fe03f80fe03f80fe03f8;\n    uint256 private constant LN2_DENOMINATOR = 0x5b9de1d10bf4103d647b0955897ba80;\n\n    /**\n      * Auto-generated via 'PrintFunctionOptimalLog.py' and 'PrintFunctionOptimalExp.py'\n    */\n    uint256 private constant OPT_LOG_MAX_VAL = 0x15bf0a8b1457695355fb8ac404e7a79e3;\n    uint256 private constant OPT_EXP_MAX_VAL = 0x800000000000000000000000000000000;\n\n    /**\n      * Auto-generated via 'PrintFunctionConstructor.py'\n    */\n    uint256[128] private maxExpArray;\n    constructor() public {\n    //  maxExpArray[  0] = 0x6bffffffffffffffffffffffffffffffff;\n    //  maxExpArray[  1] = 0x67ffffffffffffffffffffffffffffffff;\n    //  maxExpArray[  2] = 0x637fffffffffffffffffffffffffffffff;\n    //  maxExpArray[  3] = 0x5f6fffffffffffffffffffffffffffffff;\n    //  maxExpArray[  4] = 0x5b77ffffffffffffffffffffffffffffff;\n    //  maxExpArray[  5] = 0x57b3ffffffffffffffffffffffffffffff;\n    //  maxExpArray[  6] = 0x5419ffffffffffffffffffffffffffffff;\n    //  maxExpArray[  7] = 0x50a2ffffffffffffffffffffffffffffff;\n    //  maxExpArray[  8] = 0x4d517fffffffffffffffffffffffffffff;\n    //  maxExpArray[  9] = 0x4a233fffffffffffffffffffffffffffff;\n    //  maxExpArray[ 10] = 0x47165fffffffffffffffffffffffffffff;\n    //  maxExpArray[ 11] = 0x4429afffffffffffffffffffffffffffff;\n    //  maxExpArray[ 12] = 0x415bc7ffffffffffffffffffffffffffff;\n    //  maxExpArray[ 13] = 0x3eab73ffffffffffffffffffffffffffff;\n    //  maxExpArray[ 14] = 0x3c1771ffffffffffffffffffffffffffff;\n    //  maxExpArray[ 15] = 0x399e96ffffffffffffffffffffffffffff;\n    //  maxExpArray[ 16] = 0x373fc47fffffffffffffffffffffffffff;\n    //  maxExpArray[ 17] = 0x34f9e8ffffffffffffffffffffffffffff;\n    //  maxExpArray[ 18] = 0x32cbfd5fffffffffffffffffffffffffff;\n    //  maxExpArray[ 19] = 0x30b5057fffffffffffffffffffffffffff;\n    //  maxExpArray[ 20] = 0x2eb40f9fffffffffffffffffffffffffff;\n    //  maxExpArray[ 21] = 0x2cc8340fffffffffffffffffffffffffff;\n    //  maxExpArray[ 22] = 0x2af09481ffffffffffffffffffffffffff;\n    //  maxExpArray[ 23] = 0x292c5bddffffffffffffffffffffffffff;\n    //  maxExpArray[ 24] = 0x277abdcdffffffffffffffffffffffffff;\n    //  maxExpArray[ 25] = 0x25daf6657fffffffffffffffffffffffff;\n    //  maxExpArray[ 26] = 0x244c49c65fffffffffffffffffffffffff;\n    //  maxExpArray[ 27] = 0x22ce03cd5fffffffffffffffffffffffff;\n    //  maxExpArray[ 28] = 0x215f77c047ffffffffffffffffffffffff;\n    //  maxExpArray[ 29] = 0x1fffffffffffffffffffffffffffffffff;\n    //  maxExpArray[ 30] = 0x1eaefdbdabffffffffffffffffffffffff;\n    //  maxExpArray[ 31] = 0x1d6bd8b2ebffffffffffffffffffffffff;\n        maxExpArray[ 32] = 0x1c35fedd14ffffffffffffffffffffffff;\n        maxExpArray[ 33] = 0x1b0ce43b323fffffffffffffffffffffff;\n        maxExpArray[ 34] = 0x19f0028ec1ffffffffffffffffffffffff;\n        maxExpArray[ 35] = 0x18ded91f0e7fffffffffffffffffffffff;\n        maxExpArray[ 36] = 0x17d8ec7f0417ffffffffffffffffffffff;\n        maxExpArray[ 37] = 0x16ddc6556cdbffffffffffffffffffffff;\n        maxExpArray[ 38] = 0x15ecf52776a1ffffffffffffffffffffff;\n        maxExpArray[ 39] = 0x15060c256cb2ffffffffffffffffffffff;\n        maxExpArray[ 40] = 0x1428a2f98d72ffffffffffffffffffffff;\n        maxExpArray[ 41] = 0x13545598e5c23fffffffffffffffffffff;\n        maxExpArray[ 42] = 0x1288c4161ce1dfffffffffffffffffffff;\n        maxExpArray[ 43] = 0x11c592761c666fffffffffffffffffffff;\n        maxExpArray[ 44] = 0x110a688680a757ffffffffffffffffffff;\n        maxExpArray[ 45] = 0x1056f1b5bedf77ffffffffffffffffffff;\n        maxExpArray[ 46] = 0x0faadceceeff8bffffffffffffffffffff;\n        maxExpArray[ 47] = 0x0f05dc6b27edadffffffffffffffffffff;\n        maxExpArray[ 48] = 0x0e67a5a25da4107fffffffffffffffffff;\n        maxExpArray[ 49] = 0x0dcff115b14eedffffffffffffffffffff;\n        maxExpArray[ 50] = 0x0d3e7a392431239fffffffffffffffffff;\n        maxExpArray[ 51] = 0x0cb2ff529eb71e4fffffffffffffffffff;\n        maxExpArray[ 52] = 0x0c2d415c3db974afffffffffffffffffff;\n        maxExpArray[ 53] = 0x0bad03e7d883f69bffffffffffffffffff;\n        maxExpArray[ 54] = 0x0b320d03b2c343d5ffffffffffffffffff;\n        maxExpArray[ 55] = 0x0abc25204e02828dffffffffffffffffff;\n        maxExpArray[ 56] = 0x0a4b16f74ee4bb207fffffffffffffffff;\n        maxExpArray[ 57] = 0x09deaf736ac1f569ffffffffffffffffff;\n        maxExpArray[ 58] = 0x0976bd9952c7aa957fffffffffffffffff;\n        maxExpArray[ 59] = 0x09131271922eaa606fffffffffffffffff;\n        maxExpArray[ 60] = 0x08b380f3558668c46fffffffffffffffff;\n        maxExpArray[ 61] = 0x0857ddf0117efa215bffffffffffffffff;\n        maxExpArray[ 62] = 0x07ffffffffffffffffffffffffffffffff;\n        maxExpArray[ 63] = 0x07abbf6f6abb9d087fffffffffffffffff;\n        maxExpArray[ 64] = 0x075af62cbac95f7dfa7fffffffffffffff;\n        maxExpArray[ 65] = 0x070d7fb7452e187ac13fffffffffffffff;\n        maxExpArray[ 66] = 0x06c3390ecc8af379295fffffffffffffff;\n        maxExpArray[ 67] = 0x067c00a3b07ffc01fd6fffffffffffffff;\n        maxExpArray[ 68] = 0x0637b647c39cbb9d3d27ffffffffffffff;\n        maxExpArray[ 69] = 0x05f63b1fc104dbd39587ffffffffffffff;\n        maxExpArray[ 70] = 0x05b771955b36e12f7235ffffffffffffff;\n        maxExpArray[ 71] = 0x057b3d49dda84556d6f6ffffffffffffff;\n        maxExpArray[ 72] = 0x054183095b2c8ececf30ffffffffffffff;\n        maxExpArray[ 73] = 0x050a28be635ca2b888f77fffffffffffff;\n        maxExpArray[ 74] = 0x04d5156639708c9db33c3fffffffffffff;\n        maxExpArray[ 75] = 0x04a23105873875bd52dfdfffffffffffff;\n        maxExpArray[ 76] = 0x0471649d87199aa990756fffffffffffff;\n        maxExpArray[ 77] = 0x04429a21a029d4c1457cfbffffffffffff;\n        maxExpArray[ 78] = 0x0415bc6d6fb7dd71af2cb3ffffffffffff;\n        maxExpArray[ 79] = 0x03eab73b3bbfe282243ce1ffffffffffff;\n        maxExpArray[ 80] = 0x03c1771ac9fb6b4c18e229ffffffffffff;\n        maxExpArray[ 81] = 0x0399e96897690418f785257fffffffffff;\n        maxExpArray[ 82] = 0x0373fc456c53bb779bf0ea9fffffffffff;\n        maxExpArray[ 83] = 0x034f9e8e490c48e67e6ab8bfffffffffff;\n        maxExpArray[ 84] = 0x032cbfd4a7adc790560b3337ffffffffff;\n        maxExpArray[ 85] = 0x030b50570f6e5d2acca94613ffffffffff;\n        maxExpArray[ 86] = 0x02eb40f9f620fda6b56c2861ffffffffff;\n        maxExpArray[ 87] = 0x02cc8340ecb0d0f520a6af58ffffffffff;\n        maxExpArray[ 88] = 0x02af09481380a0a35cf1ba02ffffffffff;\n        maxExpArray[ 89] = 0x0292c5bdd3b92ec810287b1b3fffffffff;\n        maxExpArray[ 90] = 0x0277abdcdab07d5a77ac6d6b9fffffffff;\n        maxExpArray[ 91] = 0x025daf6654b1eaa55fd64df5efffffffff;\n        maxExpArray[ 92] = 0x0244c49c648baa98192dce88b7ffffffff;\n        maxExpArray[ 93] = 0x022ce03cd5619a311b2471268bffffffff;\n        maxExpArray[ 94] = 0x0215f77c045fbe885654a44a0fffffffff;\n        maxExpArray[ 95] = 0x01ffffffffffffffffffffffffffffffff;\n        maxExpArray[ 96] = 0x01eaefdbdaaee7421fc4d3ede5ffffffff;\n        maxExpArray[ 97] = 0x01d6bd8b2eb257df7e8ca57b09bfffffff;\n        maxExpArray[ 98] = 0x01c35fedd14b861eb0443f7f133fffffff;\n        maxExpArray[ 99] = 0x01b0ce43b322bcde4a56e8ada5afffffff;\n        maxExpArray[100] = 0x019f0028ec1fff007f5a195a39dfffffff;\n        maxExpArray[101] = 0x018ded91f0e72ee74f49b15ba527ffffff;\n        maxExpArray[102] = 0x017d8ec7f04136f4e5615fd41a63ffffff;\n        maxExpArray[103] = 0x016ddc6556cdb84bdc8d12d22e6fffffff;\n        maxExpArray[104] = 0x015ecf52776a1155b5bd8395814f7fffff;\n        maxExpArray[105] = 0x015060c256cb23b3b3cc3754cf40ffffff;\n        maxExpArray[106] = 0x01428a2f98d728ae223ddab715be3fffff;\n        maxExpArray[107] = 0x013545598e5c23276ccf0ede68034fffff;\n        maxExpArray[108] = 0x01288c4161ce1d6f54b7f61081194fffff;\n        maxExpArray[109] = 0x011c592761c666aa641d5a01a40f17ffff;\n        maxExpArray[110] = 0x0110a688680a7530515f3e6e6cfdcdffff;\n        maxExpArray[111] = 0x01056f1b5bedf75c6bcb2ce8aed428ffff;\n        maxExpArray[112] = 0x00faadceceeff8a0890f3875f008277fff;\n        maxExpArray[113] = 0x00f05dc6b27edad306388a600f6ba0bfff;\n        maxExpArray[114] = 0x00e67a5a25da41063de1495d5b18cdbfff;\n        maxExpArray[115] = 0x00dcff115b14eedde6fc3aa5353f2e4fff;\n        maxExpArray[116] = 0x00d3e7a3924312399f9aae2e0f868f8fff;\n        maxExpArray[117] = 0x00cb2ff529eb71e41582cccd5a1ee26fff;\n        maxExpArray[118] = 0x00c2d415c3db974ab32a51840c0b67edff;\n        maxExpArray[119] = 0x00bad03e7d883f69ad5b0a186184e06bff;\n        maxExpArray[120] = 0x00b320d03b2c343d4829abd6075f0cc5ff;\n        maxExpArray[121] = 0x00abc25204e02828d73c6e80bcdb1a95bf;\n        maxExpArray[122] = 0x00a4b16f74ee4bb2040a1ec6c15fbbf2df;\n        maxExpArray[123] = 0x009deaf736ac1f569deb1b5ae3f36c130f;\n        maxExpArray[124] = 0x00976bd9952c7aa957f5937d790ef65037;\n        maxExpArray[125] = 0x009131271922eaa6064b73a22d0bd4f2bf;\n        maxExpArray[126] = 0x008b380f3558668c46c91c49a2f8e967b9;\n        maxExpArray[127] = 0x00857ddf0117efa215952912839f6473e6;\n    }\n\n    /**\n      * @dev given a token supply, reserve balance, ratio and a deposit amount (in the reserve token),\n      * calculates the return for a given conversion (in the main token)\n      *\n      * Formula:\n      * Return = _supply * ((1 + _depositAmount / _reserveBalance) ^ (_reserveRatio / 1000000) - 1)\n      *\n      * @param _supply              token total supply\n      * @param _reserveBalance      total reserve balance\n      * @param _reserveRatio        reserve ratio, represented in ppm, 1-1000000\n      * @param _depositAmount       deposit amount, in reserve token\n      *\n      * @return purchase return amount\n    */\n    function calculatePurchaseReturn(uint256 _supply, uint256 _reserveBalance, uint32 _reserveRatio, uint256 _depositAmount) public view returns (uint256) {\n        // validate input\n        require(_supply > 0 && _reserveBalance > 0 && _reserveRatio > 0 && _reserveRatio <= MAX_RATIO);\n\n        // special case for 0 deposit amount\n        if (_depositAmount == 0)\n            return 0;\n\n        // special case if the ratio = 100%\n        if (_reserveRatio == MAX_RATIO)\n            return _supply.mul(_depositAmount) / _reserveBalance;\n\n        uint256 result;\n        uint8 precision;\n        uint256 baseN = _depositAmount.add(_reserveBalance);\n        (result, precision) = power(baseN, _reserveBalance, _reserveRatio, MAX_RATIO);\n        uint256 temp = _supply.mul(result) >> precision;\n        return temp - _supply;\n    }\n\n    /**\n      * @dev given a token supply, reserve balance, ratio and a sell amount (in the main token),\n      * calculates the return for a given conversion (in the reserve token)\n      *\n      * Formula:\n      * Return = _reserveBalance * (1 - (1 - _sellAmount / _supply) ^ (1000000 / _reserveRatio))\n      *\n      * @param _supply              token total supply\n      * @param _reserveBalance      total reserve\n      * @param _reserveRatio        constant reserve Ratio, represented in ppm, 1-1000000\n      * @param _sellAmount          sell amount, in the token itself\n      *\n      * @return sale return amount\n    */\n    function calculateSaleReturn(uint256 _supply, uint256 _reserveBalance, uint32 _reserveRatio, uint256 _sellAmount) public view returns (uint256) {\n        // validate input\n        require(_supply > 0 && _reserveBalance > 0 && _reserveRatio > 0 && _reserveRatio <= MAX_RATIO && _sellAmount <= _supply);\n\n        // special case for 0 sell amount\n        if (_sellAmount == 0)\n            return 0;\n\n        // special case for selling the entire supply\n        if (_sellAmount == _supply)\n            return _reserveBalance;\n\n        // special case if the ratio = 100%\n        if (_reserveRatio == MAX_RATIO)\n            return _reserveBalance.mul(_sellAmount) / _supply;\n\n        uint256 result;\n        uint8 precision;\n        uint256 baseD = _supply - _sellAmount;\n        (result, precision) = power(_supply, baseD, MAX_RATIO, _reserveRatio);\n        uint256 temp1 = _reserveBalance.mul(result);\n        uint256 temp2 = _reserveBalance << precision;\n        return (temp1 - temp2) / result;\n    }\n\n    /**\n      * @dev given two reserve balances/ratios and a sell amount (in the first reserve token),\n      * calculates the return for a conversion from the first reserve token to the second reserve token (in the second reserve token)\n      * note that prior to version 4, you should use 'calculateCrossConnectorReturn' instead\n      *\n      * Formula:\n      * Return = _toReserveBalance * (1 - (_fromReserveBalance / (_fromReserveBalance + _amount)) ^ (_fromReserveRatio / _toReserveRatio))\n      *\n      * @param _fromReserveBalance      input reserve balance\n      * @param _fromReserveRatio        input reserve ratio, represented in ppm, 1-1000000\n      * @param _toReserveBalance        output reserve balance\n      * @param _toReserveRatio          output reserve ratio, represented in ppm, 1-1000000\n      * @param _amount                  input reserve amount\n      *\n      * @return second reserve amount\n    */\n    function calculateCrossReserveReturn(uint256 _fromReserveBalance, uint32 _fromReserveRatio, uint256 _toReserveBalance, uint32 _toReserveRatio, uint256 _amount) public view returns (uint256) {\n        // validate input\n        require(_fromReserveBalance > 0 && _fromReserveRatio > 0 && _fromReserveRatio <= MAX_RATIO && _toReserveBalance > 0 && _toReserveRatio > 0 && _toReserveRatio <= MAX_RATIO);\n\n        // special case for equal ratios\n        if (_fromReserveRatio == _toReserveRatio)\n            return _toReserveBalance.mul(_amount) / _fromReserveBalance.add(_amount);\n\n        uint256 result;\n        uint8 precision;\n        uint256 baseN = _fromReserveBalance.add(_amount);\n        (result, precision) = power(baseN, _fromReserveBalance, _fromReserveRatio, _toReserveRatio);\n        uint256 temp1 = _toReserveBalance.mul(result);\n        uint256 temp2 = _toReserveBalance << precision;\n        return (temp1 - temp2) / result;\n    }\n\n    /**\n      * @dev given a smart token supply, reserve balance, total ratio and an amount of requested smart tokens,\n      * calculates the amount of reserve tokens required for purchasing the given amount of smart tokens\n      *\n      * Formula:\n      * Return = _reserveBalance * (((_supply + _amount) / _supply) ^ (MAX_RATIO / _totalRatio) - 1)\n      *\n      * @param _supply              smart token supply\n      * @param _reserveBalance      reserve token balance\n      * @param _totalRatio          total ratio, represented in ppm, 2-2000000\n      * @param _amount              requested amount of smart tokens\n      *\n      * @return amount of reserve tokens\n    */\n    function calculateFundCost(uint256 _supply, uint256 _reserveBalance, uint32 _totalRatio, uint256 _amount) public view returns (uint256) {\n        // validate input\n        require(_supply > 0 && _reserveBalance > 0 && _totalRatio > 1 && _totalRatio <= MAX_RATIO * 2);\n\n        // special case for 0 amount\n        if (_amount == 0)\n            return 0;\n\n        // special case if the total ratio = 100%\n        if (_totalRatio == MAX_RATIO)\n            return (_amount.mul(_reserveBalance) - 1) / _supply + 1;\n\n        uint256 result;\n        uint8 precision;\n        uint256 baseN = _supply.add(_amount);\n        (result, precision) = power(baseN, _supply, MAX_RATIO, _totalRatio);\n        uint256 temp = ((_reserveBalance.mul(result) - 1) >> precision) + 1;\n        return temp - _reserveBalance;\n    }\n\n    /**\n      * @dev given a smart token supply, reserve balance, total ratio and an amount of smart tokens to liquidate,\n      * calculates the amount of reserve tokens received for selling the given amount of smart tokens\n      *\n      * Formula:\n      * Return = _reserveBalance * (1 - ((_supply - _amount) / _supply) ^ (MAX_RATIO / _totalRatio))\n      *\n      * @param _supply              smart token supply\n      * @param _reserveBalance      reserve token balance\n      * @param _totalRatio          total ratio, represented in ppm, 2-2000000\n      * @param _amount              amount of smart tokens to liquidate\n      *\n      * @return amount of reserve tokens\n    */\n    function calculateLiquidateReturn(uint256 _supply, uint256 _reserveBalance, uint32 _totalRatio, uint256 _amount) public view returns (uint256) {\n        // validate input\n        require(_supply > 0 && _reserveBalance > 0 && _totalRatio > 1 && _totalRatio <= MAX_RATIO * 2 && _amount <= _supply);\n\n        // special case for 0 amount\n        if (_amount == 0)\n            return 0;\n\n        // special case for liquidating the entire supply\n        if (_amount == _supply)\n            return _reserveBalance;\n\n        // special case if the total ratio = 100%\n        if (_totalRatio == MAX_RATIO)\n            return _amount.mul(_reserveBalance) / _supply;\n\n        uint256 result;\n        uint8 precision;\n        uint256 baseD = _supply - _amount;\n        (result, precision) = power(_supply, baseD, MAX_RATIO, _totalRatio);\n        uint256 temp1 = _reserveBalance.mul(result);\n        uint256 temp2 = _reserveBalance << precision;\n        return (temp1 - temp2) / result;\n    }\n\n    /**\n      * @dev General Description:\n      *     Determine a value of precision.\n      *     Calculate an integer approximation of (_baseN / _baseD) ^ (_expN / _expD) * 2 ^ precision.\n      *     Return the result along with the precision used.\n      *\n      * Detailed Description:\n      *     Instead of calculating \"base ^ exp\", we calculate \"e ^ (log(base) * exp)\".\n      *     The value of \"log(base)\" is represented with an integer slightly smaller than \"log(base) * 2 ^ precision\".\n      *     The larger \"precision\" is, the more accurately this value represents the real value.\n      *     However, the larger \"precision\" is, the more bits are required in order to store this value.\n      *     And the exponentiation function, which takes \"x\" and calculates \"e ^ x\", is limited to a maximum exponent (maximum value of \"x\").\n      *     This maximum exponent depends on the \"precision\" used, and it is given by \"maxExpArray[precision] >> (MAX_PRECISION - precision)\".\n      *     Hence we need to determine the highest precision which can be used for the given input, before calling the exponentiation function.\n      *     This allows us to compute \"base ^ exp\" with maximum accuracy and without exceeding 256 bits in any of the intermediate computations.\n      *     This functions assumes that \"_expN < 2 ^ 256 / log(MAX_NUM - 1)\", otherwise the multiplication should be replaced with a \"safeMul\".\n      *     Since we rely on unsigned-integer arithmetic and \"base < 1\" ==> \"log(base) < 0\", this function does not support \"_baseN < _baseD\".\n    */\n    function power(uint256 _baseN, uint256 _baseD, uint32 _expN, uint32 _expD) internal view returns (uint256, uint8) {\n        require(_baseN < MAX_NUM);\n\n        uint256 baseLog;\n        uint256 base = _baseN * FIXED_1 / _baseD;\n        if (base < OPT_LOG_MAX_VAL) {\n            baseLog = optimalLog(base);\n        }\n        else {\n            baseLog = generalLog(base);\n        }\n\n        uint256 baseLogTimesExp = baseLog * _expN / _expD;\n        if (baseLogTimesExp < OPT_EXP_MAX_VAL) {\n            return (optimalExp(baseLogTimesExp), MAX_PRECISION);\n        }\n        else {\n            uint8 precision = findPositionInMaxExpArray(baseLogTimesExp);\n            return (generalExp(baseLogTimesExp >> (MAX_PRECISION - precision), precision), precision);\n        }\n    }\n\n    /**\n      * @dev computes log(x / FIXED_1) * FIXED_1.\n      * This functions assumes that \"x >= FIXED_1\", because the output would be negative otherwise.\n    */\n    function generalLog(uint256 x) internal pure returns (uint256) {\n        uint256 res = 0;\n\n        // If x >= 2, then we compute the integer part of log2(x), which is larger than 0.\n        if (x >= FIXED_2) {\n            uint8 count = floorLog2(x / FIXED_1);\n            x >>= count; // now x < 2\n            res = count * FIXED_1;\n        }\n\n        // If x > 1, then we compute the fraction part of log2(x), which is larger than 0.\n        if (x > FIXED_1) {\n            for (uint8 i = MAX_PRECISION; i > 0; --i) {\n                x = (x * x) / FIXED_1; // now 1 < x < 4\n                if (x >= FIXED_2) {\n                    x >>= 1; // now 1 < x < 2\n                    res += ONE << (i - 1);\n                }\n            }\n        }\n\n        return res * LN2_NUMERATOR / LN2_DENOMINATOR;\n    }\n\n    /**\n      * @dev computes the largest integer smaller than or equal to the binary logarithm of the input.\n    */\n    function floorLog2(uint256 _n) internal pure returns (uint8) {\n        uint8 res = 0;\n\n        if (_n < 256) {\n            // At most 8 iterations\n            while (_n > 1) {\n                _n >>= 1;\n                res += 1;\n            }\n        }\n        else {\n            // Exactly 8 iterations\n            for (uint8 s = 128; s > 0; s >>= 1) {\n                if (_n >= (ONE << s)) {\n                    _n >>= s;\n                    res |= s;\n                }\n            }\n        }\n\n        return res;\n    }\n\n    /**\n      * @dev the global \"maxExpArray\" is sorted in descending order, and therefore the following statements are equivalent:\n      * - This function finds the position of [the smallest value in \"maxExpArray\" larger than or equal to \"x\"]\n      * - This function finds the highest position of [a value in \"maxExpArray\" larger than or equal to \"x\"]\n    */\n    function findPositionInMaxExpArray(uint256 _x) internal view returns (uint8) {\n        uint8 lo = MIN_PRECISION;\n        uint8 hi = MAX_PRECISION;\n\n        while (lo + 1 < hi) {\n            uint8 mid = (lo + hi) / 2;\n            if (maxExpArray[mid] >= _x)\n                lo = mid;\n            else\n                hi = mid;\n        }\n\n        if (maxExpArray[hi] >= _x)\n            return hi;\n        if (maxExpArray[lo] >= _x)\n            return lo;\n\n        require(false);\n        return 0;\n    }\n\n    /**\n      * @dev this function can be auto-generated by the script 'PrintFunctionGeneralExp.py'.\n      * it approximates \"e ^ x\" via maclaurin summation: \"(x^0)/0! + (x^1)/1! + ... + (x^n)/n!\".\n      * it returns \"e ^ (x / 2 ^ precision) * 2 ^ precision\", that is, the result is upshifted for accuracy.\n      * the global \"maxExpArray\" maps each \"precision\" to \"((maximumExponent + 1) << (MAX_PRECISION - precision)) - 1\".\n      * the maximum permitted value for \"x\" is therefore given by \"maxExpArray[precision] >> (MAX_PRECISION - precision)\".\n    */\n    function generalExp(uint256 _x, uint8 _precision) internal pure returns (uint256) {\n        uint256 xi = _x;\n        uint256 res = 0;\n\n        xi = (xi * _x) >> _precision; res += xi * 0x3442c4e6074a82f1797f72ac0000000; // add x^02 * (33! / 02!)\n        xi = (xi * _x) >> _precision; res += xi * 0x116b96f757c380fb287fd0e40000000; // add x^03 * (33! / 03!)\n        xi = (xi * _x) >> _precision; res += xi * 0x045ae5bdd5f0e03eca1ff4390000000; // add x^04 * (33! / 04!)\n        xi = (xi * _x) >> _precision; res += xi * 0x00defabf91302cd95b9ffda50000000; // add x^05 * (33! / 05!)\n        xi = (xi * _x) >> _precision; res += xi * 0x002529ca9832b22439efff9b8000000; // add x^06 * (33! / 06!)\n        xi = (xi * _x) >> _precision; res += xi * 0x00054f1cf12bd04e516b6da88000000; // add x^07 * (33! / 07!)\n        xi = (xi * _x) >> _precision; res += xi * 0x0000a9e39e257a09ca2d6db51000000; // add x^08 * (33! / 08!)\n        xi = (xi * _x) >> _precision; res += xi * 0x000012e066e7b839fa050c309000000; // add x^09 * (33! / 09!)\n        xi = (xi * _x) >> _precision; res += xi * 0x000001e33d7d926c329a1ad1a800000; // add x^10 * (33! / 10!)\n        xi = (xi * _x) >> _precision; res += xi * 0x0000002bee513bdb4a6b19b5f800000; // add x^11 * (33! / 11!)\n        xi = (xi * _x) >> _precision; res += xi * 0x00000003a9316fa79b88eccf2a00000; // add x^12 * (33! / 12!)\n        xi = (xi * _x) >> _precision; res += xi * 0x0000000048177ebe1fa812375200000; // add x^13 * (33! / 13!)\n        xi = (xi * _x) >> _precision; res += xi * 0x0000000005263fe90242dcbacf00000; // add x^14 * (33! / 14!)\n        xi = (xi * _x) >> _precision; res += xi * 0x000000000057e22099c030d94100000; // add x^15 * (33! / 15!)\n        xi = (xi * _x) >> _precision; res += xi * 0x0000000000057e22099c030d9410000; // add x^16 * (33! / 16!)\n        xi = (xi * _x) >> _precision; res += xi * 0x00000000000052b6b54569976310000; // add x^17 * (33! / 17!)\n        xi = (xi * _x) >> _precision; res += xi * 0x00000000000004985f67696bf748000; // add x^18 * (33! / 18!)\n        xi = (xi * _x) >> _precision; res += xi * 0x000000000000003dea12ea99e498000; // add x^19 * (33! / 19!)\n        xi = (xi * _x) >> _precision; res += xi * 0x00000000000000031880f2214b6e000; // add x^20 * (33! / 20!)\n        xi = (xi * _x) >> _precision; res += xi * 0x000000000000000025bcff56eb36000; // add x^21 * (33! / 21!)\n        xi = (xi * _x) >> _precision; res += xi * 0x000000000000000001b722e10ab1000; // add x^22 * (33! / 22!)\n        xi = (xi * _x) >> _precision; res += xi * 0x0000000000000000001317c70077000; // add x^23 * (33! / 23!)\n        xi = (xi * _x) >> _precision; res += xi * 0x00000000000000000000cba84aafa00; // add x^24 * (33! / 24!)\n        xi = (xi * _x) >> _precision; res += xi * 0x00000000000000000000082573a0a00; // add x^25 * (33! / 25!)\n        xi = (xi * _x) >> _precision; res += xi * 0x00000000000000000000005035ad900; // add x^26 * (33! / 26!)\n        xi = (xi * _x) >> _precision; res += xi * 0x000000000000000000000002f881b00; // add x^27 * (33! / 27!)\n        xi = (xi * _x) >> _precision; res += xi * 0x0000000000000000000000001b29340; // add x^28 * (33! / 28!)\n        xi = (xi * _x) >> _precision; res += xi * 0x00000000000000000000000000efc40; // add x^29 * (33! / 29!)\n        xi = (xi * _x) >> _precision; res += xi * 0x0000000000000000000000000007fe0; // add x^30 * (33! / 30!)\n        xi = (xi * _x) >> _precision; res += xi * 0x0000000000000000000000000000420; // add x^31 * (33! / 31!)\n        xi = (xi * _x) >> _precision; res += xi * 0x0000000000000000000000000000021; // add x^32 * (33! / 32!)\n        xi = (xi * _x) >> _precision; res += xi * 0x0000000000000000000000000000001; // add x^33 * (33! / 33!)\n\n        return res / 0x688589cc0e9505e2f2fee5580000000 + _x + (ONE << _precision); // divide by 33! and then add x^1 / 1! + x^0 / 0!\n    }\n\n    /**\n      * @dev computes log(x / FIXED_1) * FIXED_1\n      * Input range: FIXED_1 <= x <= LOG_EXP_MAX_VAL - 1\n      * Auto-generated via 'PrintFunctionOptimalLog.py'\n      * Detailed description:\n      * - Rewrite the input as a product of natural exponents and a single residual r, such that 1 < r < 2\n      * - The natural logarithm of each (pre-calculated) exponent is the degree of the exponent\n      * - The natural logarithm of r is calculated via Taylor series for log(1 + x), where x = r - 1\n      * - The natural logarithm of the input is calculated by summing up the intermediate results above\n      * - For example: log(250) = log(e^4 * e^1 * e^0.5 * 1.021692859) = 4 + 1 + 0.5 + log(1 + 0.021692859)\n    */\n    function optimalLog(uint256 x) internal pure returns (uint256) {\n        uint256 res = 0;\n\n        uint256 y;\n        uint256 z;\n        uint256 w;\n\n        if (x >= 0xd3094c70f034de4b96ff7d5b6f99fcd8) {res += 0x40000000000000000000000000000000; x = x * FIXED_1 / 0xd3094c70f034de4b96ff7d5b6f99fcd8;} // add 1 / 2^1\n        if (x >= 0xa45af1e1f40c333b3de1db4dd55f29a7) {res += 0x20000000000000000000000000000000; x = x * FIXED_1 / 0xa45af1e1f40c333b3de1db4dd55f29a7;} // add 1 / 2^2\n        if (x >= 0x910b022db7ae67ce76b441c27035c6a1) {res += 0x10000000000000000000000000000000; x = x * FIXED_1 / 0x910b022db7ae67ce76b441c27035c6a1;} // add 1 / 2^3\n        if (x >= 0x88415abbe9a76bead8d00cf112e4d4a8) {res += 0x08000000000000000000000000000000; x = x * FIXED_1 / 0x88415abbe9a76bead8d00cf112e4d4a8;} // add 1 / 2^4\n        if (x >= 0x84102b00893f64c705e841d5d4064bd3) {res += 0x04000000000000000000000000000000; x = x * FIXED_1 / 0x84102b00893f64c705e841d5d4064bd3;} // add 1 / 2^5\n        if (x >= 0x8204055aaef1c8bd5c3259f4822735a2) {res += 0x02000000000000000000000000000000; x = x * FIXED_1 / 0x8204055aaef1c8bd5c3259f4822735a2;} // add 1 / 2^6\n        if (x >= 0x810100ab00222d861931c15e39b44e99) {res += 0x01000000000000000000000000000000; x = x * FIXED_1 / 0x810100ab00222d861931c15e39b44e99;} // add 1 / 2^7\n        if (x >= 0x808040155aabbbe9451521693554f733) {res += 0x00800000000000000000000000000000; x = x * FIXED_1 / 0x808040155aabbbe9451521693554f733;} // add 1 / 2^8\n\n        z = y = x - FIXED_1;\n        w = y * y / FIXED_1;\n        res += z * (0x100000000000000000000000000000000 - y) / 0x100000000000000000000000000000000; z = z * w / FIXED_1; // add y^01 / 01 - y^02 / 02\n        res += z * (0x0aaaaaaaaaaaaaaaaaaaaaaaaaaaaaaaa - y) / 0x200000000000000000000000000000000; z = z * w / FIXED_1; // add y^03 / 03 - y^04 / 04\n        res += z * (0x099999999999999999999999999999999 - y) / 0x300000000000000000000000000000000; z = z * w / FIXED_1; // add y^05 / 05 - y^06 / 06\n        res += z * (0x092492492492492492492492492492492 - y) / 0x400000000000000000000000000000000; z = z * w / FIXED_1; // add y^07 / 07 - y^08 / 08\n        res += z * (0x08e38e38e38e38e38e38e38e38e38e38e - y) / 0x500000000000000000000000000000000; z = z * w / FIXED_1; // add y^09 / 09 - y^10 / 10\n        res += z * (0x08ba2e8ba2e8ba2e8ba2e8ba2e8ba2e8b - y) / 0x600000000000000000000000000000000; z = z * w / FIXED_1; // add y^11 / 11 - y^12 / 12\n        res += z * (0x089d89d89d89d89d89d89d89d89d89d89 - y) / 0x700000000000000000000000000000000; z = z * w / FIXED_1; // add y^13 / 13 - y^14 / 14\n        res += z * (0x088888888888888888888888888888888 - y) / 0x800000000000000000000000000000000;                      // add y^15 / 15 - y^16 / 16\n\n        return res;\n    }\n\n    /**\n      * @dev computes e ^ (x / FIXED_1) * FIXED_1\n      * input range: 0 <= x <= OPT_EXP_MAX_VAL - 1\n      * auto-generated via 'PrintFunctionOptimalExp.py'\n      * Detailed description:\n      * - Rewrite the input as a sum of binary exponents and a single residual r, as small as possible\n      * - The exponentiation of each binary exponent is given (pre-calculated)\n      * - The exponentiation of r is calculated via Taylor series for e^x, where x = r\n      * - The exponentiation of the input is calculated by multiplying the intermediate results above\n      * - For example: e^5.521692859 = e^(4 + 1 + 0.5 + 0.021692859) = e^4 * e^1 * e^0.5 * e^0.021692859\n    */\n    function optimalExp(uint256 x) internal pure returns (uint256) {\n        uint256 res = 0;\n\n        uint256 y;\n        uint256 z;\n\n        z = y = x % 0x10000000000000000000000000000000; // get the input modulo 2^(-3)\n        z = z * y / FIXED_1; res += z * 0x10e1b3be415a0000; // add y^02 * (20! / 02!)\n        z = z * y / FIXED_1; res += z * 0x05a0913f6b1e0000; // add y^03 * (20! / 03!)\n        z = z * y / FIXED_1; res += z * 0x0168244fdac78000; // add y^04 * (20! / 04!)\n        z = z * y / FIXED_1; res += z * 0x004807432bc18000; // add y^05 * (20! / 05!)\n        z = z * y / FIXED_1; res += z * 0x000c0135dca04000; // add y^06 * (20! / 06!)\n        z = z * y / FIXED_1; res += z * 0x0001b707b1cdc000; // add y^07 * (20! / 07!)\n        z = z * y / FIXED_1; res += z * 0x000036e0f639b800; // add y^08 * (20! / 08!)\n        z = z * y / FIXED_1; res += z * 0x00000618fee9f800; // add y^09 * (20! / 09!)\n        z = z * y / FIXED_1; res += z * 0x0000009c197dcc00; // add y^10 * (20! / 10!)\n        z = z * y / FIXED_1; res += z * 0x0000000e30dce400; // add y^11 * (20! / 11!)\n        z = z * y / FIXED_1; res += z * 0x000000012ebd1300; // add y^12 * (20! / 12!)\n        z = z * y / FIXED_1; res += z * 0x0000000017499f00; // add y^13 * (20! / 13!)\n        z = z * y / FIXED_1; res += z * 0x0000000001a9d480; // add y^14 * (20! / 14!)\n        z = z * y / FIXED_1; res += z * 0x00000000001c6380; // add y^15 * (20! / 15!)\n        z = z * y / FIXED_1; res += z * 0x000000000001c638; // add y^16 * (20! / 16!)\n        z = z * y / FIXED_1; res += z * 0x0000000000001ab8; // add y^17 * (20! / 17!)\n        z = z * y / FIXED_1; res += z * 0x000000000000017c; // add y^18 * (20! / 18!)\n        z = z * y / FIXED_1; res += z * 0x0000000000000014; // add y^19 * (20! / 19!)\n        z = z * y / FIXED_1; res += z * 0x0000000000000001; // add y^20 * (20! / 20!)\n        res = res / 0x21c3677c82b40000 + y + FIXED_1; // divide by 20! and then add y^1 / 1! + y^0 / 0!\n\n        if ((x & 0x010000000000000000000000000000000) != 0) res = res * 0x1c3d6a24ed82218787d624d3e5eba95f9 / 0x18ebef9eac820ae8682b9793ac6d1e776; // multiply by e^2^(-3)\n        if ((x & 0x020000000000000000000000000000000) != 0) res = res * 0x18ebef9eac820ae8682b9793ac6d1e778 / 0x1368b2fc6f9609fe7aceb46aa619baed4; // multiply by e^2^(-2)\n        if ((x & 0x040000000000000000000000000000000) != 0) res = res * 0x1368b2fc6f9609fe7aceb46aa619baed5 / 0x0bc5ab1b16779be3575bd8f0520a9f21f; // multiply by e^2^(-1)\n        if ((x & 0x080000000000000000000000000000000) != 0) res = res * 0x0bc5ab1b16779be3575bd8f0520a9f21e / 0x0454aaa8efe072e7f6ddbab84b40a55c9; // multiply by e^2^(+0)\n        if ((x & 0x100000000000000000000000000000000) != 0) res = res * 0x0454aaa8efe072e7f6ddbab84b40a55c5 / 0x00960aadc109e7a3bf4578099615711ea; // multiply by e^2^(+1)\n        if ((x & 0x200000000000000000000000000000000) != 0) res = res * 0x00960aadc109e7a3bf4578099615711d7 / 0x0002bf84208204f5977f9a8cf01fdce3d; // multiply by e^2^(+2)\n        if ((x & 0x400000000000000000000000000000000) != 0) res = res * 0x0002bf84208204f5977f9a8cf01fdc307 / 0x0000003c6ab775dd0b95b4cbee7e65d11; // multiply by e^2^(+3)\n\n        return res;\n    }\n\n    /**\n      * @dev deprecated, backward compatibility\n    */\n    // function calculateCrossConnectorReturn(uint256 _fromConnectorBalance, uint32 _fromConnectorWeight, uint256 _toConnectorBalance, uint32 _toConnectorWeight, uint256 _amount) public view returns (uint256) {\n    //     return calculateCrossReserveReturn(_fromConnectorBalance, _fromConnectorWeight, _toConnectorBalance, _toConnectorWeight, _amount);\n    // }\n}\n\n// pragma solidity ^0.5.0;\n\n// contract BancorFormula {\n//     function calculatePurchaseReturn(\n//         uint256 _initialSupply,\n//         uint256 _poolBalance,\n//         uint32 _reserveRatio,\n//         uint256 _amount)\n//         public view\n//         returns (uint256);\n//     function calculateSaleReturn(\n//         uint256 _initialSupply,\n//         uint256 _poolBalance,\n//         uint32 _reserveRatio,\n//         uint256 _amount)\n//         public view\n//         returns (uint256);\n// }\n",
  "sourcePath": "contracts/Bancor/BancorFormula.sol",
  "abi": [
    {
      "inputs": [],
      "payable": false,
      "stateMutability": "nonpayable",
      "type": "constructor"
    },
    {
      "constant": true,
      "inputs": [
        {
          "internalType": "uint256",
          "name": "_fromReserveBalance",
          "type": "uint256"
        },
        {
          "internalType": "uint32",
          "name": "_fromReserveRatio",
          "type": "uint32"
        },
        {
          "internalType": "uint256",
          "name": "_toReserveBalance",
          "type": "uint256"
        },
        {
          "internalType": "uint32",
          "name": "_toReserveRatio",
          "type": "uint32"
        },
        {
          "internalType": "uint256",
          "name": "_amount",
          "type": "uint256"
        }
      ],
      "name": "calculateCrossReserveReturn",
      "outputs": [
        {
          "internalType": "uint256",
          "name": "",
          "type": "uint256"
        }
      ],
      "payable": false,
      "stateMutability": "view",
      "type": "function"
    },
    {
      "constant": true,
      "inputs": [
        {
          "internalType": "uint256",
          "name": "_supply",
          "type": "uint256"
        },
        {
          "internalType": "uint256",
          "name": "_reserveBalance",
          "type": "uint256"
        },
        {
          "internalType": "uint32",
          "name": "_totalRatio",
          "type": "uint32"
        },
        {
          "internalType": "uint256",
          "name": "_amount",
          "type": "uint256"
        }
      ],
      "name": "calculateFundCost",
      "outputs": [
        {
          "internalType": "uint256",
          "name": "",
          "type": "uint256"
        }
      ],
      "payable": false,
      "stateMutability": "view",
      "type": "function"
    },
    {
      "constant": true,
      "inputs": [
        {
          "internalType": "uint256",
          "name": "_supply",
          "type": "uint256"
        },
        {
          "internalType": "uint256",
          "name": "_reserveBalance",
          "type": "uint256"
        },
        {
          "internalType": "uint32",
          "name": "_totalRatio",
          "type": "uint32"
        },
        {
          "internalType": "uint256",
          "name": "_amount",
          "type": "uint256"
        }
      ],
      "name": "calculateLiquidateReturn",
      "outputs": [
        {
          "internalType": "uint256",
          "name": "",
          "type": "uint256"
        }
      ],
      "payable": false,
      "stateMutability": "view",
      "type": "function"
    },
    {
      "constant": true,
      "inputs": [
        {
          "internalType": "uint256",
          "name": "_supply",
          "type": "uint256"
        },
        {
          "internalType": "uint256",
          "name": "_reserveBalance",
          "type": "uint256"
        },
        {
          "internalType": "uint32",
          "name": "_reserveRatio",
          "type": "uint32"
        },
        {
          "internalType": "uint256",
          "name": "_depositAmount",
          "type": "uint256"
        }
      ],
      "name": "calculatePurchaseReturn",
      "outputs": [
        {
          "internalType": "uint256",
          "name": "",
          "type": "uint256"
        }
      ],
      "payable": false,
      "stateMutability": "view",
      "type": "function"
    },
    {
      "constant": true,
      "inputs": [
        {
          "internalType": "uint256",
          "name": "_supply",
          "type": "uint256"
        },
        {
          "internalType": "uint256",
          "name": "_reserveBalance",
          "type": "uint256"
        },
        {
          "internalType": "uint32",
          "name": "_reserveRatio",
          "type": "uint32"
        },
        {
          "internalType": "uint256",
          "name": "_sellAmount",
          "type": "uint256"
        }
      ],
      "name": "calculateSaleReturn",
      "outputs": [
        {
          "internalType": "uint256",
          "name": "",
          "type": "uint256"
        }
      ],
      "payable": false,
      "stateMutability": "view",
      "type": "function"
    },
    {
      "constant": true,
      "inputs": [],
      "name": "version",
      "outputs": [
        {
          "internalType": "uint16",
          "name": "",
          "type": "uint16"
        }
      ],
      "payable": false,
      "stateMutability": "view",
      "type": "function"
    }
  ],
  "bytecode": "0x60806040526000805461ffff1916600617905534801561001e57600080fd5b506001641c35fedd1560601b036021556001646c3390ecc9605e1b036022556001640cf801476160611b0360235560016431bdb23e1d605f1b0360245560016502fb1d8fe083605b1b0360255560016505b771955b37605a1b036026556001650af67a93bb5160591b0360275560016515060c256cb360581b036028556001651428a2f98d7360581b036029556001654d515663970960561b03602a55600165944620b0e70f60551b03602b55600166011c592761c66760541b03602c5560016602214d10d014eb60531b03602d55600166020ade36b7dbef60531b03602e5560016603eab73b3bbfe360521b03602f556001660782ee3593f6d760511b036030556001661ccf4b44bb4821604f1b0360315560016606e7f88ad8a77760511b0360325560016669f3d1c921891d604d1b03603355600166cb2ff529eb71e5604c1b03603455600166c2d415c3db974b604c1b0360355560016702eb40f9f620fda7604a1b0360365560016705990681d961a1eb60491b03603755600167055e12902701414760491b0360385560016714962dee9dc9764160471b0360395560016704ef57b9b560fab560491b03603a5560016712ed7b32a58f552b60471b03603b556001679131271922eaa60760441b03603c556001678b380f3558668c4760441b03603d556001680215f77c045fbe885760421b03603e556001600160831b03603f556001670f577eded5773a1160471b036040556001680eb5ec597592befbf5603f1b036041556001681c35fedd14b861eb05603e1b036042556001683619c87664579bc94b603d1b0360435560016867c00a3b07ffc01fd7603c1b03604455600168c6f6c8f8739773a7a5603b1b03604555600168bec763f8209b7a72b1603b1b0360465560016902dbb8caad9b7097b91b60391b03604755600169057b3d49dda84556d6f760381b03604855600169054183095b2c8ececf3160381b036049556001690a14517cc6b9457111ef60371b03604a5560016913545598e5c23276ccf160361b03604b556001692511882c39c3adea96ff60351b03604c55600169471649d87199aa99075760341b03604d557004429a21a029d4c1457cfbffffffffffff604e55700415bc6d6fb7dd71af2cb3ffffffffffff604f557003eab73b3bbfe282243ce1ffffffffffff6050557003c1771ac9fb6b4c18e229ffffffffffff605155700399e96897690418f785257fffffffffff605255700373fc456c53bb779bf0ea9fffffffffff60535570034f9e8e490c48e67e6ab8bfffffffffff60545570032cbfd4a7adc790560b3337ffffffffff60555570030b50570f6e5d2acca94613ffffffffff6056557002eb40f9f620fda6b56c2861ffffffffff6057557002cc8340ecb0d0f520a6af58ffffffffff6058557002af09481380a0a35cf1ba02ffffffffff605955700292c5bdd3b92ec810287b1b3fffffffff605a55700277abdcdab07d5a77ac6d6b9fffffffff605b5570025daf6654b1eaa55fd64df5efffffffff605c55700244c49c648baa98192dce88b7ffffffff605d5570022ce03cd5619a311b2471268bffffffff605e55700215f77c045fbe885654a44a0fffffffff605f556001600160811b036060557001eaefdbdaaee7421fc4d3ede5ffffffff6061557001d6bd8b2eb257df7e8ca57b09bfffffff6062557001c35fedd14b861eb0443f7f133fffffff6063557001b0ce43b322bcde4a56e8ada5afffffff60645570019f0028ec1fff007f5a195a39dfffffff60655570018ded91f0e72ee74f49b15ba527ffffff60665570017d8ec7f04136f4e5615fd41a63ffffff60675570016ddc6556cdb84bdc8d12d22e6fffffff60685570015ecf52776a1155b5bd8395814f7fffff60695570015060c256cb23b3b3cc3754cf40ffffff606a557001428a2f98d728ae223ddab715be3fffff606b5570013545598e5c23276ccf0ede68034fffff606c557001288c4161ce1d6f54b7f61081194fffff606d5570011c592761c666aa641d5a01a40f17ffff606e55700110a688680a7530515f3e6e6cfdcdffff606f557001056f1b5bedf75c6bcb2ce8aed428ffff6070556ffaadceceeff8a0890f3875f008277fff6071556ff05dc6b27edad306388a600f6ba0bfff6072556fe67a5a25da41063de1495d5b18cdbfff6073556fdcff115b14eedde6fc3aa5353f2e4fff6074556fd3e7a3924312399f9aae2e0f868f8fff6075556fcb2ff529eb71e41582cccd5a1ee26fff6076556fc2d415c3db974ab32a51840c0b67edff6077556fbad03e7d883f69ad5b0a186184e06bff6078556fb320d03b2c343d4829abd6075f0cc5ff6079556fabc25204e02828d73c6e80bcdb1a95bf607a556fa4b16f74ee4bb2040a1ec6c15fbbf2df607b556f9deaf736ac1f569deb1b5ae3f36c130f607c556f976bd9952c7aa957f5937d790ef65037607d556f9131271922eaa6064b73a22d0bd4f2bf607e556f8b380f3558668c46c91c49a2f8e967b9607f556f857ddf0117efa215952912839f6473e66080556113db806107576000396000f3fe608060405234801561001057600080fd5b50600436106100625760003560e01c80631da6bbfb1461006757806329a00e7c146100ae57806349f9b0f7146100e357806354fd4d501461011857806379c1b45014610137578063abfd231d14610174575b600080fd5b61009c6004803603608081101561007d57600080fd5b5080359060208101359063ffffffff60408201351690606001356101a9565b60408051918252519081900360200190f35b61009c600480360360808110156100c457600080fd5b5080359060208101359063ffffffff6040820135169060600135610288565b61009c600480360360808110156100f957600080fd5b5080359060208101359063ffffffff6040820135169060600135610359565b610120610433565b6040805161ffff9092168252519081900360200190f35b61009c600480360360a081101561014d57600080fd5b5080359063ffffffff6020820135811691604081013591606082013516906080013561043d565b61009c6004803603608081101561018a57600080fd5b5080359060208101359063ffffffff6040820135169060600135610547565b600080851180156101ba5750600084115b80156101cc575060018363ffffffff16115b80156101e15750621e848063ffffffff841611155b6101ea57600080fd5b816101f757506000610280565b63ffffffff8316620f4240141561022e5784600161021b848763ffffffff6105d216565b038161022357fe5b046001019050610280565b60008080610242888663ffffffff61060216565b90506102538189620f424089610614565b9093509150600060ff831660016102708a8763ffffffff6105d216565b03901c8890036001019450505050505b949350505050565b600080851180156102995750600084115b80156102ab575060008363ffffffff16115b80156102c05750620f424063ffffffff841611155b6102c957600080fd5b816102d657506000610280565b63ffffffff8316620f4240141561030757836102f8868463ffffffff6105d216565b816102ff57fe5b049050610280565b6000808061031b858863ffffffff61060216565b905061032c818888620f4240610614565b9093509150600060ff83166103478a8663ffffffff6105d216565b901c9890980398975050505050505050565b6000808511801561036a5750600084115b801561037c575060008363ffffffff16115b80156103915750620f424063ffffffff841611155b801561039d5750848211155b6103a657600080fd5b816103b357506000610280565b848214156103c2575082610280565b63ffffffff8316620f424014156103e457846102f8858463ffffffff6105d216565b6000808387036103f98882620f424089610614565b90935091506000610410888563ffffffff6105d216565b905060ff831688901b848183038161042457fe5b049a9950505050505050505050565b60005461ffff1681565b60008086118015610454575060008563ffffffff16115b80156104695750620f424063ffffffff861611155b80156104755750600084115b8015610487575060008363ffffffff16115b801561049c5750620f424063ffffffff841611155b6104a557600080fd5b8263ffffffff168563ffffffff1614156104e8576104c9868363ffffffff61060216565b6104d9858463ffffffff6105d216565b816104e057fe5b04905061053e565b600080806104fc898663ffffffff61060216565b905061050a818a8a89610614565b90935091506000610521888563ffffffff6105d216565b905060ff831688901b848183038161053557fe5b04955050505050505b95945050505050565b600080851180156105585750600084115b801561056a575060018363ffffffff16115b801561057f5750621e848063ffffffff841611155b801561058b5750848211155b61059457600080fd5b816105a157506000610280565b848214156105b0575082610280565b63ffffffff8316620f424014156103e457846102f8838663ffffffff6105d216565b6000826105e1575060006105fc565b828202828482816105ee57fe5b04146105f957600080fd5b90505b92915050565b6000828201838110156105f957600080fd5b600080600160811b861061062757600080fd5b600080866001607f1b89028161063957fe5b04905070015bf0a8b1457695355fb8ac404e7a79e38110156106655761065e816106e6565b9150610671565b61066e81610aca565b91505b60008563ffffffff168763ffffffff1684028161068a57fe5b049050600160831b8110156106b0576106a281610b74565b607f945094505050506106dd565b60006106bb82610f18565b90506106d081607f0360ff1683901c82610fa8565b955093506106dd92505050565b94509492505050565b6000808080806fd3094c70f034de4b96ff7d5b6f99fcd8861061072f576001607e1b840193506fd3094c70f034de4b96ff7d5b6f99fcd86001607f1b87028161072b57fe5b0495505b6fa45af1e1f40c333b3de1db4dd55f29a78610610772576001607d1b840193506fa45af1e1f40c333b3de1db4dd55f29a76001607f1b87028161076e57fe5b0495505b6f910b022db7ae67ce76b441c27035c6a186106107b5576001607c1b840193506f910b022db7ae67ce76b441c27035c6a16001607f1b8702816107b157fe5b0495505b6f88415abbe9a76bead8d00cf112e4d4a886106107f8576001607b1b840193506f88415abbe9a76bead8d00cf112e4d4a86001607f1b8702816107f457fe5b0495505b6f84102b00893f64c705e841d5d4064bd3861061083b576001607a1b840193506f84102b00893f64c705e841d5d4064bd36001607f1b87028161083757fe5b0495505b6f8204055aaef1c8bd5c3259f4822735a2861061087e57600160791b840193506f8204055aaef1c8bd5c3259f4822735a26001607f1b87028161087a57fe5b0495505b6f810100ab00222d861931c15e39b44e9986106108c157600160781b840193506f810100ab00222d861931c15e39b44e996001607f1b8702816108bd57fe5b0495505b6f808040155aabbbe9451521693554f733861061090457600160771b840193506f808040155aabbbe9451521693554f7336001607f1b87028161090057fe5b0495505b6f7fffffffffffffffffffffffffffffff19860192508291506001607f1b828002049050600160801b838103830204840193506001607f1b8183028161094657fe5b049150600160811b836faaaaaaaaaaaaaaaaaaaaaaaaaaaaaaaa0383028161096a57fe5b04840193506001607f1b8183028161097e57fe5b049150600360801b836f99999999999999999999999999999999038302816109a257fe5b04840193506001607f1b818302816109b657fe5b049150600160821b836f92492492492492492492492492492492038302816109da57fe5b04840193506001607f1b818302816109ee57fe5b049150600560801b836f8e38e38e38e38e38e38e38e38e38e38e03830281610a1257fe5b04840193506001607f1b81830281610a2657fe5b049150600360811b836f8ba2e8ba2e8ba2e8ba2e8ba2e8ba2e8b03830281610a4a57fe5b04840193506001607f1b81830281610a5e57fe5b049150600760801b836f89d89d89d89d89d89d89d89d89d89d8903830281610a8257fe5b04840193506001607f1b81830281610a9657fe5b049150600160831b836f8888888888888888888888888888888803830281610aba57fe5b049390930193505050505b919050565b600080600160801b8310610afa576000610ae96001607f1b8504611345565b60ff1693841c936001607f1b029150505b6001607f1b831115610b4857607f5b60ff811615610b46576001607f1b848002049350600160801b8410610b3d57600193841c9360ff6000198301161b91909101905b60001901610b09565b505b6f05b9de1d10bf4103d647b0955897ba806f03f80fe03f80fe03f80fe03f80fe03f88202049392505050565b6000670168244fdac780006001607f1b6f0fffffffffffffffffffffffffffffff84168080028290048082028390048083028490049485026710e1b3be415a00009092026705a0913f6b1e000091909102010192909181830204905080664807432bc1800002830192506001607f1b82820281610bed57fe5b04905080660c0135dca0400002830192506001607f1b82820281610c0d57fe5b049050806601b707b1cdc00002830192506001607f1b82820281610c2d57fe5b049050806536e0f639b80002830192506001607f1b82820281610c4c57fe5b04905080650618fee9f80002830192506001607f1b82820281610c6b57fe5b04905080649c197dcc0002830192506001607f1b82820281610c8957fe5b04905080640e30dce40002830192506001607f1b82820281610ca757fe5b0490508064012ebd130002830192506001607f1b82820281610cc557fe5b049050806317499f0002830192506001607f1b82820281610ce257fe5b049050806301a9d48002830192506001607f1b82820281610cff57fe5b04905080621c638002830192506001607f1b82820281610d1b57fe5b049050806201c63802830192506001607f1b82820281610d3757fe5b04905080611ab802830192506001607f1b82820281610d5257fe5b0490508061017c02830192506001607f1b82820281610d6d57fe5b04905080601402830192506001607f1b82820281610d8757fe5b6721c3677c82b400009190049384010482016001607f1b019290506001607c1b851615610dd85770018ebef9eac820ae8682b9793ac6d1e7767001c3d6a24ed82218787d624d3e5eba95f984020492505b6001607d1b851615610e0e577001368b2fc6f9609fe7aceb46aa619baed470018ebef9eac820ae8682b9793ac6d1e77884020492505b6001607e1b851615610e43576fbc5ab1b16779be3575bd8f0520a9f21f7001368b2fc6f9609fe7aceb46aa619baed584020492505b6001607f1b851615610e77576f454aaa8efe072e7f6ddbab84b40a55c96fbc5ab1b16779be3575bd8f0520a9f21e84020492505b600160801b851615610eab576f0960aadc109e7a3bf4578099615711ea6f454aaa8efe072e7f6ddbab84b40a55c584020492505b600160811b851615610ede576e2bf84208204f5977f9a8cf01fdce3d6f0960aadc109e7a3bf4578099615711d784020492505b600160821b851615610f0f576d03c6ab775dd0b95b4cbee7e65d116e2bf84208204f5977f9a8cf01fdc30784020492505b50909392505050565b60006020607f5b8060ff168260010160ff161015610f67576000600260ff848401160490508460018260ff1660808110610f4e57fe5b015410610f5d57809250610f61565b8091505b50610f1f565b8360018260ff1660808110610f7857fe5b015410610f88579150610ac59050565b8360018360ff1660808110610f9957fe5b01541061006257509050610ac5565b60008083905060008090508360ff16858302901c9150816f03442c4e6074a82f1797f72ac000000002810190508360ff16858302901c9150816f0116b96f757c380fb287fd0e4000000002810190508360ff16858302901c9150816e45ae5bdd5f0e03eca1ff439000000002810190508360ff16858302901c9150816e0defabf91302cd95b9ffda5000000002810190508360ff16858302901c9150816e02529ca9832b22439efff9b800000002810190508360ff16858302901c9150816d54f1cf12bd04e516b6da8800000002810190508360ff16858302901c9150816d0a9e39e257a09ca2d6db5100000002810190508360ff16858302901c9150816d012e066e7b839fa050c30900000002810190508360ff16858302901c9150816c1e33d7d926c329a1ad1a80000002810190508360ff16858302901c9150816c02bee513bdb4a6b19b5f80000002810190508360ff16858302901c9150816b3a9316fa79b88eccf2a0000002810190508360ff16858302901c9150816b048177ebe1fa81237520000002810190508360ff16858302901c9150816a5263fe90242dcbacf0000002810190508360ff16858302901c9150816a057e22099c030d9410000002810190508360ff16858302901c9150816957e22099c030d941000002810190508360ff16858302901c91508169052b6b5456997631000002810190508360ff16858302901c915081684985f67696bf74800002810190508360ff16858302901c9150816803dea12ea99e49800002810190508360ff16858302901c9150816731880f2214b6e00002810190508360ff16858302901c91508167025bcff56eb3600002810190508360ff16858302901c915081661b722e10ab100002810190508360ff16858302901c9150816601317c7007700002810190508360ff16858302901c915081650cba84aafa0002810190508360ff16858302901c9150816482573a0a0002810190508360ff16858302901c9150816405035ad90002810190508360ff16858302901c915081632f881b0002810190508360ff16858302901c9150816301b2934002810190508360ff16858302901c915081620efc4002810190508360ff16858302901c915081617fe002810190508360ff16858302901c91508161042002810190508360ff16858302901c915081602102810190508360ff16858302901c915081600102810190508360ff166001901b856f0688589cc0e9505e2f2fee5580000000838161133957fe5b04010195945050505050565b60008061010083101561136d575b600183111561136857600192831c9201611353565b6105fc565b60805b60ff81161561139f57600160ff82161b84106113945760ff81169390931c92908117905b60011c607f16611370565b509291505056fea265627a7a72315820c6c0df8c699d049bc430785f8bbb646237fe18cab4ac8c0f926bd244b07260e764736f6c63430005100032",
  "compiler": {
    "name": "solc",
    "version": "0.5.16+commit.9c3226ce.Darwin.appleclang",
    "optimizer": {
      "enabled": true,
      "runs": 200
    },
    "evmVersion": "petersburg"
  }
}