{
  "fileName": "ElectraSeedFundToken.sol",
  "contractName": "ElectraSeedFundToken",
  "source": "pragma solidity ^0.5.0;\n\nimport \"./TokenPoolManager.sol\";\n\n/**\n* @title ElectraSeed Fund Token\n* @dev ESF Token is an ERC20 fungible token with a bonding curve price function that\n* uses an ERC20 based stable coin as its reserve\n*/\ncontract ElectraSeedFundToken is ERC20BondingToken {\n\n  address public owner; //temp for development purposes only\n\n  function initialize(\n      ERC20 _reserveToken,\n      uint256 _initialPoolBalance,\n      uint256 _initialSupply,\n      uint32 _reserveRatio,\n      uint256 _gasPrice,\n      address _investmentPool,\n      string memory _name,\n      string memory _symbol,\n      uint8 _decimals)\n      public\n      initializer\n  {\n\n    ERC20BondingToken.initialize(\n        _reserveToken,\n        _initialPoolBalance,\n        _initialSupply,\n        _reserveRatio,\n        _gasPrice,\n        _investmentPool);\n\n    ERC20Detailed.initialize(\n        _name,\n        _symbol,\n        _decimals\n    );\n\n  }\n\n  /**\n  * @dev Allows patrons to purchase ESF tokens by depositing an amount of reserve tokens\n  * @param _amount The amount of reserve tokens to deposit\n  */\n  function buy(uint256 _amount) external {\n    require(_amount > 0, \"Failed: Amount must be greater than zero.\");\n    require(reserveToken.transferFrom(\n        msg.sender,\n        address(this),\n        _amount),\n        \"ERC20BondingToken: Failed to transfer tokens for mint.\");\n\n    _curvedMint(_amount);\n  }\n\n  /**\n  * @dev Allows token holders to sell their ESF holdings and collect a reimbursement\n  * @param _amount The amount of ESF tokens to burn\n  */\n  function sell(uint256 _amount) external {\n    require(_amount > 0, \"Failed: Amount must be greater than zero.\");\n    require(balanceOf(msg.sender) >= _amount,\n      \"ERC20BondingToken: Insuficient funds for sale amount.\");\n\n    uint256 reimbursement = _curvedBurn(_amount);\n\n    require(reserveToken.transfer(msg.sender, reimbursement),\n        \"ERC20BondingToken: Failed to transfer tokens for burn.\");\n  }\n\n  /**\n  * @dev Allows tokens holders to donate their own holdings without collecting\n  * a reimbursement, ie sponsored burning\n  * @param _amount The amount of ESF tokens to burn\n  */\n  function donate(uint256 _amount) external {\n    require(_amount > 0, \"Failed: Amount must be greater than zero.\");\n    require(balanceOf(msg.sender) >= _amount,\n      \"Failed: Insuficient funds for donation amount.\");\n\n    _curvedBurn(_amount);\n  }\n\n  /**\n  * @dev Allows depositing reserve tokens directly in the reserve pool without minting new tokens.\n  * A use case would be the recurring payments energy asset operators will make to ElectraSeed Fund\n  * @param _amount The amount of reserve tokens to deposit in the reserve pool\n  */\n  function refund(uint256 _amount) external {\n    require(_amount > 0, \"Failed: Amount must be greater than zero.\");\n    require(reserveToken.transferFrom(\n        msg.sender,\n        address(this),\n        _amount),\n        \"ERC20BondingToken: Failed to transfer tokens for refund.\");\n  }\n\n\n//temp admin functions for development purposes\n  /**\n  * @dev Allows the owner to update the gas price limit\n  * @param _gasPrice The new gas price\n  */\n  function setGasPrice(uint256 _gasPrice) external {\n    require(msg.sender == owner, \"This is an admin function\");\n\n    gasPrice = _gasPrice;\n  }\n\n  /**\n  * @dev Allows the owner to update the exit tribute\n  * @param _amount The new value for exit tax calculation\n  */\n  function setExitTribute(uint256 _amount) external {\n    require(msg.sender == owner, \"This is an admin function\");\n\n    exitTribute = _amount;\n  }\n\n  /**\n  * @dev Allows the owner to update the reserve / investment token pool split amount\n  * @param _amount The new value for exit tax calculation\n  */\n  function setPoolSplit(uint8 _amount) external {\n    require(msg.sender == owner, \"This is an admin function\");\n\n    poolSplit = _amount;\n  }\n\n  /**\n  * @dev Allows the owner to update the reserve token\n  * @param _token The new reserve token contract address\n  */\n  function setReserveToken(ERC20 _token) external {\n    require(msg.sender == owner, \"This is an admin function\");\n\n    reserveToken = _token;\n  }\n\n  /**\n  * @dev Allows the owner to update the TCR contract address that serves\n  * as the investment pool wallet\n  * @param _newPool The new investment pool address\n  */\n  function setInvestmentPool(address _newPool) external {\n    require(msg.sender == owner, \"This is an admin function\");\n\n    investmentPool = _newPool;\n  }\n\n  /**\n  * @dev Allows the owner to collect any wei sent to this contract\n  */\n  function dustCollector() external {\n    require(msg.sender == owner, \"This is an admin function\");\n\n    msg.sender.transfer(address(this).balance);\n  }\n\n\n}",
  "sourcePath": "contracts/ElectraSeedFundToken.sol",
  "abi": [
    {
      "anonymous": false,
      "inputs": [
        {
          "indexed": true,
          "internalType": "address",
          "name": "owner",
          "type": "address"
        },
        {
          "indexed": true,
          "internalType": "address",
          "name": "spender",
          "type": "address"
        },
        {
          "indexed": false,
          "internalType": "uint256",
          "name": "value",
          "type": "uint256"
        }
      ],
      "name": "Approval",
      "type": "event"
    },
    {
      "anonymous": false,
      "inputs": [
        {
          "indexed": true,
          "internalType": "address",
          "name": "_sender",
          "type": "address"
        },
        {
          "indexed": false,
          "internalType": "uint256",
          "name": "_amount",
          "type": "uint256"
        },
        {
          "indexed": false,
          "internalType": "uint256",
          "name": "_reimbursement",
          "type": "uint256"
        }
      ],
      "name": "CurvedBurn",
      "type": "event"
    },
    {
      "anonymous": false,
      "inputs": [
        {
          "indexed": true,
          "internalType": "address",
          "name": "_sender",
          "type": "address"
        },
        {
          "indexed": false,
          "internalType": "uint256",
          "name": "_amount",
          "type": "uint256"
        },
        {
          "indexed": false,
          "internalType": "uint256",
          "name": "_deposit",
          "type": "uint256"
        }
      ],
      "name": "CurvedMint",
      "type": "event"
    },
    {
      "anonymous": false,
      "inputs": [
        {
          "indexed": true,
          "internalType": "address",
          "name": "account",
          "type": "address"
        }
      ],
      "name": "MinterAdded",
      "type": "event"
    },
    {
      "anonymous": false,
      "inputs": [
        {
          "indexed": true,
          "internalType": "address",
          "name": "account",
          "type": "address"
        }
      ],
      "name": "MinterRemoved",
      "type": "event"
    },
    {
      "anonymous": false,
      "inputs": [
        {
          "indexed": true,
          "internalType": "address",
          "name": "from",
          "type": "address"
        },
        {
          "indexed": true,
          "internalType": "address",
          "name": "to",
          "type": "address"
        },
        {
          "indexed": false,
          "internalType": "uint256",
          "name": "value",
          "type": "uint256"
        }
      ],
      "name": "Transfer",
      "type": "event"
    },
    {
      "constant": false,
      "inputs": [
        {
          "internalType": "address",
          "name": "account",
          "type": "address"
        }
      ],
      "name": "addMinter",
      "outputs": [],
      "payable": false,
      "stateMutability": "nonpayable",
      "type": "function"
    },
    {
      "constant": true,
      "inputs": [
        {
          "internalType": "address",
          "name": "owner",
          "type": "address"
        },
        {
          "internalType": "address",
          "name": "spender",
          "type": "address"
        }
      ],
      "name": "allowance",
      "outputs": [
        {
          "internalType": "uint256",
          "name": "",
          "type": "uint256"
        }
      ],
      "payable": false,
      "stateMutability": "view",
      "type": "function"
    },
    {
      "constant": false,
      "inputs": [
        {
          "internalType": "address",
          "name": "spender",
          "type": "address"
        },
        {
          "internalType": "uint256",
          "name": "amount",
          "type": "uint256"
        }
      ],
      "name": "approve",
      "outputs": [
        {
          "internalType": "bool",
          "name": "",
          "type": "bool"
        }
      ],
      "payable": false,
      "stateMutability": "nonpayable",
      "type": "function"
    },
    {
      "constant": true,
      "inputs": [
        {
          "internalType": "address",
          "name": "account",
          "type": "address"
        }
      ],
      "name": "balanceOf",
      "outputs": [
        {
          "internalType": "uint256",
          "name": "",
          "type": "uint256"
        }
      ],
      "payable": false,
      "stateMutability": "view",
      "type": "function"
    },
    {
      "constant": false,
      "inputs": [
        {
          "internalType": "uint256",
          "name": "amount",
          "type": "uint256"
        }
      ],
      "name": "burn",
      "outputs": [],
      "payable": false,
      "stateMutability": "nonpayable",
      "type": "function"
    },
    {
      "constant": false,
      "inputs": [
        {
          "internalType": "address",
          "name": "account",
          "type": "address"
        },
        {
          "internalType": "uint256",
          "name": "amount",
          "type": "uint256"
        }
      ],
      "name": "burnFrom",
      "outputs": [],
      "payable": false,
      "stateMutability": "nonpayable",
      "type": "function"
    },
    {
      "constant": false,
      "inputs": [
        {
          "internalType": "uint256",
          "name": "_amount",
          "type": "uint256"
        }
      ],
      "name": "buy",
      "outputs": [],
      "payable": false,
      "stateMutability": "nonpayable",
      "type": "function"
    },
    {
      "constant": true,
      "inputs": [
        {
          "internalType": "uint256",
          "name": "_fromReserveBalance",
          "type": "uint256"
        },
        {
          "internalType": "uint32",
          "name": "_fromReserveRatio",
          "type": "uint32"
        },
        {
          "internalType": "uint256",
          "name": "_toReserveBalance",
          "type": "uint256"
        },
        {
          "internalType": "uint32",
          "name": "_toReserveRatio",
          "type": "uint32"
        },
        {
          "internalType": "uint256",
          "name": "_amount",
          "type": "uint256"
        }
      ],
      "name": "calculateCrossReserveReturn",
      "outputs": [
        {
          "internalType": "uint256",
          "name": "",
          "type": "uint256"
        }
      ],
      "payable": false,
      "stateMutability": "view",
      "type": "function"
    },
    {
      "constant": true,
      "inputs": [
        {
          "internalType": "uint256",
          "name": "_amount",
          "type": "uint256"
        }
      ],
      "name": "calculateCurvedBurnReturn",
      "outputs": [
        {
          "internalType": "uint256",
          "name": "",
          "type": "uint256"
        }
      ],
      "payable": false,
      "stateMutability": "view",
      "type": "function"
    },
    {
      "constant": true,
      "inputs": [
        {
          "internalType": "uint256",
          "name": "_amount",
          "type": "uint256"
        }
      ],
      "name": "calculateCurvedMintReturn",
      "outputs": [
        {
          "internalType": "uint256",
          "name": "",
          "type": "uint256"
        }
      ],
      "payable": false,
      "stateMutability": "view",
      "type": "function"
    },
    {
      "constant": true,
      "inputs": [
        {
          "internalType": "uint256",
          "name": "_supply",
          "type": "uint256"
        },
        {
          "internalType": "uint256",
          "name": "_reserveBalance",
          "type": "uint256"
        },
        {
          "internalType": "uint32",
          "name": "_totalRatio",
          "type": "uint32"
        },
        {
          "internalType": "uint256",
          "name": "_amount",
          "type": "uint256"
        }
      ],
      "name": "calculateFundCost",
      "outputs": [
        {
          "internalType": "uint256",
          "name": "",
          "type": "uint256"
        }
      ],
      "payable": false,
      "stateMutability": "view",
      "type": "function"
    },
    {
      "constant": true,
      "inputs": [
        {
          "internalType": "uint256",
          "name": "_supply",
          "type": "uint256"
        },
        {
          "internalType": "uint256",
          "name": "_reserveBalance",
          "type": "uint256"
        },
        {
          "internalType": "uint32",
          "name": "_totalRatio",
          "type": "uint32"
        },
        {
          "internalType": "uint256",
          "name": "_amount",
          "type": "uint256"
        }
      ],
      "name": "calculateLiquidateReturn",
      "outputs": [
        {
          "internalType": "uint256",
          "name": "",
          "type": "uint256"
        }
      ],
      "payable": false,
      "stateMutability": "view",
      "type": "function"
    },
    {
      "constant": true,
      "inputs": [
        {
          "internalType": "uint256",
          "name": "_supply",
          "type": "uint256"
        },
        {
          "internalType": "uint256",
          "name": "_reserveBalance",
          "type": "uint256"
        },
        {
          "internalType": "uint32",
          "name": "_reserveRatio",
          "type": "uint32"
        },
        {
          "internalType": "uint256",
          "name": "_depositAmount",
          "type": "uint256"
        }
      ],
      "name": "calculatePurchaseReturn",
      "outputs": [
        {
          "internalType": "uint256",
          "name": "",
          "type": "uint256"
        }
      ],
      "payable": false,
      "stateMutability": "view",
      "type": "function"
    },
    {
      "constant": true,
      "inputs": [
        {
          "internalType": "uint256",
          "name": "_supply",
          "type": "uint256"
        },
        {
          "internalType": "uint256",
          "name": "_reserveBalance",
          "type": "uint256"
        },
        {
          "internalType": "uint32",
          "name": "_reserveRatio",
          "type": "uint32"
        },
        {
          "internalType": "uint256",
          "name": "_sellAmount",
          "type": "uint256"
        }
      ],
      "name": "calculateSaleReturn",
      "outputs": [
        {
          "internalType": "uint256",
          "name": "",
          "type": "uint256"
        }
      ],
      "payable": false,
      "stateMutability": "view",
      "type": "function"
    },
    {
      "constant": true,
      "inputs": [],
      "name": "decimals",
      "outputs": [
        {
          "internalType": "uint8",
          "name": "",
          "type": "uint8"
        }
      ],
      "payable": false,
      "stateMutability": "view",
      "type": "function"
    },
    {
      "constant": false,
      "inputs": [
        {
          "internalType": "address",
          "name": "spender",
          "type": "address"
        },
        {
          "internalType": "uint256",
          "name": "subtractedValue",
          "type": "uint256"
        }
      ],
      "name": "decreaseAllowance",
      "outputs": [
        {
          "internalType": "bool",
          "name": "",
          "type": "bool"
        }
      ],
      "payable": false,
      "stateMutability": "nonpayable",
      "type": "function"
    },
    {
      "constant": false,
      "inputs": [
        {
          "internalType": "uint256",
          "name": "_amount",
          "type": "uint256"
        }
      ],
      "name": "donate",
      "outputs": [],
      "payable": false,
      "stateMutability": "nonpayable",
      "type": "function"
    },
    {
      "constant": false,
      "inputs": [],
      "name": "dustCollector",
      "outputs": [],
      "payable": false,
      "stateMutability": "nonpayable",
      "type": "function"
    },
    {
      "constant": true,
      "inputs": [],
      "name": "exitTribute",
      "outputs": [
        {
          "internalType": "uint256",
          "name": "",
          "type": "uint256"
        }
      ],
      "payable": false,
      "stateMutability": "view",
      "type": "function"
    },
    {
      "constant": true,
      "inputs": [],
      "name": "gasPrice",
      "outputs": [
        {
          "internalType": "uint256",
          "name": "",
          "type": "uint256"
        }
      ],
      "payable": false,
      "stateMutability": "view",
      "type": "function"
    },
    {
      "constant": false,
      "inputs": [
        {
          "internalType": "address",
          "name": "spender",
          "type": "address"
        },
        {
          "internalType": "uint256",
          "name": "addedValue",
          "type": "uint256"
        }
      ],
      "name": "increaseAllowance",
      "outputs": [
        {
          "internalType": "bool",
          "name": "",
          "type": "bool"
        }
      ],
      "payable": false,
      "stateMutability": "nonpayable",
      "type": "function"
    },
    {
      "constant": false,
      "inputs": [
        {
          "internalType": "string",
          "name": "name",
          "type": "string"
        },
        {
          "internalType": "string",
          "name": "symbol",
          "type": "string"
        },
        {
          "internalType": "uint8",
          "name": "decimals",
          "type": "uint8"
        }
      ],
      "name": "initialize",
      "outputs": [],
      "payable": false,
      "stateMutability": "nonpayable",
      "type": "function"
    },
    {
      "constant": false,
      "inputs": [
        {
          "internalType": "uint256",
          "name": "_initialSupply",
          "type": "uint256"
        },
        {
          "internalType": "uint32",
          "name": "_reserveRatio",
          "type": "uint32"
        },
        {
          "internalType": "uint256",
          "name": "_gasPrice",
          "type": "uint256"
        }
      ],
      "name": "initialize",
      "outputs": [],
      "payable": false,
      "stateMutability": "nonpayable",
      "type": "function"
    },
    {
      "constant": false,
      "inputs": [
        {
          "internalType": "contract ERC20",
          "name": "_reserveToken",
          "type": "address"
        },
        {
          "internalType": "uint256",
          "name": "_initialPoolBalance",
          "type": "uint256"
        },
        {
          "internalType": "uint256",
          "name": "_initialSupply",
          "type": "uint256"
        },
        {
          "internalType": "uint32",
          "name": "_reserveRatio",
          "type": "uint32"
        },
        {
          "internalType": "uint256",
          "name": "_gasPrice",
          "type": "uint256"
        },
        {
          "internalType": "address",
          "name": "_investmentPool",
          "type": "address"
        }
      ],
      "name": "initialize",
      "outputs": [],
      "payable": false,
      "stateMutability": "nonpayable",
      "type": "function"
    },
    {
      "constant": false,
      "inputs": [
        {
          "internalType": "address",
          "name": "sender",
          "type": "address"
        }
      ],
      "name": "initialize",
      "outputs": [],
      "payable": false,
      "stateMutability": "nonpayable",
      "type": "function"
    },
    {
      "constant": false,
      "inputs": [
        {
          "internalType": "contract ERC20",
          "name": "_reserveToken",
          "type": "address"
        },
        {
          "internalType": "uint256",
          "name": "_initialPoolBalance",
          "type": "uint256"
        },
        {
          "internalType": "uint256",
          "name": "_initialSupply",
          "type": "uint256"
        },
        {
          "internalType": "uint32",
          "name": "_reserveRatio",
          "type": "uint32"
        },
        {
          "internalType": "uint256",
          "name": "_gasPrice",
          "type": "uint256"
        },
        {
          "internalType": "address",
          "name": "_investmentPool",
          "type": "address"
        },
        {
          "internalType": "string",
          "name": "_name",
          "type": "string"
        },
        {
          "internalType": "string",
          "name": "_symbol",
          "type": "string"
        },
        {
          "internalType": "uint8",
          "name": "_decimals",
          "type": "uint8"
        }
      ],
      "name": "initialize",
      "outputs": [],
      "payable": false,
      "stateMutability": "nonpayable",
      "type": "function"
    },
    {
      "constant": true,
      "inputs": [],
      "name": "investmentPool",
      "outputs": [
        {
          "internalType": "address",
          "name": "",
          "type": "address"
        }
      ],
      "payable": false,
      "stateMutability": "view",
      "type": "function"
    },
    {
      "constant": true,
      "inputs": [],
      "name": "investmentPoolBalance",
      "outputs": [
        {
          "internalType": "uint256",
          "name": "",
          "type": "uint256"
        }
      ],
      "payable": false,
      "stateMutability": "view",
      "type": "function"
    },
    {
      "constant": true,
      "inputs": [
        {
          "internalType": "address",
          "name": "account",
          "type": "address"
        }
      ],
      "name": "isMinter",
      "outputs": [
        {
          "internalType": "bool",
          "name": "",
          "type": "bool"
        }
      ],
      "payable": false,
      "stateMutability": "view",
      "type": "function"
    },
    {
      "constant": false,
      "inputs": [
        {
          "internalType": "address",
          "name": "account",
          "type": "address"
        },
        {
          "internalType": "uint256",
          "name": "amount",
          "type": "uint256"
        }
      ],
      "name": "mint",
      "outputs": [
        {
          "internalType": "bool",
          "name": "",
          "type": "bool"
        }
      ],
      "payable": false,
      "stateMutability": "nonpayable",
      "type": "function"
    },
    {
      "constant": true,
      "inputs": [],
      "name": "name",
      "outputs": [
        {
          "internalType": "string",
          "name": "",
          "type": "string"
        }
      ],
      "payable": false,
      "stateMutability": "view",
      "type": "function"
    },
    {
      "constant": true,
      "inputs": [],
      "name": "owner",
      "outputs": [
        {
          "internalType": "address",
          "name": "",
          "type": "address"
        }
      ],
      "payable": false,
      "stateMutability": "view",
      "type": "function"
    },
    {
      "constant": true,
      "inputs": [],
      "name": "poolSplit",
      "outputs": [
        {
          "internalType": "uint8",
          "name": "",
          "type": "uint8"
        }
      ],
      "payable": false,
      "stateMutability": "view",
      "type": "function"
    },
    {
      "constant": false,
      "inputs": [
        {
          "internalType": "uint256",
          "name": "_amount",
          "type": "uint256"
        }
      ],
      "name": "refund",
      "outputs": [],
      "payable": false,
      "stateMutability": "nonpayable",
      "type": "function"
    },
    {
      "constant": false,
      "inputs": [],
      "name": "renounceMinter",
      "outputs": [],
      "payable": false,
      "stateMutability": "nonpayable",
      "type": "function"
    },
    {
      "constant": true,
      "inputs": [],
      "name": "reservePoolBalance",
      "outputs": [
        {
          "internalType": "uint256",
          "name": "",
          "type": "uint256"
        }
      ],
      "payable": false,
      "stateMutability": "view",
      "type": "function"
    },
    {
      "constant": true,
      "inputs": [],
      "name": "reserveRatio",
      "outputs": [
        {
          "internalType": "uint32",
          "name": "",
          "type": "uint32"
        }
      ],
      "payable": false,
      "stateMutability": "view",
      "type": "function"
    },
    {
      "constant": true,
      "inputs": [],
      "name": "reserveToken",
      "outputs": [
        {
          "internalType": "contract ERC20",
          "name": "",
          "type": "address"
        }
      ],
      "payable": false,
      "stateMutability": "view",
      "type": "function"
    },
    {
      "constant": false,
      "inputs": [
        {
          "internalType": "uint256",
          "name": "_amount",
          "type": "uint256"
        }
      ],
      "name": "sell",
      "outputs": [],
      "payable": false,
      "stateMutability": "nonpayable",
      "type": "function"
    },
    {
      "constant": false,
      "inputs": [
        {
          "internalType": "uint256",
          "name": "_amount",
          "type": "uint256"
        }
      ],
      "name": "setExitTribute",
      "outputs": [],
      "payable": false,
      "stateMutability": "nonpayable",
      "type": "function"
    },
    {
      "constant": false,
      "inputs": [
        {
          "internalType": "uint256",
          "name": "_gasPrice",
          "type": "uint256"
        }
      ],
      "name": "setGasPrice",
      "outputs": [],
      "payable": false,
      "stateMutability": "nonpayable",
      "type": "function"
    },
    {
      "constant": false,
      "inputs": [
        {
          "internalType": "address",
          "name": "_newPool",
          "type": "address"
        }
      ],
      "name": "setInvestmentPool",
      "outputs": [],
      "payable": false,
      "stateMutability": "nonpayable",
      "type": "function"
    },
    {
      "constant": false,
      "inputs": [
        {
          "internalType": "uint8",
          "name": "_amount",
          "type": "uint8"
        }
      ],
      "name": "setPoolSplit",
      "outputs": [],
      "payable": false,
      "stateMutability": "nonpayable",
      "type": "function"
    },
    {
      "constant": false,
      "inputs": [
        {
          "internalType": "contract ERC20",
          "name": "_token",
          "type": "address"
        }
      ],
      "name": "setReserveToken",
      "outputs": [],
      "payable": false,
      "stateMutability": "nonpayable",
      "type": "function"
    },
    {
      "constant": true,
      "inputs": [],
      "name": "symbol",
      "outputs": [
        {
          "internalType": "string",
          "name": "",
          "type": "string"
        }
      ],
      "payable": false,
      "stateMutability": "view",
      "type": "function"
    },
    {
      "constant": true,
      "inputs": [],
      "name": "totalSupply",
      "outputs": [
        {
          "internalType": "uint256",
          "name": "",
          "type": "uint256"
        }
      ],
      "payable": false,
      "stateMutability": "view",
      "type": "function"
    },
    {
      "constant": false,
      "inputs": [
        {
          "internalType": "address",
          "name": "recipient",
          "type": "address"
        },
        {
          "internalType": "uint256",
          "name": "amount",
          "type": "uint256"
        }
      ],
      "name": "transfer",
      "outputs": [
        {
          "internalType": "bool",
          "name": "",
          "type": "bool"
        }
      ],
      "payable": false,
      "stateMutability": "nonpayable",
      "type": "function"
    },
    {
      "constant": false,
      "inputs": [
        {
          "internalType": "address",
          "name": "sender",
          "type": "address"
        },
        {
          "internalType": "address",
          "name": "recipient",
          "type": "address"
        },
        {
          "internalType": "uint256",
          "name": "amount",
          "type": "uint256"
        }
      ],
      "name": "transferFrom",
      "outputs": [
        {
          "internalType": "bool",
          "name": "",
          "type": "bool"
        }
      ],
      "payable": false,
      "stateMutability": "nonpayable",
      "type": "function"
    },
    {
      "constant": true,
      "inputs": [],
      "name": "version",
      "outputs": [
        {
          "internalType": "uint16",
          "name": "",
          "type": "uint16"
        }
      ],
      "payable": false,
      "stateMutability": "view",
      "type": "function"
    }
  ],
  "bytecode": "0x6080604052610134805461ffff1916600617905560006101b681905560016101b9556101ba805460ff191660031790556001641c35fedd1560601b03610155556001646c3390ecc9605e1b03610156556001640cf801476160611b036101575560016431bdb23e1d605f1b036101585560016502fb1d8fe083605b1b036101595560016505b771955b37605a1b0361015a556001650af67a93bb5160591b0361015b5560016515060c256cb360581b0361015c556001651428a2f98d7360581b0361015d556001654d515663970960561b0361015e55600165944620b0e70f60551b0361015f55600166011c592761c66760541b036101605560016602214d10d014eb60531b0361016155600166020ade36b7dbef60531b036101625560016603eab73b3bbfe360521b03610163556001660782ee3593f6d760511b03610164556001661ccf4b44bb4821604f1b036101655560016606e7f88ad8a77760511b036101665560016669f3d1c921891d604d1b0361016755600166cb2ff529eb71e5604c1b0361016855600166c2d415c3db974b604c1b036101695560016702eb40f9f620fda7604a1b0361016a5560016705990681d961a1eb60491b0361016b55600167055e12902701414760491b0361016c5560016714962dee9dc9764160471b0361016d5560016704ef57b9b560fab560491b0361016e5560016712ed7b32a58f552b60471b0361016f556001679131271922eaa60760441b03610170556001678b380f3558668c4760441b03610171556001680215f77c045fbe885760421b03610172556001600160831b03610173556001670f577eded5773a1160471b03610174556001680eb5ec597592befbf5603f1b03610175556001681c35fedd14b861eb05603e1b03610176556001683619c87664579bc94b603d1b036101775560016867c00a3b07ffc01fd7603c1b0361017855600168c6f6c8f8739773a7a5603b1b0361017955600168bec763f8209b7a72b1603b1b0361017a5560016902dbb8caad9b7097b91b60391b0361017b55600169057b3d49dda84556d6f760381b0361017c55600169054183095b2c8ececf3160381b0361017d556001690a14517cc6b9457111ef60371b0361017e5560016913545598e5c23276ccf160361b0361017f556001692511882c39c3adea96ff60351b0361018055600169471649d87199aa99075760341b03610181557004429a21a029d4c1457cfbffffffffffff61018255700415bc6d6fb7dd71af2cb3ffffffffffff610183557003eab73b3bbfe282243ce1ffffffffffff610184557003c1771ac9fb6b4c18e229ffffffffffff61018555700399e96897690418f785257fffffffffff61018655700373fc456c53bb779bf0ea9fffffffffff6101875570034f9e8e490c48e67e6ab8bfffffffffff6101885570032cbfd4a7adc790560b3337ffffffffff6101895570030b50570f6e5d2acca94613ffffffffff61018a557002eb40f9f620fda6b56c2861ffffffffff61018b557002cc8340ecb0d0f520a6af58ffffffffff61018c557002af09481380a0a35cf1ba02ffffffffff61018d55700292c5bdd3b92ec810287b1b3fffffffff61018e55700277abdcdab07d5a77ac6d6b9fffffffff61018f5570025daf6654b1eaa55fd64df5efffffffff61019055700244c49c648baa98192dce88b7ffffffff6101915570022ce03cd5619a311b2471268bffffffff61019255700215f77c045fbe885654a44a0fffffffff610193556001600160811b03610194557001eaefdbdaaee7421fc4d3ede5ffffffff610195557001d6bd8b2eb257df7e8ca57b09bfffffff610196557001c35fedd14b861eb0443f7f133fffffff610197557001b0ce43b322bcde4a56e8ada5afffffff6101985570019f0028ec1fff007f5a195a39dfffffff6101995570018ded91f0e72ee74f49b15ba527ffffff61019a5570017d8ec7f04136f4e5615fd41a63ffffff61019b5570016ddc6556cdb84bdc8d12d22e6fffffff61019c5570015ecf52776a1155b5bd8395814f7fffff61019d5570015060c256cb23b3b3cc3754cf40ffffff61019e557001428a2f98d728ae223ddab715be3fffff61019f5570013545598e5c23276ccf0ede68034fffff6101a0557001288c4161ce1d6f54b7f61081194fffff6101a15570011c592761c666aa641d5a01a40f17ffff6101a255700110a688680a7530515f3e6e6cfdcdffff6101a3557001056f1b5bedf75c6bcb2ce8aed428ffff6101a4556ffaadceceeff8a0890f3875f008277fff6101a5556ff05dc6b27edad306388a600f6ba0bfff6101a6556fe67a5a25da41063de1495d5b18cdbfff6101a7556fdcff115b14eedde6fc3aa5353f2e4fff6101a8556fd3e7a3924312399f9aae2e0f868f8fff6101a9556fcb2ff529eb71e41582cccd5a1ee26fff6101aa556fc2d415c3db974ab32a51840c0b67edff6101ab556fbad03e7d883f69ad5b0a186184e06bff6101ac556fb320d03b2c343d4829abd6075f0cc5ff6101ad556fabc25204e02828d73c6e80bcdb1a95bf6101ae556fa4b16f74ee4bb2040a1ec6c15fbbf2df6101af556f9deaf736ac1f569deb1b5ae3f36c130f6101b0556f976bd9952c7aa957f5937d790ef650376101b1556f9131271922eaa6064b73a22d0bd4f2bf6101b2556f8b380f3558668c46c91c49a2f8e967b96101b3556f857ddf0117efa215952912839f6473e66101b455613bd49081906107c890396000f3fe608060405234801561001057600080fd5b50600436106102bb5760003560e01c80638da5cb5b11610182578063bb4bcffc116100e9578063d96a094a116100a2578063f14faf6f1161007c578063f14faf6f14610b8a578063f4325d6714610ba7578063f5cd1e5b14610baf578063fe173b9714610bcc576102bb565b8063d96a094a14610b22578063dd62ed3e14610b3f578063e4849b3214610b6d576102bb565b8063bb4bcffc14610943578063bf1fe42014610969578063bf73815314610986578063c4d66de81461098e578063c58d1ba9146109b4578063d26bd3e0146109bc576102bb565b80639e40524c1161013b5780639e40524c14610880578063a457c2d714610888578063a9059cbb146108b4578063aa271e1a146108e0578063abfd231d14610906578063ac3b8c5b1461093b576102bb565b80638da5cb5b1461080557806391e32f5e1461080d57806395d89b411461082d578063983b2d5614610835578063986502751461085b5780639a4f318b14610863576102bb565b806340c10f191161022657806370a08231116101df57806370a08231146106fc57806379c1b4501461072257806379cc67901461075f57806384f2b3841461078b5780638cdecb04146107b15780638d265d13146107b9576102bb565b806340c10f191461061e57806342966c681461064a578063498e84f41461066757806349f9b0f71461068b57806354fd4d50146106c05780636d6f1e01146106df576102bb565b80631da6bbfb116102785780631da6bbfb1461051757806323b872dd1461054c578063278ecde11461058257806329a00e7c1461059f578063313ce567146105d457806339509351146105f2576102bb565b806306fdde03146102c0578063095ea7b31461033d5780630c7d5cd81461037d5780631624f6c61461039e57806318160ddd146104ce5780631cafa218146104e8575b600080fd5b6102c8610bd4565b6040805160208082528351818301528351919283929083019185019080838360005b838110156103025781810151838201526020016102ea565b50505050905090810190601f16801561032f5780820380516001836020036101000a031916815260200191505b509250505060405180910390f35b6103696004803603604081101561035357600080fd5b506001600160a01b038135169060200135610c6b565b604080519115158252519081900360200190f35b610385610c89565b6040805163ffffffff9092168252519081900360200190f35b6104cc600480360360608110156103b457600080fd5b810190602081018135600160201b8111156103ce57600080fd5b8201836020820111156103e057600080fd5b803590602001918460018302840111600160201b8311171561040157600080fd5b91908080601f0160208091040260200160405190810160405280939291908181526020018383808284376000920191909152509295949360208101935035915050600160201b81111561045357600080fd5b82018360208201111561046557600080fd5b803590602001918460018302840111600160201b8311171561048657600080fd5b91908080601f0160208091040260200160405190810160405280939291908181526020018383808284376000920191909152509295505050903560ff169150610c969050565b005b6104d6610d72565b60408051918252519081900360200190f35b6104cc600480360360608110156104fe57600080fd5b5080359063ffffffff6020820135169060400135610d78565b6104d66004803603608081101561052d57600080fd5b5080359060208101359063ffffffff6040820135169060600135610e42565b6103696004803603606081101561056257600080fd5b506001600160a01b03813581169160208101359091169060400135610f21565b6104cc6004803603602081101561059857600080fd5b5035610fae565b6104d6600480360360808110156105b557600080fd5b5080359060208101359063ffffffff60408201351690606001356110b2565b6105dc611183565b6040805160ff9092168252519081900360200190f35b6103696004803603604081101561060857600080fd5b506001600160a01b03813516906020013561118c565b6103696004803603604081101561063457600080fd5b506001600160a01b0381351690602001356111e0565b6104cc6004803603602081101561066057600080fd5b5035611237565b61066f611248565b604080516001600160a01b039092168252519081900360200190f35b6104d6600480360360808110156106a157600080fd5b5080359060208101359063ffffffff6040820135169060600135611258565b6106c8611332565b6040805161ffff9092168252519081900360200190f35b6104d6600480360360208110156106f557600080fd5b503561133d565b6104d66004803603602081101561071257600080fd5b50356001600160a01b031661136a565b6104d6600480360360a081101561073857600080fd5b5080359063ffffffff60208201358116916040810135916060820135169060800135611385565b6104cc6004803603604081101561077557600080fd5b506001600160a01b03813516906020013561148f565b6104cc600480360360208110156107a157600080fd5b50356001600160a01b031661149d565b6104d6611513565b6104cc600480360360c08110156107cf57600080fd5b506001600160a01b03813581169160208101359160408201359163ffffffff6060820135169160808201359160a001351661151a565b61066f6116b6565b6104cc6004803603602081101561082357600080fd5b503560ff166116cb565b6102c8611735565b6104cc6004803603602081101561084b57600080fd5b50356001600160a01b0316611796565b6104cc6117e5565b6104d66004803603602081101561087957600080fd5b50356117f7565b6105dc61181c565b6103696004803603604081101561089e57600080fd5b506001600160a01b038135169060200135611826565b610369600480360360408110156108ca57600080fd5b506001600160a01b038135169060200135611894565b610369600480360360208110156108f657600080fd5b50356001600160a01b03166118a8565b6104d66004803603608081101561091c57600080fd5b5080359060208101359063ffffffff60408201351690606001356118bb565b6104d6611946565b6104cc6004803603602081101561095957600080fd5b50356001600160a01b03166119cd565b6104cc6004803603602081101561097f57600080fd5b5035611a43565b6104cc611a9c565b6104cc600480360360208110156109a457600080fd5b50356001600160a01b0316611b1c565b6104d6611bc7565b6104cc60048036036101208110156109d357600080fd5b6001600160a01b03823581169260208101359260408201359263ffffffff6060840135169260808101359260a08201359092169181019060e0810160c0820135600160201b811115610a2457600080fd5b820183602082011115610a3657600080fd5b803590602001918460018302840111600160201b83111715610a5757600080fd5b91908080601f0160208091040260200160405190810160405280939291908181526020018383808284376000920191909152509295949360208101935035915050600160201b811115610aa957600080fd5b820183602082011115610abb57600080fd5b803590602001918460018302840111600160201b83111715610adc57600080fd5b91908080601f0160208091040260200160405190810160405280939291908181526020018383808284376000920191909152509295505050903560ff169150611c139050565b6104cc60048036036020811015610b3857600080fd5b5035611cd7565b6104d660048036036040811015610b5557600080fd5b506001600160a01b0381358116916020013516611de1565b6104cc60048036036020811015610b8357600080fd5b5035611e0c565b6104cc60048036036020811015610ba057600080fd5b5035611f5c565b61066f611feb565b6104cc60048036036020811015610bc557600080fd5b5035611ffb565b6104d6612054565b60338054604080516020601f6002600019610100600188161502019095169490940493840181900481028201810190925282815260609390929091830182828015610c605780601f10610c3557610100808354040283529160200191610c60565b820191906000526020600020905b815481529060010190602001808311610c4357829003601f168201915b505050505090505b90565b6000610c7f610c7861205b565b848461205f565b5060015b92915050565b6101b55463ffffffff1681565b600054610100900460ff1680610caf5750610caf61214b565b80610cbd575060005460ff16155b610cf85760405162461bcd60e51b815260040180806020018281038252602e8152602001806139ed602e913960400191505060405180910390fd5b600054610100900460ff16158015610d23576000805460ff1961ff0019909116610100171660011790555b8351610d36906033906020870190613771565b508251610d4a906034906020860190613771565b506035805460ff191660ff84161790558015610d6c576000805461ff00191690555b50505050565b606a5490565b600054610100900460ff1680610d915750610d9161214b565b80610d9f575060005460ff16155b610dda5760405162461bcd60e51b815260040180806020018281038252602e8152602001806139ed602e913960400191505060405180910390fd5b600054610100900460ff16158015610e05576000805460ff1961ff0019909116610100171660011790555b6101b5805463ffffffff191663ffffffff85161790556101b6829055610e2b3385612151565b8015610d6c576000805461ff001916905550505050565b60008085118015610e535750600084115b8015610e65575060018363ffffffff16115b8015610e7a5750621e848063ffffffff841611155b610e8357600080fd5b81610e9057506000610f19565b63ffffffff8316620f42401415610ec757846001610eb4848763ffffffff61224316565b0381610ebc57fe5b046001019050610f19565b60008080610edb888663ffffffff61227116565b9050610eec8189620f424089612283565b9093509150600060ff83166001610f098a8763ffffffff61224316565b03901c8890036001019450505050505b949350505050565b6000610f2e848484612355565b610fa484610f3a61205b565b610f9f856040518060600160405280602881526020016139a3602891396001600160a01b038a16600090815260696020526040812090610f7861205b565b6001600160a01b03168152602081019190915260400160002054919063ffffffff6124b316565b61205f565b5060019392505050565b60008111610fed5760405162461bcd60e51b8152600401808060200182810382526029815260200180613a1b6029913960400191505060405180910390fd5b6101b754604080516323b872dd60e01b81523360048201523060248201526044810184905290516001600160a01b03909216916323b872dd916064808201926020929091908290030181600087803b15801561104857600080fd5b505af115801561105c573d6000803e3d6000fd5b505050506040513d602081101561107257600080fd5b50516110af5760405162461bcd60e51b815260040180806020018281038252603881526020018061389f6038913960400191505060405180910390fd5b50565b600080851180156110c35750600084115b80156110d5575060008363ffffffff16115b80156110ea5750620f424063ffffffff841611155b6110f357600080fd5b8161110057506000610f19565b63ffffffff8316620f424014156111315783611122868463ffffffff61224316565b8161112957fe5b049050610f19565b60008080611145858863ffffffff61227116565b9050611156818888620f4240612283565b9093509150600060ff83166111718a8663ffffffff61224316565b901c9890980398975050505050505050565b60355460ff1690565b6000610c7f61119961205b565b84610f9f85606960006111aa61205b565b6001600160a01b03908116825260208083019390935260409182016000908120918c16815292529020549063ffffffff61254a16565b60006111f26111ed61205b565b6118a8565b61122d5760405162461bcd60e51b81526004018080602001828103825260308152602001806139326030913960400191505060405180910390fd5b610c7f8383612151565b6110af61124261205b565b826125a4565b6101b8546001600160a01b031681565b600080851180156112695750600084115b801561127b575060008363ffffffff16115b80156112905750620f424063ffffffff841611155b801561129c5750848211155b6112a557600080fd5b816112b257506000610f19565b848214156112c1575082610f19565b63ffffffff8316620f424014156112e35784611122858463ffffffff61224316565b6000808387036112f88882620f424089612283565b9093509150600061130f888563ffffffff61224316565b905060ff831688901b848183038161132357fe5b049a9950505050505050505050565b6101345461ffff1681565b600061136261134a610d72565b611352611bc7565b6101b55463ffffffff1685611258565b90505b919050565b6001600160a01b031660009081526068602052604090205490565b6000808611801561139c575060008563ffffffff16115b80156113b15750620f424063ffffffff861611155b80156113bd5750600084115b80156113cf575060008363ffffffff16115b80156113e45750620f424063ffffffff841611155b6113ed57600080fd5b8263ffffffff168563ffffffff16141561143057611411868363ffffffff61227116565b611421858463ffffffff61224316565b8161142857fe5b049050611486565b60008080611444898663ffffffff61227116565b9050611452818a8a89612283565b90935091506000611469888563ffffffff61224316565b905060ff831688901b848183038161147d57fe5b04955050505050505b95945050505050565b61149982826126a0565b5050565b6101ba5461010090046001600160a01b031633146114f0576040805162461bcd60e51b81526020600482015260196024820152600080516020613983833981519152604482015290519081900360640190fd5b6101b780546001600160a01b0319166001600160a01b0392909216919091179055565b6101b95481565b600054610100900460ff1680611533575061153361214b565b80611541575060005460ff16155b61157c5760405162461bcd60e51b815260040180806020018281038252602e8152602001806139ed602e913960400191505060405180910390fd5b600054610100900460ff161580156115a7576000805460ff1961ff0019909116610100171660011790555b6101b780546001600160a01b03808a166001600160a01b031992831617928390556101b88054868316931692909217909155604080516323b872dd60e01b8152336004820152306024820152604481018a9052905192909116916323b872dd916064808201926020929091908290030181600087803b15801561162957600080fd5b505af115801561163d573d6000803e3d6000fd5b505050506040513d602081101561165357600080fd5b50516116905760405162461bcd60e51b815260040180806020018281038252603d815260200180613b3e603d913960400191505060405180910390fd5b61169b858585610d78565b80156116ad576000805461ff00191690555b50505050505050565b6101ba5461010090046001600160a01b031681565b6101ba5461010090046001600160a01b0316331461171e576040805162461bcd60e51b81526020600482015260196024820152600080516020613983833981519152604482015290519081900360640190fd5b6101ba805460ff191660ff92909216919091179055565b60348054604080516020601f6002600019610100600188161502019095169490940493840181900481028201810190925282815260609390929091830182828015610c605780601f10610c3557610100808354040283529160200191610c60565b6117a16111ed61205b565b6117dc5760405162461bcd60e51b81526004018080602001828103825260308152602001806139326030913960400191505060405180910390fd5b6110af816126f4565b6117f56117f061205b565b61273c565b565b6000611362611804610d72565b61180c611bc7565b6101b55463ffffffff16856110b2565b6101ba5460ff1681565b6000610c7f61183361205b565b84610f9f85604051806060016040528060258152602001613b7b602591396069600061185d61205b565b6001600160a01b03908116825260208083019390935260409182016000908120918d1681529252902054919063ffffffff6124b316565b6000610c7f6118a161205b565b8484612355565b6000611362609d8363ffffffff61278416565b600080851180156118cc5750600084115b80156118de575060018363ffffffff16115b80156118f35750621e848063ffffffff841611155b80156118ff5750848211155b61190857600080fd5b8161191557506000610f19565b84821415611924575082610f19565b63ffffffff8316620f424014156112e35784611122838663ffffffff61224316565b6101b7546101b854604080516370a0823160e01b81526001600160a01b039283166004820152905160009392909216916370a0823191602480820192602092909190829003018186803b15801561199c57600080fd5b505afa1580156119b0573d6000803e3d6000fd5b505050506040513d60208110156119c657600080fd5b5051905090565b6101ba5461010090046001600160a01b03163314611a20576040805162461bcd60e51b81526020600482015260196024820152600080516020613983833981519152604482015290519081900360640190fd5b6101b880546001600160a01b0319166001600160a01b0392909216919091179055565b6101ba5461010090046001600160a01b03163314611a96576040805162461bcd60e51b81526020600482015260196024820152600080516020613983833981519152604482015290519081900360640190fd5b6101b655565b6101ba5461010090046001600160a01b03163314611aef576040805162461bcd60e51b81526020600482015260196024820152600080516020613983833981519152604482015290519081900360640190fd5b6040513390303180156108fc02916000818181858888f193505050501580156110af573d6000803e3d6000fd5b600054610100900460ff1680611b355750611b3561214b565b80611b43575060005460ff16155b611b7e5760405162461bcd60e51b815260040180806020018281038252602e8152602001806139ed602e913960400191505060405180910390fd5b600054610100900460ff16158015611ba9576000805460ff1961ff0019909116610100171660011790555b611bb2826127eb565b8015611499576000805461ff00191690555050565b6101b754604080516370a0823160e01b815230600482015290516000926001600160a01b0316916370a08231916024808301926020929190829003018186803b15801561199c57600080fd5b600054610100900460ff1680611c2c5750611c2c61214b565b80611c3a575060005460ff16155b611c755760405162461bcd60e51b815260040180806020018281038252602e8152602001806139ed602e913960400191505060405180910390fd5b600054610100900460ff16158015611ca0576000805460ff1961ff0019909116610100171660011790555b611cae8a8a8a8a8a8a61151a565b611cb9848484610c96565b8015611ccb576000805461ff00191690555b50505050505050505050565b60008111611d165760405162461bcd60e51b8152600401808060200182810382526029815260200180613a1b6029913960400191505060405180910390fd5b6101b754604080516323b872dd60e01b81523360048201523060248201526044810184905290516001600160a01b03909216916323b872dd916064808201926020929091908290030181600087803b158015611d7157600080fd5b505af1158015611d85573d6000803e3d6000fd5b505050506040513d6020811015611d9b57600080fd5b5051611dd85760405162461bcd60e51b8152600401808060200182810382526036815260200180613b086036913960400191505060405180910390fd5b6114998161288e565b6001600160a01b03918216600090815260696020908152604080832093909416825291909152205490565b60008111611e4b5760405162461bcd60e51b8152600401808060200182810382526029815260200180613a1b6029913960400191505060405180910390fd5b80611e553361136a565b1015611e925760405162461bcd60e51b81526004018080602001828103825260358152602001806138d76035913960400191505060405180910390fd5b6000611e9d8261289a565b6101b7546040805163a9059cbb60e01b81523360048201526024810184905290519293506001600160a01b039091169163a9059cbb916044808201926020929091908290030181600087803b158015611ef557600080fd5b505af1158015611f09573d6000803e3d6000fd5b505050506040513d6020811015611f1f57600080fd5b50516114995760405162461bcd60e51b8152600401808060200182810382526036815260200180613a686036913960400191505060405180910390fd5b60008111611f9b5760405162461bcd60e51b8152600401808060200182810382526029815260200180613a1b6029913960400191505060405180910390fd5b80611fa53361136a565b1015611fe25760405162461bcd60e51b815260040180806020018281038252602e81526020018061382d602e913960400191505060405180910390fd5b6114998161289a565b6101b7546001600160a01b031681565b6101ba5461010090046001600160a01b0316331461204e576040805162461bcd60e51b81526020600482015260196024820152600080516020613983833981519152604482015290519081900360640190fd5b6101b955565b6101b65481565b3390565b6001600160a01b0383166120a45760405162461bcd60e51b8152600401808060200182810382526024815260200180613ae46024913960400191505060405180910390fd5b6001600160a01b0382166120e95760405162461bcd60e51b815260040180806020018281038252602281526020018061387d6022913960400191505060405180910390fd5b6001600160a01b03808416600081815260696020908152604080832094871680845294825291829020859055815185815291517f8c5be1e5ebec7d5bd14f71427d1e84f3dd0314c0f7b2291e5b200ac8c7c3b9259281900390910190a3505050565b303b1590565b6001600160a01b0382166121ac576040805162461bcd60e51b815260206004820152601f60248201527f45524332303a206d696e7420746f20746865207a65726f206164647265737300604482015290519081900360640190fd5b606a546121bf908263ffffffff61254a16565b606a556001600160a01b0382166000908152606860205260409020546121eb908263ffffffff61254a16565b6001600160a01b03831660008181526068602090815260408083209490945583518581529351929391927fddf252ad1be2c89b69c2b068fc378daa952ba7f163c4a11628f55a4df523b3ef9281900390910190a35050565b60008261225257506000610c83565b8282028284828161225f57fe5b041461226a57600080fd5b9392505050565b60008282018381101561226a57600080fd5b600080600160811b861061229657600080fd5b600080866001607f1b8902816122a857fe5b04905070015bf0a8b1457695355fb8ac404e7a79e38110156122d4576122cd816128a6565b91506122e0565b6122dd81612c88565b91505b60008563ffffffff168763ffffffff168402816122f957fe5b049050600160831b81101561231f5761231181612d32565b607f9450945050505061234c565b600061232a826130d6565b905061233f81607f0360ff1683901c82613169565b9550935061234c92505050565b94509492505050565b6001600160a01b03831661239a5760405162461bcd60e51b8152600401808060200182810382526025815260200180613abf6025913960400191505060405180910390fd5b6001600160a01b0382166123df5760405162461bcd60e51b815260040180806020018281038252602381526020018061380a6023913960400191505060405180910390fd5b6124228160405180606001604052806026815260200161390c602691396001600160a01b038616600090815260686020526040902054919063ffffffff6124b316565b6001600160a01b038085166000908152606860205260408082209390935590841681522054612457908263ffffffff61254a16565b6001600160a01b0380841660008181526068602090815260409182902094909455805185815290519193928716927fddf252ad1be2c89b69c2b068fc378daa952ba7f163c4a11628f55a4df523b3ef92918290030190a3505050565b600081848411156125425760405162461bcd60e51b81526004018080602001828103825283818151815260200191508051906020019080838360005b838110156125075781810151838201526020016124ef565b50505050905090810190601f1680156125345780820380516001836020036101000a031916815260200191505b509250505060405180910390fd5b505050900390565b60008282018381101561226a576040805162461bcd60e51b815260206004820152601b60248201527f536166654d6174683a206164646974696f6e206f766572666c6f770000000000604482015290519081900360640190fd5b6001600160a01b0382166125e95760405162461bcd60e51b8152600401808060200182810382526021815260200180613a9e6021913960400191505060405180910390fd5b61262c8160405180606001604052806022815260200161385b602291396001600160a01b038516600090815260686020526040902054919063ffffffff6124b316565b6001600160a01b038316600090815260686020526040902055606a54612658908263ffffffff61350616565b606a556040805182815290516000916001600160a01b038516917fddf252ad1be2c89b69c2b068fc378daa952ba7f163c4a11628f55a4df523b3ef9181900360200190a35050565b6126aa82826125a4565b611499826126b661205b565b610f9f84604051806060016040528060248152602001613a44602491396001600160a01b038816600090815260696020526040812090610f7861205b565b612705609d8263ffffffff61354816565b6040516001600160a01b038216907f6ae172837ea30b801fbfcdd4108aa1d5bf8ff775444fd70256b44e6bf3dfc3f690600090a250565b61274d609d8263ffffffff6135c916565b6040516001600160a01b038216907fe94479a9f7e1952cc78f2d6baab678adc1b772d936c6583def489e524cb6669290600090a250565b60006001600160a01b0382166127cb5760405162461bcd60e51b81526004018080602001828103825260228152602001806139cb6022913960400191505060405180910390fd5b506001600160a01b03166000908152602091909152604090205460ff1690565b600054610100900460ff1680612804575061280461214b565b80612812575060005460ff16155b61284d5760405162461bcd60e51b815260040180806020018281038252602e8152602001806139ed602e913960400191505060405180910390fd5b600054610100900460ff16158015612878576000805460ff1961ff0019909116610100171660011790555b612881826118a8565b611bb257611bb2826126f4565b60006113623383613630565b600061136233836136a0565b6000808080806fd3094c70f034de4b96ff7d5b6f99fcd886106128ef576001607e1b840193506fd3094c70f034de4b96ff7d5b6f99fcd86001607f1b8702816128eb57fe5b0495505b6fa45af1e1f40c333b3de1db4dd55f29a78610612932576001607d1b840193506fa45af1e1f40c333b3de1db4dd55f29a76001607f1b87028161292e57fe5b0495505b6f910b022db7ae67ce76b441c27035c6a18610612975576001607c1b840193506f910b022db7ae67ce76b441c27035c6a16001607f1b87028161297157fe5b0495505b6f88415abbe9a76bead8d00cf112e4d4a886106129b8576001607b1b840193506f88415abbe9a76bead8d00cf112e4d4a86001607f1b8702816129b457fe5b0495505b6f84102b00893f64c705e841d5d4064bd386106129fb576001607a1b840193506f84102b00893f64c705e841d5d4064bd36001607f1b8702816129f757fe5b0495505b6f8204055aaef1c8bd5c3259f4822735a28610612a3e57600160791b840193506f8204055aaef1c8bd5c3259f4822735a26001607f1b870281612a3a57fe5b0495505b6f810100ab00222d861931c15e39b44e998610612a8157600160781b840193506f810100ab00222d861931c15e39b44e996001607f1b870281612a7d57fe5b0495505b6f808040155aabbbe9451521693554f7338610612ac457600160771b840193506f808040155aabbbe9451521693554f7336001607f1b870281612ac057fe5b0495505b6f7fffffffffffffffffffffffffffffff19860192508291506001607f1b828002049050600160801b838103830204840193506001607f1b81830281612b0657fe5b049150600160811b836faaaaaaaaaaaaaaaaaaaaaaaaaaaaaaaa03830281612b2a57fe5b04840193506001607f1b81830281612b3e57fe5b049150600360801b836f9999999999999999999999999999999903830281612b6257fe5b04840193506001607f1b81830281612b7657fe5b049150600160821b836f9249249249249249249249249249249203830281612b9a57fe5b04840193506001607f1b81830281612bae57fe5b049150600560801b836f8e38e38e38e38e38e38e38e38e38e38e03830281612bd257fe5b04840193506001607f1b81830281612be657fe5b049150600360811b836f8ba2e8ba2e8ba2e8ba2e8ba2e8ba2e8b03830281612c0a57fe5b04840193506001607f1b81830281612c1e57fe5b049150600760801b836f89d89d89d89d89d89d89d89d89d89d8903830281612c4257fe5b04840193506001607f1b81830281612c5657fe5b049150600160831b836f8888888888888888888888888888888803830281612c7a57fe5b049390930195945050505050565b600080600160801b8310612cb8576000612ca76001607f1b8504613710565b60ff1693841c936001607f1b029150505b6001607f1b831115612d0657607f5b60ff811615612d04576001607f1b848002049350600160801b8410612cfb57600193841c9360ff6000198301161b91909101905b60001901612cc7565b505b6f05b9de1d10bf4103d647b0955897ba806f03f80fe03f80fe03f80fe03f80fe03f88202049392505050565b6000670168244fdac780006001607f1b6f0fffffffffffffffffffffffffffffff84168080028290048082028390048083028490049485026710e1b3be415a00009092026705a0913f6b1e000091909102010192909181830204905080664807432bc1800002830192506001607f1b82820281612dab57fe5b04905080660c0135dca0400002830192506001607f1b82820281612dcb57fe5b049050806601b707b1cdc00002830192506001607f1b82820281612deb57fe5b049050806536e0f639b80002830192506001607f1b82820281612e0a57fe5b04905080650618fee9f80002830192506001607f1b82820281612e2957fe5b04905080649c197dcc0002830192506001607f1b82820281612e4757fe5b04905080640e30dce40002830192506001607f1b82820281612e6557fe5b0490508064012ebd130002830192506001607f1b82820281612e8357fe5b049050806317499f0002830192506001607f1b82820281612ea057fe5b049050806301a9d48002830192506001607f1b82820281612ebd57fe5b04905080621c638002830192506001607f1b82820281612ed957fe5b049050806201c63802830192506001607f1b82820281612ef557fe5b04905080611ab802830192506001607f1b82820281612f1057fe5b0490508061017c02830192506001607f1b82820281612f2b57fe5b04905080601402830192506001607f1b82820281612f4557fe5b6721c3677c82b400009190049384010482016001607f1b019290506001607c1b851615612f965770018ebef9eac820ae8682b9793ac6d1e7767001c3d6a24ed82218787d624d3e5eba95f984020492505b6001607d1b851615612fcc577001368b2fc6f9609fe7aceb46aa619baed470018ebef9eac820ae8682b9793ac6d1e77884020492505b6001607e1b851615613001576fbc5ab1b16779be3575bd8f0520a9f21f7001368b2fc6f9609fe7aceb46aa619baed584020492505b6001607f1b851615613035576f454aaa8efe072e7f6ddbab84b40a55c96fbc5ab1b16779be3575bd8f0520a9f21e84020492505b600160801b851615613069576f0960aadc109e7a3bf4578099615711ea6f454aaa8efe072e7f6ddbab84b40a55c584020492505b600160811b85161561309c576e2bf84208204f5977f9a8cf01fdce3d6f0960aadc109e7a3bf4578099615711d784020492505b600160821b8516156130cd576d03c6ab775dd0b95b4cbee7e65d116e2bf84208204f5977f9a8cf01fdc30784020492505b50909392505050565b60006020607f5b8060ff168260010160ff161015613126576000600260ff84840116049050846101358260ff166080811061310d57fe5b01541061311c57809250613120565b8091505b506130dd565b836101358260ff166080811061313857fe5b0154106131485791506113659050565b836101358360ff166080811061315a57fe5b0154106102bb57509050611365565b60008083905060008090508360ff16858302901c9150816f03442c4e6074a82f1797f72ac000000002810190508360ff16858302901c9150816f0116b96f757c380fb287fd0e4000000002810190508360ff16858302901c9150816e45ae5bdd5f0e03eca1ff439000000002810190508360ff16858302901c9150816e0defabf91302cd95b9ffda5000000002810190508360ff16858302901c9150816e02529ca9832b22439efff9b800000002810190508360ff16858302901c9150816d54f1cf12bd04e516b6da8800000002810190508360ff16858302901c9150816d0a9e39e257a09ca2d6db5100000002810190508360ff16858302901c9150816d012e066e7b839fa050c30900000002810190508360ff16858302901c9150816c1e33d7d926c329a1ad1a80000002810190508360ff16858302901c9150816c02bee513bdb4a6b19b5f80000002810190508360ff16858302901c9150816b3a9316fa79b88eccf2a0000002810190508360ff16858302901c9150816b048177ebe1fa81237520000002810190508360ff16858302901c9150816a5263fe90242dcbacf0000002810190508360ff16858302901c9150816a057e22099c030d9410000002810190508360ff16858302901c9150816957e22099c030d941000002810190508360ff16858302901c91508169052b6b5456997631000002810190508360ff16858302901c915081684985f67696bf74800002810190508360ff16858302901c9150816803dea12ea99e49800002810190508360ff16858302901c9150816731880f2214b6e00002810190508360ff16858302901c91508167025bcff56eb3600002810190508360ff16858302901c915081661b722e10ab100002810190508360ff16858302901c9150816601317c7007700002810190508360ff16858302901c915081650cba84aafa0002810190508360ff16858302901c9150816482573a0a0002810190508360ff16858302901c9150816405035ad90002810190508360ff16858302901c915081632f881b0002810190508360ff16858302901c9150816301b2934002810190508360ff16858302901c915081620efc4002810190508360ff16858302901c915081617fe002810190508360ff16858302901c91508161042002810190508360ff16858302901c915081602102810190508360ff16858302901c915081600102810190508360ff166001901b856f0688589cc0e9505e2f2fee558000000083816134fa57fe5b04010195945050505050565b600061226a83836040518060400160405280601e81526020017f536166654d6174683a207375627472616374696f6e206f766572666c6f7700008152506124b3565b6135528282612784565b156135a4576040805162461bcd60e51b815260206004820152601f60248201527f526f6c65733a206163636f756e7420616c72656164792068617320726f6c6500604482015290519081900360640190fd5b6001600160a01b0316600090815260209190915260409020805460ff19166001179055565b6135d38282612784565b61360e5760405162461bcd60e51b81526004018080602001828103825260218152602001806139626021913960400191505060405180910390fd5b6001600160a01b0316600090815260209190915260409020805460ff19169055565b60006101b6543a111561363f57fe5b600061364a836117f7565b90506136568482612151565b604080518281526020810185905281516001600160a01b038716927f65ab8b57af027ad387b3f608b0745de61b7dc81d07be6ded03736db32fe46bd9928290030190a29392505050565b60006101b6543a11156136af57fe5b60006136ba8361133d565b90506136c684846125a4565b604080518481526020810183905281516001600160a01b038716927f14feb1b32dbb3ebf172a72bc6b201cb3ddcd8dd148da8b8ac41207f2d69bdd32928290030190a29392505050565b600080610100831015613738575b600183111561373357600192831c920161371e565b611362565b60805b60ff81161561376a57600160ff82161b841061375f5760ff81169390931c92908117905b60011c607f1661373b565b5092915050565b828054600181600116156101000203166002900490600052602060002090601f016020900481019282601f106137b257805160ff19168380011785556137df565b828001600101855582156137df579182015b828111156137df5782518255916020019190600101906137c4565b506137eb9291506137ef565b5090565b610c6891905b808211156137eb57600081556001016137f556fe45524332303a207472616e7366657220746f20746865207a65726f20616464726573734661696c65643a20496e737566696369656e742066756e647320666f7220646f6e6174696f6e20616d6f756e742e45524332303a206275726e20616d6f756e7420657863656564732062616c616e636545524332303a20617070726f766520746f20746865207a65726f20616464726573734552433230426f6e64696e67546f6b656e3a204661696c656420746f207472616e7366657220746f6b656e7320666f7220726566756e642e4552433230426f6e64696e67546f6b656e3a20496e737566696369656e742066756e647320666f722073616c6520616d6f756e742e45524332303a207472616e7366657220616d6f756e7420657863656564732062616c616e63654d696e746572526f6c653a2063616c6c657220646f6573206e6f74206861766520746865204d696e74657220726f6c65526f6c65733a206163636f756e7420646f6573206e6f74206861766520726f6c655468697320697320616e2061646d696e2066756e6374696f6e0000000000000045524332303a207472616e7366657220616d6f756e74206578636565647320616c6c6f77616e6365526f6c65733a206163636f756e7420697320746865207a65726f2061646472657373436f6e747261637420696e7374616e63652068617320616c7265616479206265656e20696e697469616c697a65644661696c65643a20416d6f756e74206d7573742062652067726561746572207468616e207a65726f2e45524332303a206275726e20616d6f756e74206578636565647320616c6c6f77616e63654552433230426f6e64696e67546f6b656e3a204661696c656420746f207472616e7366657220746f6b656e7320666f72206275726e2e45524332303a206275726e2066726f6d20746865207a65726f206164647265737345524332303a207472616e736665722066726f6d20746865207a65726f206164647265737345524332303a20617070726f76652066726f6d20746865207a65726f20616464726573734552433230426f6e64696e67546f6b656e3a204661696c656420746f207472616e7366657220746f6b656e7320666f72206d696e742e4552433230426f6e64696e67546f6b656e3a204661696c656420746f207472616e7366657220746f6b656e7320666f7220696e7469616c20706f6f6c2e45524332303a2064656372656173656420616c6c6f77616e63652062656c6f77207a65726fa265627a7a723158200b6c0618cfcdf76a658a092ac100b726a128964e24bb7a12f6d3b1a6e818197764736f6c63430005100032",
  "compiler": {
    "name": "solc",
    "version": "0.5.16+commit.9c3226ce.Darwin.appleclang",
    "optimizer": {
      "enabled": true,
      "runs": 200
    },
    "evmVersion": "petersburg"
  }
}