{
  "fileName": "TokenPoolManager.sol",
  "contractName": "ERC20BondingToken",
  "source": "pragma solidity ^0.5.0;\n\nimport \"@openzeppelin/upgrades/contracts/Initializable.sol\";\nimport \"./BondingCurveToken.sol\";\n\n\n/**\n * @title Token Bonding Curve\n * @dev Token backed Bonding curve contract\n */\ncontract ERC20BondingToken is Initializable, BondingCurveToken {\n\n  /* Reserve Token */\n  ERC20 public reserveToken;\n\n  /* The TCR contract address */\n  address public investmentPool;\n\n  /* Exit Tribute is a tax applied on token sellers TODO: how to calc */\n  uint256 public exitTribute = 1 wei;\n\n  /* Pool split amount TODO: how to calc */\n  uint8 public poolSplit = 3;\n\n  function initialize(\n      ERC20 _reserveToken,\n      uint256 _initialPoolBalance,\n      uint256 _initialSupply,\n      uint32 _reserveRatio,\n      uint256 _gasPrice,\n      address _investmentPool)\n      public\n      initializer\n  {\n    reserveToken = _reserveToken;\n    investmentPool = _investmentPool;\n\n    require(reserveToken.transferFrom(\n        msg.sender,\n        address(this),\n        _initialPoolBalance),\n        \"ERC20BondingToken: Failed to transfer tokens for intial pool.\");\n\n    BondingCurveToken.initialize(_initialSupply, _reserveRatio, _gasPrice);\n  }\n\n  /**\n  * @dev Returns the current reserve token balance of the reserve Pool\n  */\n  function reservePoolBalance() public view returns(uint256) {\n    return reserveToken.balanceOf(address(this));\n  }\n\n  /**\n  * @dev Returns the current reserve token balance of the investment Pool\n  */\n  function investmentPoolBalance() public view returns(uint256) {\n    return reserveToken.balanceOf(investmentPool);\n  }\n\n  /**\n  * @dev Returns the pool split for a given token amount\n  * for amounts below 1 reserve token, splitting isn't worth the gas.\n  * since the reserve token has 18 decimals, I'm using the idiomatic 'ether' keyword (i.e: 1e18)\n  * @param _amount The amount of reserve tokens received in a purchase\n  */\n  function _calculatePoolSplit(uint256 _amount)\n    internal\n    view\n    returns(uint256 reserveAmt, uint256 investmentAmt)\n  {\n    if (_amount < 1 ether) return (_amount, 0);\n\n    // reserveAmt = _amount.div(poolSplit);\n    // investmentAmt = _amount.sub(reserveAmt);\n    reserveAmt = _amount / poolSplit;\n    investmentAmt = _amount - reserveAmt;\n  }\n}",
  "sourcePath": "contracts/TokenPoolManager.sol",
  "abi": [
    {
      "anonymous": false,
      "inputs": [
        {
          "indexed": true,
          "internalType": "address",
          "name": "owner",
          "type": "address"
        },
        {
          "indexed": true,
          "internalType": "address",
          "name": "spender",
          "type": "address"
        },
        {
          "indexed": false,
          "internalType": "uint256",
          "name": "value",
          "type": "uint256"
        }
      ],
      "name": "Approval",
      "type": "event"
    },
    {
      "anonymous": false,
      "inputs": [
        {
          "indexed": true,
          "internalType": "address",
          "name": "_sender",
          "type": "address"
        },
        {
          "indexed": false,
          "internalType": "uint256",
          "name": "_amount",
          "type": "uint256"
        },
        {
          "indexed": false,
          "internalType": "uint256",
          "name": "_reimbursement",
          "type": "uint256"
        }
      ],
      "name": "CurvedBurn",
      "type": "event"
    },
    {
      "anonymous": false,
      "inputs": [
        {
          "indexed": true,
          "internalType": "address",
          "name": "_sender",
          "type": "address"
        },
        {
          "indexed": false,
          "internalType": "uint256",
          "name": "_amount",
          "type": "uint256"
        },
        {
          "indexed": false,
          "internalType": "uint256",
          "name": "_deposit",
          "type": "uint256"
        }
      ],
      "name": "CurvedMint",
      "type": "event"
    },
    {
      "anonymous": false,
      "inputs": [
        {
          "indexed": true,
          "internalType": "address",
          "name": "account",
          "type": "address"
        }
      ],
      "name": "MinterAdded",
      "type": "event"
    },
    {
      "anonymous": false,
      "inputs": [
        {
          "indexed": true,
          "internalType": "address",
          "name": "account",
          "type": "address"
        }
      ],
      "name": "MinterRemoved",
      "type": "event"
    },
    {
      "anonymous": false,
      "inputs": [
        {
          "indexed": true,
          "internalType": "address",
          "name": "from",
          "type": "address"
        },
        {
          "indexed": true,
          "internalType": "address",
          "name": "to",
          "type": "address"
        },
        {
          "indexed": false,
          "internalType": "uint256",
          "name": "value",
          "type": "uint256"
        }
      ],
      "name": "Transfer",
      "type": "event"
    },
    {
      "constant": false,
      "inputs": [
        {
          "internalType": "address",
          "name": "account",
          "type": "address"
        }
      ],
      "name": "addMinter",
      "outputs": [],
      "payable": false,
      "stateMutability": "nonpayable",
      "type": "function"
    },
    {
      "constant": true,
      "inputs": [
        {
          "internalType": "address",
          "name": "owner",
          "type": "address"
        },
        {
          "internalType": "address",
          "name": "spender",
          "type": "address"
        }
      ],
      "name": "allowance",
      "outputs": [
        {
          "internalType": "uint256",
          "name": "",
          "type": "uint256"
        }
      ],
      "payable": false,
      "stateMutability": "view",
      "type": "function"
    },
    {
      "constant": false,
      "inputs": [
        {
          "internalType": "address",
          "name": "spender",
          "type": "address"
        },
        {
          "internalType": "uint256",
          "name": "amount",
          "type": "uint256"
        }
      ],
      "name": "approve",
      "outputs": [
        {
          "internalType": "bool",
          "name": "",
          "type": "bool"
        }
      ],
      "payable": false,
      "stateMutability": "nonpayable",
      "type": "function"
    },
    {
      "constant": true,
      "inputs": [
        {
          "internalType": "address",
          "name": "account",
          "type": "address"
        }
      ],
      "name": "balanceOf",
      "outputs": [
        {
          "internalType": "uint256",
          "name": "",
          "type": "uint256"
        }
      ],
      "payable": false,
      "stateMutability": "view",
      "type": "function"
    },
    {
      "constant": false,
      "inputs": [
        {
          "internalType": "uint256",
          "name": "amount",
          "type": "uint256"
        }
      ],
      "name": "burn",
      "outputs": [],
      "payable": false,
      "stateMutability": "nonpayable",
      "type": "function"
    },
    {
      "constant": false,
      "inputs": [
        {
          "internalType": "address",
          "name": "account",
          "type": "address"
        },
        {
          "internalType": "uint256",
          "name": "amount",
          "type": "uint256"
        }
      ],
      "name": "burnFrom",
      "outputs": [],
      "payable": false,
      "stateMutability": "nonpayable",
      "type": "function"
    },
    {
      "constant": true,
      "inputs": [
        {
          "internalType": "uint256",
          "name": "_fromReserveBalance",
          "type": "uint256"
        },
        {
          "internalType": "uint32",
          "name": "_fromReserveRatio",
          "type": "uint32"
        },
        {
          "internalType": "uint256",
          "name": "_toReserveBalance",
          "type": "uint256"
        },
        {
          "internalType": "uint32",
          "name": "_toReserveRatio",
          "type": "uint32"
        },
        {
          "internalType": "uint256",
          "name": "_amount",
          "type": "uint256"
        }
      ],
      "name": "calculateCrossReserveReturn",
      "outputs": [
        {
          "internalType": "uint256",
          "name": "",
          "type": "uint256"
        }
      ],
      "payable": false,
      "stateMutability": "view",
      "type": "function"
    },
    {
      "constant": true,
      "inputs": [
        {
          "internalType": "uint256",
          "name": "_amount",
          "type": "uint256"
        }
      ],
      "name": "calculateCurvedBurnReturn",
      "outputs": [
        {
          "internalType": "uint256",
          "name": "",
          "type": "uint256"
        }
      ],
      "payable": false,
      "stateMutability": "view",
      "type": "function"
    },
    {
      "constant": true,
      "inputs": [
        {
          "internalType": "uint256",
          "name": "_amount",
          "type": "uint256"
        }
      ],
      "name": "calculateCurvedMintReturn",
      "outputs": [
        {
          "internalType": "uint256",
          "name": "",
          "type": "uint256"
        }
      ],
      "payable": false,
      "stateMutability": "view",
      "type": "function"
    },
    {
      "constant": true,
      "inputs": [
        {
          "internalType": "uint256",
          "name": "_supply",
          "type": "uint256"
        },
        {
          "internalType": "uint256",
          "name": "_reserveBalance",
          "type": "uint256"
        },
        {
          "internalType": "uint32",
          "name": "_totalRatio",
          "type": "uint32"
        },
        {
          "internalType": "uint256",
          "name": "_amount",
          "type": "uint256"
        }
      ],
      "name": "calculateFundCost",
      "outputs": [
        {
          "internalType": "uint256",
          "name": "",
          "type": "uint256"
        }
      ],
      "payable": false,
      "stateMutability": "view",
      "type": "function"
    },
    {
      "constant": true,
      "inputs": [
        {
          "internalType": "uint256",
          "name": "_supply",
          "type": "uint256"
        },
        {
          "internalType": "uint256",
          "name": "_reserveBalance",
          "type": "uint256"
        },
        {
          "internalType": "uint32",
          "name": "_totalRatio",
          "type": "uint32"
        },
        {
          "internalType": "uint256",
          "name": "_amount",
          "type": "uint256"
        }
      ],
      "name": "calculateLiquidateReturn",
      "outputs": [
        {
          "internalType": "uint256",
          "name": "",
          "type": "uint256"
        }
      ],
      "payable": false,
      "stateMutability": "view",
      "type": "function"
    },
    {
      "constant": true,
      "inputs": [
        {
          "internalType": "uint256",
          "name": "_supply",
          "type": "uint256"
        },
        {
          "internalType": "uint256",
          "name": "_reserveBalance",
          "type": "uint256"
        },
        {
          "internalType": "uint32",
          "name": "_reserveRatio",
          "type": "uint32"
        },
        {
          "internalType": "uint256",
          "name": "_depositAmount",
          "type": "uint256"
        }
      ],
      "name": "calculatePurchaseReturn",
      "outputs": [
        {
          "internalType": "uint256",
          "name": "",
          "type": "uint256"
        }
      ],
      "payable": false,
      "stateMutability": "view",
      "type": "function"
    },
    {
      "constant": true,
      "inputs": [
        {
          "internalType": "uint256",
          "name": "_supply",
          "type": "uint256"
        },
        {
          "internalType": "uint256",
          "name": "_reserveBalance",
          "type": "uint256"
        },
        {
          "internalType": "uint32",
          "name": "_reserveRatio",
          "type": "uint32"
        },
        {
          "internalType": "uint256",
          "name": "_sellAmount",
          "type": "uint256"
        }
      ],
      "name": "calculateSaleReturn",
      "outputs": [
        {
          "internalType": "uint256",
          "name": "",
          "type": "uint256"
        }
      ],
      "payable": false,
      "stateMutability": "view",
      "type": "function"
    },
    {
      "constant": true,
      "inputs": [],
      "name": "decimals",
      "outputs": [
        {
          "internalType": "uint8",
          "name": "",
          "type": "uint8"
        }
      ],
      "payable": false,
      "stateMutability": "view",
      "type": "function"
    },
    {
      "constant": false,
      "inputs": [
        {
          "internalType": "address",
          "name": "spender",
          "type": "address"
        },
        {
          "internalType": "uint256",
          "name": "subtractedValue",
          "type": "uint256"
        }
      ],
      "name": "decreaseAllowance",
      "outputs": [
        {
          "internalType": "bool",
          "name": "",
          "type": "bool"
        }
      ],
      "payable": false,
      "stateMutability": "nonpayable",
      "type": "function"
    },
    {
      "constant": true,
      "inputs": [],
      "name": "exitTribute",
      "outputs": [
        {
          "internalType": "uint256",
          "name": "",
          "type": "uint256"
        }
      ],
      "payable": false,
      "stateMutability": "view",
      "type": "function"
    },
    {
      "constant": true,
      "inputs": [],
      "name": "gasPrice",
      "outputs": [
        {
          "internalType": "uint256",
          "name": "",
          "type": "uint256"
        }
      ],
      "payable": false,
      "stateMutability": "view",
      "type": "function"
    },
    {
      "constant": false,
      "inputs": [
        {
          "internalType": "address",
          "name": "spender",
          "type": "address"
        },
        {
          "internalType": "uint256",
          "name": "addedValue",
          "type": "uint256"
        }
      ],
      "name": "increaseAllowance",
      "outputs": [
        {
          "internalType": "bool",
          "name": "",
          "type": "bool"
        }
      ],
      "payable": false,
      "stateMutability": "nonpayable",
      "type": "function"
    },
    {
      "constant": false,
      "inputs": [
        {
          "internalType": "string",
          "name": "name",
          "type": "string"
        },
        {
          "internalType": "string",
          "name": "symbol",
          "type": "string"
        },
        {
          "internalType": "uint8",
          "name": "decimals",
          "type": "uint8"
        }
      ],
      "name": "initialize",
      "outputs": [],
      "payable": false,
      "stateMutability": "nonpayable",
      "type": "function"
    },
    {
      "constant": false,
      "inputs": [
        {
          "internalType": "uint256",
          "name": "_initialSupply",
          "type": "uint256"
        },
        {
          "internalType": "uint32",
          "name": "_reserveRatio",
          "type": "uint32"
        },
        {
          "internalType": "uint256",
          "name": "_gasPrice",
          "type": "uint256"
        }
      ],
      "name": "initialize",
      "outputs": [],
      "payable": false,
      "stateMutability": "nonpayable",
      "type": "function"
    },
    {
      "constant": false,
      "inputs": [
        {
          "internalType": "contract ERC20",
          "name": "_reserveToken",
          "type": "address"
        },
        {
          "internalType": "uint256",
          "name": "_initialPoolBalance",
          "type": "uint256"
        },
        {
          "internalType": "uint256",
          "name": "_initialSupply",
          "type": "uint256"
        },
        {
          "internalType": "uint32",
          "name": "_reserveRatio",
          "type": "uint32"
        },
        {
          "internalType": "uint256",
          "name": "_gasPrice",
          "type": "uint256"
        },
        {
          "internalType": "address",
          "name": "_investmentPool",
          "type": "address"
        }
      ],
      "name": "initialize",
      "outputs": [],
      "payable": false,
      "stateMutability": "nonpayable",
      "type": "function"
    },
    {
      "constant": false,
      "inputs": [
        {
          "internalType": "address",
          "name": "sender",
          "type": "address"
        }
      ],
      "name": "initialize",
      "outputs": [],
      "payable": false,
      "stateMutability": "nonpayable",
      "type": "function"
    },
    {
      "constant": true,
      "inputs": [],
      "name": "investmentPool",
      "outputs": [
        {
          "internalType": "address",
          "name": "",
          "type": "address"
        }
      ],
      "payable": false,
      "stateMutability": "view",
      "type": "function"
    },
    {
      "constant": true,
      "inputs": [],
      "name": "investmentPoolBalance",
      "outputs": [
        {
          "internalType": "uint256",
          "name": "",
          "type": "uint256"
        }
      ],
      "payable": false,
      "stateMutability": "view",
      "type": "function"
    },
    {
      "constant": true,
      "inputs": [
        {
          "internalType": "address",
          "name": "account",
          "type": "address"
        }
      ],
      "name": "isMinter",
      "outputs": [
        {
          "internalType": "bool",
          "name": "",
          "type": "bool"
        }
      ],
      "payable": false,
      "stateMutability": "view",
      "type": "function"
    },
    {
      "constant": false,
      "inputs": [
        {
          "internalType": "address",
          "name": "account",
          "type": "address"
        },
        {
          "internalType": "uint256",
          "name": "amount",
          "type": "uint256"
        }
      ],
      "name": "mint",
      "outputs": [
        {
          "internalType": "bool",
          "name": "",
          "type": "bool"
        }
      ],
      "payable": false,
      "stateMutability": "nonpayable",
      "type": "function"
    },
    {
      "constant": true,
      "inputs": [],
      "name": "name",
      "outputs": [
        {
          "internalType": "string",
          "name": "",
          "type": "string"
        }
      ],
      "payable": false,
      "stateMutability": "view",
      "type": "function"
    },
    {
      "constant": true,
      "inputs": [],
      "name": "poolSplit",
      "outputs": [
        {
          "internalType": "uint8",
          "name": "",
          "type": "uint8"
        }
      ],
      "payable": false,
      "stateMutability": "view",
      "type": "function"
    },
    {
      "constant": false,
      "inputs": [],
      "name": "renounceMinter",
      "outputs": [],
      "payable": false,
      "stateMutability": "nonpayable",
      "type": "function"
    },
    {
      "constant": true,
      "inputs": [],
      "name": "reservePoolBalance",
      "outputs": [
        {
          "internalType": "uint256",
          "name": "",
          "type": "uint256"
        }
      ],
      "payable": false,
      "stateMutability": "view",
      "type": "function"
    },
    {
      "constant": true,
      "inputs": [],
      "name": "reserveRatio",
      "outputs": [
        {
          "internalType": "uint32",
          "name": "",
          "type": "uint32"
        }
      ],
      "payable": false,
      "stateMutability": "view",
      "type": "function"
    },
    {
      "constant": true,
      "inputs": [],
      "name": "reserveToken",
      "outputs": [
        {
          "internalType": "contract ERC20",
          "name": "",
          "type": "address"
        }
      ],
      "payable": false,
      "stateMutability": "view",
      "type": "function"
    },
    {
      "constant": true,
      "inputs": [],
      "name": "symbol",
      "outputs": [
        {
          "internalType": "string",
          "name": "",
          "type": "string"
        }
      ],
      "payable": false,
      "stateMutability": "view",
      "type": "function"
    },
    {
      "constant": true,
      "inputs": [],
      "name": "totalSupply",
      "outputs": [
        {
          "internalType": "uint256",
          "name": "",
          "type": "uint256"
        }
      ],
      "payable": false,
      "stateMutability": "view",
      "type": "function"
    },
    {
      "constant": false,
      "inputs": [
        {
          "internalType": "address",
          "name": "recipient",
          "type": "address"
        },
        {
          "internalType": "uint256",
          "name": "amount",
          "type": "uint256"
        }
      ],
      "name": "transfer",
      "outputs": [
        {
          "internalType": "bool",
          "name": "",
          "type": "bool"
        }
      ],
      "payable": false,
      "stateMutability": "nonpayable",
      "type": "function"
    },
    {
      "constant": false,
      "inputs": [
        {
          "internalType": "address",
          "name": "sender",
          "type": "address"
        },
        {
          "internalType": "address",
          "name": "recipient",
          "type": "address"
        },
        {
          "internalType": "uint256",
          "name": "amount",
          "type": "uint256"
        }
      ],
      "name": "transferFrom",
      "outputs": [
        {
          "internalType": "bool",
          "name": "",
          "type": "bool"
        }
      ],
      "payable": false,
      "stateMutability": "nonpayable",
      "type": "function"
    },
    {
      "constant": true,
      "inputs": [],
      "name": "version",
      "outputs": [
        {
          "internalType": "uint16",
          "name": "",
          "type": "uint16"
        }
      ],
      "payable": false,
      "stateMutability": "view",
      "type": "function"
    }
  ],
  "bytecode": "0x6080604052610134805461ffff1916600617905560006101b681905560016101b9556101ba805460ff191660031790556001641c35fedd1560601b03610155556001646c3390ecc9605e1b03610156556001640cf801476160611b036101575560016431bdb23e1d605f1b036101585560016502fb1d8fe083605b1b036101595560016505b771955b37605a1b0361015a556001650af67a93bb5160591b0361015b5560016515060c256cb360581b0361015c556001651428a2f98d7360581b0361015d556001654d515663970960561b0361015e55600165944620b0e70f60551b0361015f55600166011c592761c66760541b036101605560016602214d10d014eb60531b0361016155600166020ade36b7dbef60531b036101625560016603eab73b3bbfe360521b03610163556001660782ee3593f6d760511b03610164556001661ccf4b44bb4821604f1b036101655560016606e7f88ad8a77760511b036101665560016669f3d1c921891d604d1b0361016755600166cb2ff529eb71e5604c1b0361016855600166c2d415c3db974b604c1b036101695560016702eb40f9f620fda7604a1b0361016a5560016705990681d961a1eb60491b0361016b55600167055e12902701414760491b0361016c5560016714962dee9dc9764160471b0361016d5560016704ef57b9b560fab560491b0361016e5560016712ed7b32a58f552b60471b0361016f556001679131271922eaa60760441b03610170556001678b380f3558668c4760441b03610171556001680215f77c045fbe885760421b03610172556001600160831b03610173556001670f577eded5773a1160471b03610174556001680eb5ec597592befbf5603f1b03610175556001681c35fedd14b861eb05603e1b03610176556001683619c87664579bc94b603d1b036101775560016867c00a3b07ffc01fd7603c1b0361017855600168c6f6c8f8739773a7a5603b1b0361017955600168bec763f8209b7a72b1603b1b0361017a5560016902dbb8caad9b7097b91b60391b0361017b55600169057b3d49dda84556d6f760381b0361017c55600169054183095b2c8ececf3160381b0361017d556001690a14517cc6b9457111ef60371b0361017e5560016913545598e5c23276ccf160361b0361017f556001692511882c39c3adea96ff60351b0361018055600169471649d87199aa99075760341b03610181557004429a21a029d4c1457cfbffffffffffff61018255700415bc6d6fb7dd71af2cb3ffffffffffff610183557003eab73b3bbfe282243ce1ffffffffffff610184557003c1771ac9fb6b4c18e229ffffffffffff61018555700399e96897690418f785257fffffffffff61018655700373fc456c53bb779bf0ea9fffffffffff6101875570034f9e8e490c48e67e6ab8bfffffffffff6101885570032cbfd4a7adc790560b3337ffffffffff6101895570030b50570f6e5d2acca94613ffffffffff61018a557002eb40f9f620fda6b56c2861ffffffffff61018b557002cc8340ecb0d0f520a6af58ffffffffff61018c557002af09481380a0a35cf1ba02ffffffffff61018d55700292c5bdd3b92ec810287b1b3fffffffff61018e55700277abdcdab07d5a77ac6d6b9fffffffff61018f5570025daf6654b1eaa55fd64df5efffffffff61019055700244c49c648baa98192dce88b7ffffffff6101915570022ce03cd5619a311b2471268bffffffff61019255700215f77c045fbe885654a44a0fffffffff610193556001600160811b03610194557001eaefdbdaaee7421fc4d3ede5ffffffff610195557001d6bd8b2eb257df7e8ca57b09bfffffff610196557001c35fedd14b861eb0443f7f133fffffff610197557001b0ce43b322bcde4a56e8ada5afffffff6101985570019f0028ec1fff007f5a195a39dfffffff6101995570018ded91f0e72ee74f49b15ba527ffffff61019a5570017d8ec7f04136f4e5615fd41a63ffffff61019b5570016ddc6556cdb84bdc8d12d22e6fffffff61019c5570015ecf52776a1155b5bd8395814f7fffff61019d5570015060c256cb23b3b3cc3754cf40ffffff61019e557001428a2f98d728ae223ddab715be3fffff61019f5570013545598e5c23276ccf0ede68034fffff6101a0557001288c4161ce1d6f54b7f61081194fffff6101a15570011c592761c666aa641d5a01a40f17ffff6101a255700110a688680a7530515f3e6e6cfdcdffff6101a3557001056f1b5bedf75c6bcb2ce8aed428ffff6101a4556ffaadceceeff8a0890f3875f008277fff6101a5556ff05dc6b27edad306388a600f6ba0bfff6101a6556fe67a5a25da41063de1495d5b18cdbfff6101a7556fdcff115b14eedde6fc3aa5353f2e4fff6101a8556fd3e7a3924312399f9aae2e0f868f8fff6101a9556fcb2ff529eb71e41582cccd5a1ee26fff6101aa556fc2d415c3db974ab32a51840c0b67edff6101ab556fbad03e7d883f69ad5b0a186184e06bff6101ac556fb320d03b2c343d4829abd6075f0cc5ff6101ad556fabc25204e02828d73c6e80bcdb1a95bf6101ae556fa4b16f74ee4bb2040a1ec6c15fbbf2df6101af556f9deaf736ac1f569deb1b5ae3f36c130f6101b0556f976bd9952c7aa957f5937d790ef650376101b1556f9131271922eaa6064b73a22d0bd4f2bf6101b2556f8b380f3558668c46c91c49a2f8e967b96101b3556f857ddf0117efa215952912839f6473e66101b455612f219081906107c890396000f3fe608060405234801561001057600080fd5b50600436106102275760003560e01c806379c1b45011610130578063a457c2d7116100b8578063c4d66de81161007c578063c4d66de814610848578063c58d1ba91461086e578063dd62ed3e14610876578063f4325d67146108a4578063fe173b97146108ac57610227565b8063a457c2d71461078d578063a9059cbb146107b9578063aa271e1a146107e5578063abfd231d1461080b578063ac3b8c5b1461084057610227565b806395d89b41116100ff57806395d89b4114610732578063983b2d561461073a57806398650275146107605780639a4f318b146107685780639e40524c1461078557610227565b806379c1b4501461067557806379cc6790146106b25780638cdecb04146106de5780638d265d13146106e657610227565b8063313ce567116101b3578063498e84f411610182578063498e84f4146105ba57806349f9b0f7146105de57806354fd4d50146106135780636d6f1e011461063257806370a082311461064f57610227565b8063313ce56714610527578063395093511461054557806340c10f191461057157806342966c681461059d57610227565b806318160ddd116101fa57806318160ddd1461043e5780631cafa218146104585780631da6bbfb1461048757806323b872dd146104bc57806329a00e7c146104f257610227565b806306fdde031461022c578063095ea7b3146102a95780630c7d5cd8146102e95780631624f6c61461030a575b600080fd5b6102346108b4565b6040805160208082528351818301528351919283929083019185019080838360005b8381101561026e578181015183820152602001610256565b50505050905090810190601f16801561029b5780820380516001836020036101000a031916815260200191505b509250505060405180910390f35b6102d5600480360360408110156102bf57600080fd5b506001600160a01b03813516906020013561094b565b604080519115158252519081900360200190f35b6102f1610969565b6040805163ffffffff9092168252519081900360200190f35b61043c6004803603606081101561032057600080fd5b81019060208101813564010000000081111561033b57600080fd5b82018360208201111561034d57600080fd5b8035906020019184600183028401116401000000008311171561036f57600080fd5b91908080601f01602080910402602001604051908101604052809392919081815260200183838082843760009201919091525092959493602081019350359150506401000000008111156103c257600080fd5b8201836020820111156103d457600080fd5b803590602001918460018302840111640100000000831117156103f657600080fd5b91908080601f0160208091040260200160405190810160405280939291908181526020018383808284376000920191909152509295505050903560ff1691506109769050565b005b610446610a52565b60408051918252519081900360200190f35b61043c6004803603606081101561046e57600080fd5b5080359063ffffffff6020820135169060400135610a58565b6104466004803603608081101561049d57600080fd5b5080359060208101359063ffffffff6040820135169060600135610b22565b6102d5600480360360608110156104d257600080fd5b506001600160a01b03813581169160208101359091169060400135610c01565b6104466004803603608081101561050857600080fd5b5080359060208101359063ffffffff6040820135169060600135610c8e565b61052f610d5f565b6040805160ff9092168252519081900360200190f35b6102d56004803603604081101561055b57600080fd5b506001600160a01b038135169060200135610d68565b6102d56004803603604081101561058757600080fd5b506001600160a01b038135169060200135610dbc565b61043c600480360360208110156105b357600080fd5b5035610e13565b6105c2610e27565b604080516001600160a01b039092168252519081900360200190f35b610446600480360360808110156105f457600080fd5b5080359060208101359063ffffffff6040820135169060600135610e37565b61061b610f11565b6040805161ffff9092168252519081900360200190f35b6104466004803603602081101561064857600080fd5b5035610f1c565b6104466004803603602081101561066557600080fd5b50356001600160a01b0316610f49565b610446600480360360a081101561068b57600080fd5b5080359063ffffffff60208201358116916040810135916060820135169060800135610f64565b61043c600480360360408110156106c857600080fd5b506001600160a01b03813516906020013561106e565b61044661107c565b61043c600480360360c08110156106fc57600080fd5b506001600160a01b03813581169160208101359160408201359163ffffffff6060820135169160808201359160a0013516611083565b61023461121f565b61043c6004803603602081101561075057600080fd5b50356001600160a01b0316611280565b61043c6112cf565b6104466004803603602081101561077e57600080fd5b50356112e1565b61052f611306565b6102d5600480360360408110156107a357600080fd5b506001600160a01b038135169060200135611310565b6102d5600480360360408110156107cf57600080fd5b506001600160a01b03813516906020013561137e565b6102d5600480360360208110156107fb57600080fd5b50356001600160a01b0316611392565b6104466004803603608081101561082157600080fd5b5080359060208101359063ffffffff60408201351690606001356113a5565b610446611430565b61043c6004803603602081101561085e57600080fd5b50356001600160a01b03166114b7565b610446611562565b6104466004803603604081101561088c57600080fd5b506001600160a01b03813581169160200135166115ae565b6105c26115d9565b6104466115e9565b60338054604080516020601f60026000196101006001881615020190951694909404938401819004810282018101909252828152606093909290918301828280156109405780601f1061091557610100808354040283529160200191610940565b820191906000526020600020905b81548152906001019060200180831161092357829003601f168201915b505050505090505b90565b600061095f6109586115f0565b84846115f4565b5060015b92915050565b6101b55463ffffffff1681565b600054610100900460ff168061098f575061098f6116e0565b8061099d575060005460ff16155b6109d85760405162461bcd60e51b815260040180806020018281038252602e815260200180612dcf602e913960400191505060405180910390fd5b600054610100900460ff16158015610a03576000805460ff1961ff0019909116610100171660011790555b8351610a16906033906020870190612c0e565b508251610a2a906034906020860190612c0e565b506035805460ff191660ff84161790558015610a4c576000805461ff00191690555b50505050565b606a5490565b600054610100900460ff1680610a715750610a716116e0565b80610a7f575060005460ff16155b610aba5760405162461bcd60e51b815260040180806020018281038252602e815260200180612dcf602e913960400191505060405180910390fd5b600054610100900460ff16158015610ae5576000805460ff1961ff0019909116610100171660011790555b6101b5805463ffffffff191663ffffffff85161790556101b6829055610b0b33856116e6565b8015610a4c576000805461ff001916905550505050565b60008085118015610b335750600084115b8015610b45575060018363ffffffff16115b8015610b5a5750621e848063ffffffff841611155b610b6357600080fd5b81610b7057506000610bf9565b63ffffffff8316620f42401415610ba757846001610b94848763ffffffff6117d816565b0381610b9c57fe5b046001019050610bf9565b60008080610bbb888663ffffffff61180616565b9050610bcc8189620f424089611818565b9093509150600060ff83166001610be98a8763ffffffff6117d816565b03901c8890036001019450505050505b949350505050565b6000610c0e8484846118ea565b610c8484610c1a6115f0565b610c7f85604051806060016040528060288152602001612d85602891396001600160a01b038a16600090815260696020526040812090610c586115f0565b6001600160a01b03168152602081019190915260400160002054919063ffffffff611a4816565b6115f4565b5060019392505050565b60008085118015610c9f5750600084115b8015610cb1575060008363ffffffff16115b8015610cc65750620f424063ffffffff841611155b610ccf57600080fd5b81610cdc57506000610bf9565b63ffffffff8316620f42401415610d0d5783610cfe868463ffffffff6117d816565b81610d0557fe5b049050610bf9565b60008080610d21858863ffffffff61180616565b9050610d32818888620f4240611818565b9093509150600060ff8316610d4d8a8663ffffffff6117d816565b901c9890980398975050505050505050565b60355460ff1690565b600061095f610d756115f0565b84610c7f8560696000610d866115f0565b6001600160a01b03908116825260208083019390935260409182016000908120918c16815292529020549063ffffffff611adf16565b6000610dce610dc96115f0565b611392565b610e095760405162461bcd60e51b8152600401808060200182810382526030815260200180612d346030913960400191505060405180910390fd5b61095f83836116e6565b610e24610e1e6115f0565b82611b39565b50565b6101b8546001600160a01b031681565b60008085118015610e485750600084115b8015610e5a575060008363ffffffff16115b8015610e6f5750620f424063ffffffff841611155b8015610e7b5750848211155b610e8457600080fd5b81610e9157506000610bf9565b84821415610ea0575082610bf9565b63ffffffff8316620f42401415610ec25784610cfe858463ffffffff6117d816565b600080838703610ed78882620f424089611818565b90935091506000610eee888563ffffffff6117d816565b905060ff831688901b8481830381610f0257fe5b049a9950505050505050505050565b6101345461ffff1681565b6000610f41610f29610a52565b610f31611562565b6101b55463ffffffff1685610e37565b90505b919050565b6001600160a01b031660009081526068602052604090205490565b60008086118015610f7b575060008563ffffffff16115b8015610f905750620f424063ffffffff861611155b8015610f9c5750600084115b8015610fae575060008363ffffffff16115b8015610fc35750620f424063ffffffff841611155b610fcc57600080fd5b8263ffffffff168563ffffffff16141561100f57610ff0868363ffffffff61180616565b611000858463ffffffff6117d816565b8161100757fe5b049050611065565b60008080611023898663ffffffff61180616565b9050611031818a8a89611818565b90935091506000611048888563ffffffff6117d816565b905060ff831688901b848183038161105c57fe5b04955050505050505b95945050505050565b6110788282611c35565b5050565b6101b95481565b600054610100900460ff168061109c575061109c6116e0565b806110aa575060005460ff16155b6110e55760405162461bcd60e51b815260040180806020018281038252602e815260200180612dcf602e913960400191505060405180910390fd5b600054610100900460ff16158015611110576000805460ff1961ff0019909116610100171660011790555b6101b780546001600160a01b03808a166001600160a01b031992831617928390556101b88054868316931692909217909155604080516323b872dd60e01b8152336004820152306024820152604481018a9052905192909116916323b872dd916064808201926020929091908290030181600087803b15801561119257600080fd5b505af11580156111a6573d6000803e3d6000fd5b505050506040513d60208110156111bc57600080fd5b50516111f95760405162461bcd60e51b815260040180806020018281038252603d815260200180612e8b603d913960400191505060405180910390fd5b611204858585610a58565b8015611216576000805461ff00191690555b50505050505050565b60348054604080516020601f60026000196101006001881615020190951694909404938401819004810282018101909252828152606093909290918301828280156109405780601f1061091557610100808354040283529160200191610940565b61128b610dc96115f0565b6112c65760405162461bcd60e51b8152600401808060200182810382526030815260200180612d346030913960400191505060405180910390fd5b610e2481611c89565b6112df6112da6115f0565b611cd1565b565b6000610f416112ee610a52565b6112f6611562565b6101b55463ffffffff1685610c8e565b6101ba5460ff1681565b600061095f61131d6115f0565b84610c7f85604051806060016040528060258152602001612ec860259139606960006113476115f0565b6001600160a01b03908116825260208083019390935260409182016000908120918d1681529252902054919063ffffffff611a4816565b600061095f61138b6115f0565b84846118ea565b6000610f41609d8363ffffffff611d1916565b600080851180156113b65750600084115b80156113c8575060018363ffffffff16115b80156113dd5750621e848063ffffffff841611155b80156113e95750848211155b6113f257600080fd5b816113ff57506000610bf9565b8482141561140e575082610bf9565b63ffffffff8316620f42401415610ec25784610cfe838663ffffffff6117d816565b6101b7546101b854604080516370a0823160e01b81526001600160a01b039283166004820152905160009392909216916370a0823191602480820192602092909190829003018186803b15801561148657600080fd5b505afa15801561149a573d6000803e3d6000fd5b505050506040513d60208110156114b057600080fd5b5051905090565b600054610100900460ff16806114d057506114d06116e0565b806114de575060005460ff16155b6115195760405162461bcd60e51b815260040180806020018281038252602e815260200180612dcf602e913960400191505060405180910390fd5b600054610100900460ff16158015611544576000805460ff1961ff0019909116610100171660011790555b61154d82611d80565b8015611078576000805461ff00191690555050565b6101b754604080516370a0823160e01b815230600482015290516000926001600160a01b0316916370a08231916024808301926020929190829003018186803b15801561148657600080fd5b6001600160a01b03918216600090815260696020908152604080832093909416825291909152205490565b6101b7546001600160a01b031681565b6101b65481565b3390565b6001600160a01b0383166116395760405162461bcd60e51b8152600401808060200182810382526024815260200180612e676024913960400191505060405180910390fd5b6001600160a01b03821661167e5760405162461bcd60e51b8152600401808060200182810382526022815260200180612cec6022913960400191505060405180910390fd5b6001600160a01b03808416600081815260696020908152604080832094871680845294825291829020859055815185815291517f8c5be1e5ebec7d5bd14f71427d1e84f3dd0314c0f7b2291e5b200ac8c7c3b9259281900390910190a3505050565b303b1590565b6001600160a01b038216611741576040805162461bcd60e51b815260206004820152601f60248201527f45524332303a206d696e7420746f20746865207a65726f206164647265737300604482015290519081900360640190fd5b606a54611754908263ffffffff611adf16565b606a556001600160a01b038216600090815260686020526040902054611780908263ffffffff611adf16565b6001600160a01b03831660008181526068602090815260408083209490945583518581529351929391927fddf252ad1be2c89b69c2b068fc378daa952ba7f163c4a11628f55a4df523b3ef9281900390910190a35050565b6000826117e757506000610963565b828202828482816117f457fe5b04146117ff57600080fd5b9392505050565b6000828201838110156117ff57600080fd5b600080600160811b861061182b57600080fd5b600080866001607f1b89028161183d57fe5b04905070015bf0a8b1457695355fb8ac404e7a79e38110156118695761186281611e23565b9150611875565b61187281612205565b91505b60008563ffffffff168763ffffffff1684028161188e57fe5b049050600160831b8110156118b4576118a6816122af565b607f945094505050506118e1565b60006118bf82612653565b90506118d481607f0360ff1683901c826126e6565b955093506118e192505050565b94509492505050565b6001600160a01b03831661192f5760405162461bcd60e51b8152600401808060200182810382526025815260200180612e426025913960400191505060405180910390fd5b6001600160a01b0382166119745760405162461bcd60e51b8152600401808060200182810382526023815260200180612ca76023913960400191505060405180910390fd5b6119b781604051806060016040528060268152602001612d0e602691396001600160a01b038616600090815260686020526040902054919063ffffffff611a4816565b6001600160a01b0380851660009081526068602052604080822093909355908416815220546119ec908263ffffffff611adf16565b6001600160a01b0380841660008181526068602090815260409182902094909455805185815290519193928716927fddf252ad1be2c89b69c2b068fc378daa952ba7f163c4a11628f55a4df523b3ef92918290030190a3505050565b60008184841115611ad75760405162461bcd60e51b81526004018080602001828103825283818151815260200191508051906020019080838360005b83811015611a9c578181015183820152602001611a84565b50505050905090810190601f168015611ac95780820380516001836020036101000a031916815260200191505b509250505060405180910390fd5b505050900390565b6000828201838110156117ff576040805162461bcd60e51b815260206004820152601b60248201527f536166654d6174683a206164646974696f6e206f766572666c6f770000000000604482015290519081900360640190fd5b6001600160a01b038216611b7e5760405162461bcd60e51b8152600401808060200182810382526021815260200180612e216021913960400191505060405180910390fd5b611bc181604051806060016040528060228152602001612cca602291396001600160a01b038516600090815260686020526040902054919063ffffffff611a4816565b6001600160a01b038316600090815260686020526040902055606a54611bed908263ffffffff612a8316565b606a556040805182815290516000916001600160a01b038516917fddf252ad1be2c89b69c2b068fc378daa952ba7f163c4a11628f55a4df523b3ef9181900360200190a35050565b611c3f8282611b39565b61107882611c4b6115f0565b610c7f84604051806060016040528060248152602001612dfd602491396001600160a01b038816600090815260696020526040812090610c586115f0565b611c9a609d8263ffffffff612ac516565b6040516001600160a01b038216907f6ae172837ea30b801fbfcdd4108aa1d5bf8ff775444fd70256b44e6bf3dfc3f690600090a250565b611ce2609d8263ffffffff612b4616565b6040516001600160a01b038216907fe94479a9f7e1952cc78f2d6baab678adc1b772d936c6583def489e524cb6669290600090a250565b60006001600160a01b038216611d605760405162461bcd60e51b8152600401808060200182810382526022815260200180612dad6022913960400191505060405180910390fd5b506001600160a01b03166000908152602091909152604090205460ff1690565b600054610100900460ff1680611d995750611d996116e0565b80611da7575060005460ff16155b611de25760405162461bcd60e51b815260040180806020018281038252602e815260200180612dcf602e913960400191505060405180910390fd5b600054610100900460ff16158015611e0d576000805460ff1961ff0019909116610100171660011790555b611e1682611392565b61154d5761154d82611c89565b6000808080806fd3094c70f034de4b96ff7d5b6f99fcd88610611e6c576001607e1b840193506fd3094c70f034de4b96ff7d5b6f99fcd86001607f1b870281611e6857fe5b0495505b6fa45af1e1f40c333b3de1db4dd55f29a78610611eaf576001607d1b840193506fa45af1e1f40c333b3de1db4dd55f29a76001607f1b870281611eab57fe5b0495505b6f910b022db7ae67ce76b441c27035c6a18610611ef2576001607c1b840193506f910b022db7ae67ce76b441c27035c6a16001607f1b870281611eee57fe5b0495505b6f88415abbe9a76bead8d00cf112e4d4a88610611f35576001607b1b840193506f88415abbe9a76bead8d00cf112e4d4a86001607f1b870281611f3157fe5b0495505b6f84102b00893f64c705e841d5d4064bd38610611f78576001607a1b840193506f84102b00893f64c705e841d5d4064bd36001607f1b870281611f7457fe5b0495505b6f8204055aaef1c8bd5c3259f4822735a28610611fbb57600160791b840193506f8204055aaef1c8bd5c3259f4822735a26001607f1b870281611fb757fe5b0495505b6f810100ab00222d861931c15e39b44e998610611ffe57600160781b840193506f810100ab00222d861931c15e39b44e996001607f1b870281611ffa57fe5b0495505b6f808040155aabbbe9451521693554f733861061204157600160771b840193506f808040155aabbbe9451521693554f7336001607f1b87028161203d57fe5b0495505b6f7fffffffffffffffffffffffffffffff19860192508291506001607f1b828002049050600160801b838103830204840193506001607f1b8183028161208357fe5b049150600160811b836faaaaaaaaaaaaaaaaaaaaaaaaaaaaaaaa038302816120a757fe5b04840193506001607f1b818302816120bb57fe5b049150600360801b836f99999999999999999999999999999999038302816120df57fe5b04840193506001607f1b818302816120f357fe5b049150600160821b836f924924924924924924924924924924920383028161211757fe5b04840193506001607f1b8183028161212b57fe5b049150600560801b836f8e38e38e38e38e38e38e38e38e38e38e0383028161214f57fe5b04840193506001607f1b8183028161216357fe5b049150600360811b836f8ba2e8ba2e8ba2e8ba2e8ba2e8ba2e8b0383028161218757fe5b04840193506001607f1b8183028161219b57fe5b049150600760801b836f89d89d89d89d89d89d89d89d89d89d89038302816121bf57fe5b04840193506001607f1b818302816121d357fe5b049150600160831b836f88888888888888888888888888888888038302816121f757fe5b049390930195945050505050565b600080600160801b83106122355760006122246001607f1b8504612bad565b60ff1693841c936001607f1b029150505b6001607f1b83111561228357607f5b60ff811615612281576001607f1b848002049350600160801b841061227857600193841c9360ff6000198301161b91909101905b60001901612244565b505b6f05b9de1d10bf4103d647b0955897ba806f03f80fe03f80fe03f80fe03f80fe03f88202049392505050565b6000670168244fdac780006001607f1b6f0fffffffffffffffffffffffffffffff84168080028290048082028390048083028490049485026710e1b3be415a00009092026705a0913f6b1e000091909102010192909181830204905080664807432bc1800002830192506001607f1b8282028161232857fe5b04905080660c0135dca0400002830192506001607f1b8282028161234857fe5b049050806601b707b1cdc00002830192506001607f1b8282028161236857fe5b049050806536e0f639b80002830192506001607f1b8282028161238757fe5b04905080650618fee9f80002830192506001607f1b828202816123a657fe5b04905080649c197dcc0002830192506001607f1b828202816123c457fe5b04905080640e30dce40002830192506001607f1b828202816123e257fe5b0490508064012ebd130002830192506001607f1b8282028161240057fe5b049050806317499f0002830192506001607f1b8282028161241d57fe5b049050806301a9d48002830192506001607f1b8282028161243a57fe5b04905080621c638002830192506001607f1b8282028161245657fe5b049050806201c63802830192506001607f1b8282028161247257fe5b04905080611ab802830192506001607f1b8282028161248d57fe5b0490508061017c02830192506001607f1b828202816124a857fe5b04905080601402830192506001607f1b828202816124c257fe5b6721c3677c82b400009190049384010482016001607f1b019290506001607c1b8516156125135770018ebef9eac820ae8682b9793ac6d1e7767001c3d6a24ed82218787d624d3e5eba95f984020492505b6001607d1b851615612549577001368b2fc6f9609fe7aceb46aa619baed470018ebef9eac820ae8682b9793ac6d1e77884020492505b6001607e1b85161561257e576fbc5ab1b16779be3575bd8f0520a9f21f7001368b2fc6f9609fe7aceb46aa619baed584020492505b6001607f1b8516156125b2576f454aaa8efe072e7f6ddbab84b40a55c96fbc5ab1b16779be3575bd8f0520a9f21e84020492505b600160801b8516156125e6576f0960aadc109e7a3bf4578099615711ea6f454aaa8efe072e7f6ddbab84b40a55c584020492505b600160811b851615612619576e2bf84208204f5977f9a8cf01fdce3d6f0960aadc109e7a3bf4578099615711d784020492505b600160821b85161561264a576d03c6ab775dd0b95b4cbee7e65d116e2bf84208204f5977f9a8cf01fdc30784020492505b50909392505050565b60006020607f5b8060ff168260010160ff1610156126a3576000600260ff84840116049050846101358260ff166080811061268a57fe5b0154106126995780925061269d565b8091505b5061265a565b836101358260ff16608081106126b557fe5b0154106126c5579150610f449050565b836101358360ff16608081106126d757fe5b01541061022757509050610f44565b60008083905060008090508360ff16858302901c9150816f03442c4e6074a82f1797f72ac000000002810190508360ff16858302901c9150816f0116b96f757c380fb287fd0e4000000002810190508360ff16858302901c9150816e45ae5bdd5f0e03eca1ff439000000002810190508360ff16858302901c9150816e0defabf91302cd95b9ffda5000000002810190508360ff16858302901c9150816e02529ca9832b22439efff9b800000002810190508360ff16858302901c9150816d54f1cf12bd04e516b6da8800000002810190508360ff16858302901c9150816d0a9e39e257a09ca2d6db5100000002810190508360ff16858302901c9150816d012e066e7b839fa050c30900000002810190508360ff16858302901c9150816c1e33d7d926c329a1ad1a80000002810190508360ff16858302901c9150816c02bee513bdb4a6b19b5f80000002810190508360ff16858302901c9150816b3a9316fa79b88eccf2a0000002810190508360ff16858302901c9150816b048177ebe1fa81237520000002810190508360ff16858302901c9150816a5263fe90242dcbacf0000002810190508360ff16858302901c9150816a057e22099c030d9410000002810190508360ff16858302901c9150816957e22099c030d941000002810190508360ff16858302901c91508169052b6b5456997631000002810190508360ff16858302901c915081684985f67696bf74800002810190508360ff16858302901c9150816803dea12ea99e49800002810190508360ff16858302901c9150816731880f2214b6e00002810190508360ff16858302901c91508167025bcff56eb3600002810190508360ff16858302901c915081661b722e10ab100002810190508360ff16858302901c9150816601317c7007700002810190508360ff16858302901c915081650cba84aafa0002810190508360ff16858302901c9150816482573a0a0002810190508360ff16858302901c9150816405035ad90002810190508360ff16858302901c915081632f881b0002810190508360ff16858302901c9150816301b2934002810190508360ff16858302901c915081620efc4002810190508360ff16858302901c915081617fe002810190508360ff16858302901c91508161042002810190508360ff16858302901c915081602102810190508360ff16858302901c915081600102810190508360ff166001901b856f0688589cc0e9505e2f2fee55800000008381612a7757fe5b04010195945050505050565b60006117ff83836040518060400160405280601e81526020017f536166654d6174683a207375627472616374696f6e206f766572666c6f770000815250611a48565b612acf8282611d19565b15612b21576040805162461bcd60e51b815260206004820152601f60248201527f526f6c65733a206163636f756e7420616c72656164792068617320726f6c6500604482015290519081900360640190fd5b6001600160a01b0316600090815260209190915260409020805460ff19166001179055565b612b508282611d19565b612b8b5760405162461bcd60e51b8152600401808060200182810382526021815260200180612d646021913960400191505060405180910390fd5b6001600160a01b0316600090815260209190915260409020805460ff19169055565b600080610100831015612bd5575b6001831115612bd057600192831c9201612bbb565b610f41565b60805b60ff811615612c0757600160ff82161b8410612bfc5760ff81169390931c92908117905b60011c607f16612bd8565b5092915050565b828054600181600116156101000203166002900490600052602060002090601f016020900481019282601f10612c4f57805160ff1916838001178555612c7c565b82800160010185558215612c7c579182015b82811115612c7c578251825591602001919060010190612c61565b50612c88929150612c8c565b5090565b61094891905b80821115612c885760008155600101612c9256fe45524332303a207472616e7366657220746f20746865207a65726f206164647265737345524332303a206275726e20616d6f756e7420657863656564732062616c616e636545524332303a20617070726f766520746f20746865207a65726f206164647265737345524332303a207472616e7366657220616d6f756e7420657863656564732062616c616e63654d696e746572526f6c653a2063616c6c657220646f6573206e6f74206861766520746865204d696e74657220726f6c65526f6c65733a206163636f756e7420646f6573206e6f74206861766520726f6c6545524332303a207472616e7366657220616d6f756e74206578636565647320616c6c6f77616e6365526f6c65733a206163636f756e7420697320746865207a65726f2061646472657373436f6e747261637420696e7374616e63652068617320616c7265616479206265656e20696e697469616c697a656445524332303a206275726e20616d6f756e74206578636565647320616c6c6f77616e636545524332303a206275726e2066726f6d20746865207a65726f206164647265737345524332303a207472616e736665722066726f6d20746865207a65726f206164647265737345524332303a20617070726f76652066726f6d20746865207a65726f20616464726573734552433230426f6e64696e67546f6b656e3a204661696c656420746f207472616e7366657220746f6b656e7320666f7220696e7469616c20706f6f6c2e45524332303a2064656372656173656420616c6c6f77616e63652062656c6f77207a65726fa265627a7a72315820e9c6d9de93292937099eca46b2e994ba44598be0092d2a7cddd9035324035bcd64736f6c63430005100032",
  "compiler": {
    "name": "solc",
    "version": "0.5.16+commit.9c3226ce.Darwin.appleclang",
    "optimizer": {
      "enabled": true,
      "runs": 200
    },
    "evmVersion": "petersburg"
  }
}