{
  "fileName": "DummyERC20.sol",
  "contractName": "EurERC20",
  "source": "pragma solidity ^0.5.0;\n\n\nimport \"@openzeppelin/contracts-ethereum-package/contracts/ownership/Ownable.sol\";\nimport \"@openzeppelin/contracts-ethereum-package/contracts/token/ERC20/ERC20Detailed.sol\";\nimport \"@openzeppelin/contracts-ethereum-package/contracts/token/ERC20/ERC20Mintable.sol\";\n\n\ncontract EurERC20 is Ownable, ERC20Detailed, ERC20Mintable {\n    constructor(uint256 _initialSupply) public {\n        ERC20Detailed.initialize(\"EuroToken\", \"EUR\", 18);\n        _mint(msg.sender, _initialSupply);\n    }\n\n    function faucet(uint256 _amount) public {\n        _mint(msg.sender, _amount);\n    }\n}\n",
  "sourcePath": "contracts/DummyERC20.sol",
  "abi": [
    {
      "inputs": [
        {
          "internalType": "uint256",
          "name": "_initialSupply",
          "type": "uint256"
        }
      ],
      "payable": false,
      "stateMutability": "nonpayable",
      "type": "constructor"
    },
    {
      "anonymous": false,
      "inputs": [
        {
          "indexed": true,
          "internalType": "address",
          "name": "owner",
          "type": "address"
        },
        {
          "indexed": true,
          "internalType": "address",
          "name": "spender",
          "type": "address"
        },
        {
          "indexed": false,
          "internalType": "uint256",
          "name": "value",
          "type": "uint256"
        }
      ],
      "name": "Approval",
      "type": "event"
    },
    {
      "anonymous": false,
      "inputs": [
        {
          "indexed": true,
          "internalType": "address",
          "name": "account",
          "type": "address"
        }
      ],
      "name": "MinterAdded",
      "type": "event"
    },
    {
      "anonymous": false,
      "inputs": [
        {
          "indexed": true,
          "internalType": "address",
          "name": "account",
          "type": "address"
        }
      ],
      "name": "MinterRemoved",
      "type": "event"
    },
    {
      "anonymous": false,
      "inputs": [
        {
          "indexed": true,
          "internalType": "address",
          "name": "previousOwner",
          "type": "address"
        },
        {
          "indexed": true,
          "internalType": "address",
          "name": "newOwner",
          "type": "address"
        }
      ],
      "name": "OwnershipTransferred",
      "type": "event"
    },
    {
      "anonymous": false,
      "inputs": [
        {
          "indexed": true,
          "internalType": "address",
          "name": "from",
          "type": "address"
        },
        {
          "indexed": true,
          "internalType": "address",
          "name": "to",
          "type": "address"
        },
        {
          "indexed": false,
          "internalType": "uint256",
          "name": "value",
          "type": "uint256"
        }
      ],
      "name": "Transfer",
      "type": "event"
    },
    {
      "constant": false,
      "inputs": [
        {
          "internalType": "address",
          "name": "account",
          "type": "address"
        }
      ],
      "name": "addMinter",
      "outputs": [],
      "payable": false,
      "stateMutability": "nonpayable",
      "type": "function"
    },
    {
      "constant": true,
      "inputs": [
        {
          "internalType": "address",
          "name": "owner",
          "type": "address"
        },
        {
          "internalType": "address",
          "name": "spender",
          "type": "address"
        }
      ],
      "name": "allowance",
      "outputs": [
        {
          "internalType": "uint256",
          "name": "",
          "type": "uint256"
        }
      ],
      "payable": false,
      "stateMutability": "view",
      "type": "function"
    },
    {
      "constant": false,
      "inputs": [
        {
          "internalType": "address",
          "name": "spender",
          "type": "address"
        },
        {
          "internalType": "uint256",
          "name": "amount",
          "type": "uint256"
        }
      ],
      "name": "approve",
      "outputs": [
        {
          "internalType": "bool",
          "name": "",
          "type": "bool"
        }
      ],
      "payable": false,
      "stateMutability": "nonpayable",
      "type": "function"
    },
    {
      "constant": true,
      "inputs": [
        {
          "internalType": "address",
          "name": "account",
          "type": "address"
        }
      ],
      "name": "balanceOf",
      "outputs": [
        {
          "internalType": "uint256",
          "name": "",
          "type": "uint256"
        }
      ],
      "payable": false,
      "stateMutability": "view",
      "type": "function"
    },
    {
      "constant": true,
      "inputs": [],
      "name": "decimals",
      "outputs": [
        {
          "internalType": "uint8",
          "name": "",
          "type": "uint8"
        }
      ],
      "payable": false,
      "stateMutability": "view",
      "type": "function"
    },
    {
      "constant": false,
      "inputs": [
        {
          "internalType": "address",
          "name": "spender",
          "type": "address"
        },
        {
          "internalType": "uint256",
          "name": "subtractedValue",
          "type": "uint256"
        }
      ],
      "name": "decreaseAllowance",
      "outputs": [
        {
          "internalType": "bool",
          "name": "",
          "type": "bool"
        }
      ],
      "payable": false,
      "stateMutability": "nonpayable",
      "type": "function"
    },
    {
      "constant": false,
      "inputs": [
        {
          "internalType": "uint256",
          "name": "_amount",
          "type": "uint256"
        }
      ],
      "name": "faucet",
      "outputs": [],
      "payable": false,
      "stateMutability": "nonpayable",
      "type": "function"
    },
    {
      "constant": false,
      "inputs": [
        {
          "internalType": "address",
          "name": "spender",
          "type": "address"
        },
        {
          "internalType": "uint256",
          "name": "addedValue",
          "type": "uint256"
        }
      ],
      "name": "increaseAllowance",
      "outputs": [
        {
          "internalType": "bool",
          "name": "",
          "type": "bool"
        }
      ],
      "payable": false,
      "stateMutability": "nonpayable",
      "type": "function"
    },
    {
      "constant": false,
      "inputs": [
        {
          "internalType": "string",
          "name": "name",
          "type": "string"
        },
        {
          "internalType": "string",
          "name": "symbol",
          "type": "string"
        },
        {
          "internalType": "uint8",
          "name": "decimals",
          "type": "uint8"
        }
      ],
      "name": "initialize",
      "outputs": [],
      "payable": false,
      "stateMutability": "nonpayable",
      "type": "function"
    },
    {
      "constant": false,
      "inputs": [
        {
          "internalType": "address",
          "name": "sender",
          "type": "address"
        }
      ],
      "name": "initialize",
      "outputs": [],
      "payable": false,
      "stateMutability": "nonpayable",
      "type": "function"
    },
    {
      "constant": true,
      "inputs": [
        {
          "internalType": "address",
          "name": "account",
          "type": "address"
        }
      ],
      "name": "isMinter",
      "outputs": [
        {
          "internalType": "bool",
          "name": "",
          "type": "bool"
        }
      ],
      "payable": false,
      "stateMutability": "view",
      "type": "function"
    },
    {
      "constant": true,
      "inputs": [],
      "name": "isOwner",
      "outputs": [
        {
          "internalType": "bool",
          "name": "",
          "type": "bool"
        }
      ],
      "payable": false,
      "stateMutability": "view",
      "type": "function"
    },
    {
      "constant": false,
      "inputs": [
        {
          "internalType": "address",
          "name": "account",
          "type": "address"
        },
        {
          "internalType": "uint256",
          "name": "amount",
          "type": "uint256"
        }
      ],
      "name": "mint",
      "outputs": [
        {
          "internalType": "bool",
          "name": "",
          "type": "bool"
        }
      ],
      "payable": false,
      "stateMutability": "nonpayable",
      "type": "function"
    },
    {
      "constant": true,
      "inputs": [],
      "name": "name",
      "outputs": [
        {
          "internalType": "string",
          "name": "",
          "type": "string"
        }
      ],
      "payable": false,
      "stateMutability": "view",
      "type": "function"
    },
    {
      "constant": true,
      "inputs": [],
      "name": "owner",
      "outputs": [
        {
          "internalType": "address",
          "name": "",
          "type": "address"
        }
      ],
      "payable": false,
      "stateMutability": "view",
      "type": "function"
    },
    {
      "constant": false,
      "inputs": [],
      "name": "renounceMinter",
      "outputs": [],
      "payable": false,
      "stateMutability": "nonpayable",
      "type": "function"
    },
    {
      "constant": false,
      "inputs": [],
      "name": "renounceOwnership",
      "outputs": [],
      "payable": false,
      "stateMutability": "nonpayable",
      "type": "function"
    },
    {
      "constant": true,
      "inputs": [],
      "name": "symbol",
      "outputs": [
        {
          "internalType": "string",
          "name": "",
          "type": "string"
        }
      ],
      "payable": false,
      "stateMutability": "view",
      "type": "function"
    },
    {
      "constant": true,
      "inputs": [],
      "name": "totalSupply",
      "outputs": [
        {
          "internalType": "uint256",
          "name": "",
          "type": "uint256"
        }
      ],
      "payable": false,
      "stateMutability": "view",
      "type": "function"
    },
    {
      "constant": false,
      "inputs": [
        {
          "internalType": "address",
          "name": "recipient",
          "type": "address"
        },
        {
          "internalType": "uint256",
          "name": "amount",
          "type": "uint256"
        }
      ],
      "name": "transfer",
      "outputs": [
        {
          "internalType": "bool",
          "name": "",
          "type": "bool"
        }
      ],
      "payable": false,
      "stateMutability": "nonpayable",
      "type": "function"
    },
    {
      "constant": false,
      "inputs": [
        {
          "internalType": "address",
          "name": "sender",
          "type": "address"
        },
        {
          "internalType": "address",
          "name": "recipient",
          "type": "address"
        },
        {
          "internalType": "uint256",
          "name": "amount",
          "type": "uint256"
        }
      ],
      "name": "transferFrom",
      "outputs": [
        {
          "internalType": "bool",
          "name": "",
          "type": "bool"
        }
      ],
      "payable": false,
      "stateMutability": "nonpayable",
      "type": "function"
    },
    {
      "constant": false,
      "inputs": [
        {
          "internalType": "address",
          "name": "newOwner",
          "type": "address"
        }
      ],
      "name": "transferOwnership",
      "outputs": [],
      "payable": false,
      "stateMutability": "nonpayable",
      "type": "function"
    }
  ],
  "bytecode": "0x60806040523480156200001157600080fd5b5060405162001a6838038062001a68833981810160405260208110156200003757600080fd5b5051604080518082018252600981527f4575726f546f6b656e00000000000000000000000000000000000000000000006020828101919091528251808401909352600383527f455552000000000000000000000000000000000000000000000000000000000083820152620000b9929060129062000657620000d5821b17901c565b620000ce33826001600160e01b03620001e016565b5062000424565b600054610100900460ff1680620000fa5750620000fa6001600160e01b03620002ff16565b8062000109575060005460ff16155b62000160576040517f08c379a000000000000000000000000000000000000000000000000000000000815260040180806020018281038252602e81526020018062001a3a602e913960400191505060405180910390fd5b600054610100900460ff161580156200018c576000805460ff1961ff0019909116610100171660011790555b8351620001a190606690602087019062000382565b508251620001b790606790602086019062000382565b506068805460ff191660ff84161790558015620001da576000805461ff00191690555b50505050565b6001600160a01b0382166200025657604080517f08c379a000000000000000000000000000000000000000000000000000000000815260206004820152601f60248201527f45524332303a206d696e7420746f20746865207a65726f206164647265737300604482015290519081900360640190fd5b6200027281609d546200030660201b62000efb1790919060201c565b609d556001600160a01b0382166000908152609b6020908152604090912054620002a791839062000efb62000306821b17901c565b6001600160a01b0383166000818152609b602090815260408083209490945583518581529351929391927fddf252ad1be2c89b69c2b068fc378daa952ba7f163c4a11628f55a4df523b3ef9281900390910190a35050565b303b155b90565b6000828201838110156200037b57604080517f08c379a000000000000000000000000000000000000000000000000000000000815260206004820152601b60248201527f536166654d6174683a206164646974696f6e206f766572666c6f770000000000604482015290519081900360640190fd5b9392505050565b828054600181600116156101000203166002900490600052602060002090601f016020900481019282601f10620003c557805160ff1916838001178555620003f5565b82800160010185558215620003f5579182015b82811115620003f5578251825591602001919060010190620003d8565b506200040392915062000407565b5090565b6200030391905b808211156200040357600081556001016200040e565b61160680620004346000396000f3fe608060405234801561001057600080fd5b50600436106101425760003560e01c80638da5cb5b116100b8578063a457c2d71161007c578063a457c2d7146104ab578063a9059cbb146104d7578063aa271e1a14610503578063c4d66de814610529578063dd62ed3e1461054f578063f2fde38b1461057d57610142565b80638da5cb5b146104495780638f32d59b1461046d57806395d89b4114610475578063983b2d561461047d57806398650275146104a357610142565b8063313ce5671161010a578063313ce5671461038857806339509351146103a657806340c10f19146103d257806357915897146103fe57806370a082311461041b578063715018a61461044157610142565b806306fdde0314610147578063095ea7b3146101c45780631624f6c61461020457806318160ddd1461033857806323b872dd14610352575b600080fd5b61014f6105a3565b6040805160208082528351818301528351919283929083019185019080838360005b83811015610189578181015183820152602001610171565b50505050905090810190601f1680156101b65780820380516001836020036101000a031916815260200191505b509250505060405180910390f35b6101f0600480360360408110156101da57600080fd5b506001600160a01b03813516906020013561063a565b604080519115158252519081900360200190f35b6103366004803603606081101561021a57600080fd5b81019060208101813564010000000081111561023557600080fd5b82018360208201111561024757600080fd5b8035906020019184600183028401116401000000008311171561026957600080fd5b91908080601f01602080910402602001604051908101604052809392919081815260200183838082843760009201919091525092959493602081019350359150506401000000008111156102bc57600080fd5b8201836020820111156102ce57600080fd5b803590602001918460018302840111640100000000831117156102f057600080fd5b91908080601f0160208091040260200160405190810160405280939291908181526020018383808284376000920191909152509295505050903560ff1691506106579050565b005b610340610733565b60408051918252519081900360200190f35b6101f06004803603606081101561036857600080fd5b506001600160a01b03813581169160208101359091169060400135610739565b6103906107c6565b6040805160ff9092168252519081900360200190f35b6101f0600480360360408110156103bc57600080fd5b506001600160a01b0381351690602001356107cf565b6101f0600480360360408110156103e857600080fd5b506001600160a01b038135169060200135610823565b6103366004803603602081101561041457600080fd5b503561087a565b6103406004803603602081101561043157600080fd5b50356001600160a01b0316610887565b6103366108a2565b610451610945565b604080516001600160a01b039092168252519081900360200190f35b6101f0610954565b61014f61097a565b6103366004803603602081101561049357600080fd5b50356001600160a01b03166109db565b610336610a2a565b6101f0600480360360408110156104c157600080fd5b506001600160a01b038135169060200135610a3c565b6101f0600480360360408110156104ed57600080fd5b506001600160a01b038135169060200135610aaa565b6101f06004803603602081101561051957600080fd5b50356001600160a01b0316610abe565b6103366004803603602081101561053f57600080fd5b50356001600160a01b0316610ad7565b6103406004803603604081101561056557600080fd5b506001600160a01b0381358116916020013516610b83565b6103366004803603602081101561059357600080fd5b50356001600160a01b0316610bae565b60668054604080516020601f600260001961010060018816150201909516949094049384018190048102820181019092528281526060939092909183018282801561062f5780601f106106045761010080835404028352916020019161062f565b820191906000526020600020905b81548152906001019060200180831161061257829003601f168201915b505050505090505b90565b600061064e610647610c10565b8484610c14565b50600192915050565b600054610100900460ff16806106705750610670610d00565b8061067e575060005460ff16155b6106b95760405162461bcd60e51b815260040180806020018281038252602e815260200180611536602e913960400191505060405180910390fd5b600054610100900460ff161580156106e4576000805460ff1961ff0019909116610100171660011790555b83516106f7906066906020870190611371565b50825161070b906067906020860190611371565b506068805460ff191660ff8416179055801561072d576000805461ff00191690555b50505050565b609d5490565b6000610746848484610d06565b6107bc84610752610c10565b6107b7856040518060600160405280602881526020016114ec602891396001600160a01b038a166000908152609c6020526040812090610790610c10565b6001600160a01b03168152602081019190915260400160002054919063ffffffff610e6416565b610c14565b5060019392505050565b60685460ff1690565b600061064e6107dc610c10565b846107b785609c60006107ed610c10565b6001600160a01b03908116825260208083019390935260409182016000908120918c16815292529020549063ffffffff610efb16565b6000610835610830610c10565b610abe565b6108705760405162461bcd60e51b815260040180806020018281038252603081526020018061149b6030913960400191505060405180910390fd5b61064e8383610f5c565b6108843382610f5c565b50565b6001600160a01b03166000908152609b602052604090205490565b6108aa610954565b6108fb576040805162461bcd60e51b815260206004820181905260248201527f4f776e61626c653a2063616c6c6572206973206e6f7420746865206f776e6572604482015290519081900360640190fd5b6033546040516000916001600160a01b0316907f8be0079c531659141344cd1fd0a4f28419497f9722a3daafe3b4186f6b6457e0908390a3603380546001600160a01b0319169055565b6033546001600160a01b031690565b6033546000906001600160a01b031661096b610c10565b6001600160a01b031614905090565b60678054604080516020601f600260001961010060018816150201909516949094049384018190048102820181019092528281526060939092909183018282801561062f5780601f106106045761010080835404028352916020019161062f565b6109e6610830610c10565b610a215760405162461bcd60e51b815260040180806020018281038252603081526020018061149b6030913960400191505060405180910390fd5b6108848161104e565b610a3a610a35610c10565b611096565b565b600061064e610a49610c10565b846107b7856040518060600160405280602581526020016115ad60259139609c6000610a73610c10565b6001600160a01b03908116825260208083019390935260409182016000908120918d1681529252902054919063ffffffff610e6416565b600061064e610ab7610c10565b8484610d06565b6000610ad160d08363ffffffff6110de16565b92915050565b600054610100900460ff1680610af05750610af0610d00565b80610afe575060005460ff16155b610b395760405162461bcd60e51b815260040180806020018281038252602e815260200180611536602e913960400191505060405180910390fd5b600054610100900460ff16158015610b64576000805460ff1961ff0019909116610100171660011790555b610b6d82611145565b8015610b7f576000805461ff00191690555b5050565b6001600160a01b039182166000908152609c6020908152604080832093909416825291909152205490565b610bb6610954565b610c07576040805162461bcd60e51b815260206004820181905260248201527f4f776e61626c653a2063616c6c6572206973206e6f7420746865206f776e6572604482015290519081900360640190fd5b610884816111e8565b3390565b6001600160a01b038316610c595760405162461bcd60e51b81526004018080602001828103825260248152602001806115896024913960400191505060405180910390fd5b6001600160a01b038216610c9e5760405162461bcd60e51b81526004018080602001828103825260228152602001806114536022913960400191505060405180910390fd5b6001600160a01b038084166000818152609c6020908152604080832094871680845294825291829020859055815185815291517f8c5be1e5ebec7d5bd14f71427d1e84f3dd0314c0f7b2291e5b200ac8c7c3b9259281900390910190a3505050565b303b1590565b6001600160a01b038316610d4b5760405162461bcd60e51b81526004018080602001828103825260258152602001806115646025913960400191505060405180910390fd5b6001600160a01b038216610d905760405162461bcd60e51b815260040180806020018281038252602381526020018061140a6023913960400191505060405180910390fd5b610dd381604051806060016040528060268152602001611475602691396001600160a01b0386166000908152609b6020526040902054919063ffffffff610e6416565b6001600160a01b038085166000908152609b60205260408082209390935590841681522054610e08908263ffffffff610efb16565b6001600160a01b038084166000818152609b602090815260409182902094909455805185815290519193928716927fddf252ad1be2c89b69c2b068fc378daa952ba7f163c4a11628f55a4df523b3ef92918290030190a3505050565b60008184841115610ef35760405162461bcd60e51b81526004018080602001828103825283818151815260200191508051906020019080838360005b83811015610eb8578181015183820152602001610ea0565b50505050905090810190601f168015610ee55780820380516001836020036101000a031916815260200191505b509250505060405180910390fd5b505050900390565b600082820183811015610f55576040805162461bcd60e51b815260206004820152601b60248201527f536166654d6174683a206164646974696f6e206f766572666c6f770000000000604482015290519081900360640190fd5b9392505050565b6001600160a01b038216610fb7576040805162461bcd60e51b815260206004820152601f60248201527f45524332303a206d696e7420746f20746865207a65726f206164647265737300604482015290519081900360640190fd5b609d54610fca908263ffffffff610efb16565b609d556001600160a01b0382166000908152609b6020526040902054610ff6908263ffffffff610efb16565b6001600160a01b0383166000818152609b602090815260408083209490945583518581529351929391927fddf252ad1be2c89b69c2b068fc378daa952ba7f163c4a11628f55a4df523b3ef9281900390910190a35050565b61105f60d08263ffffffff61128916565b6040516001600160a01b038216907f6ae172837ea30b801fbfcdd4108aa1d5bf8ff775444fd70256b44e6bf3dfc3f690600090a250565b6110a760d08263ffffffff61130a16565b6040516001600160a01b038216907fe94479a9f7e1952cc78f2d6baab678adc1b772d936c6583def489e524cb6669290600090a250565b60006001600160a01b0382166111255760405162461bcd60e51b81526004018080602001828103825260228152602001806115146022913960400191505060405180910390fd5b506001600160a01b03166000908152602091909152604090205460ff1690565b600054610100900460ff168061115e575061115e610d00565b8061116c575060005460ff16155b6111a75760405162461bcd60e51b815260040180806020018281038252602e815260200180611536602e913960400191505060405180910390fd5b600054610100900460ff161580156111d2576000805460ff1961ff0019909116610100171660011790555b6111db82610abe565b610b6d57610b6d8261104e565b6001600160a01b03811661122d5760405162461bcd60e51b815260040180806020018281038252602681526020018061142d6026913960400191505060405180910390fd5b6033546040516001600160a01b038084169216907f8be0079c531659141344cd1fd0a4f28419497f9722a3daafe3b4186f6b6457e090600090a3603380546001600160a01b0319166001600160a01b0392909216919091179055565b61129382826110de565b156112e5576040805162461bcd60e51b815260206004820152601f60248201527f526f6c65733a206163636f756e7420616c72656164792068617320726f6c6500604482015290519081900360640190fd5b6001600160a01b0316600090815260209190915260409020805460ff19166001179055565b61131482826110de565b61134f5760405162461bcd60e51b81526004018080602001828103825260218152602001806114cb6021913960400191505060405180910390fd5b6001600160a01b0316600090815260209190915260409020805460ff19169055565b828054600181600116156101000203166002900490600052602060002090601f016020900481019282601f106113b257805160ff19168380011785556113df565b828001600101855582156113df579182015b828111156113df5782518255916020019190600101906113c4565b506113eb9291506113ef565b5090565b61063791905b808211156113eb57600081556001016113f556fe45524332303a207472616e7366657220746f20746865207a65726f20616464726573734f776e61626c653a206e6577206f776e657220697320746865207a65726f206164647265737345524332303a20617070726f766520746f20746865207a65726f206164647265737345524332303a207472616e7366657220616d6f756e7420657863656564732062616c616e63654d696e746572526f6c653a2063616c6c657220646f6573206e6f74206861766520746865204d696e74657220726f6c65526f6c65733a206163636f756e7420646f6573206e6f74206861766520726f6c6545524332303a207472616e7366657220616d6f756e74206578636565647320616c6c6f77616e6365526f6c65733a206163636f756e7420697320746865207a65726f2061646472657373436f6e747261637420696e7374616e63652068617320616c7265616479206265656e20696e697469616c697a656445524332303a207472616e736665722066726f6d20746865207a65726f206164647265737345524332303a20617070726f76652066726f6d20746865207a65726f206164647265737345524332303a2064656372656173656420616c6c6f77616e63652062656c6f77207a65726fa265627a7a72315820646586516e7139480283b202e1ab41549b6b4f3cf1cb5cb8a4b96d6e732412ad64736f6c63430005100032436f6e747261637420696e7374616e63652068617320616c7265616479206265656e20696e697469616c697a6564",
  "compiler": {
    "name": "solc",
    "version": "0.5.16+commit.9c3226ce.Darwin.appleclang",
    "optimizer": {
      "enabled": true,
      "runs": 200
    },
    "evmVersion": "petersburg"
  }
}